1027/11/2018                             000000000000000                                                              000000000                       
208888800305688001JESSICA ALVES DE SOUZA CRUZ           04010917687111/2018+0000000000217038C5Z803/09/1991888800305688001JESSICA ALVES DE SOUZA CRUZ     000000580                    
208888800305689002ANGELICA VERZA PINAFFO                02200671482111/2018+0000000000000548C5Z830/11/1979888800305689001RIVENILDO DE ALMEIDA PINAFFO    000000620                    
208888800305690001ODAIR JOSE DA SILVA LIMA              02658664583211/2018+0000000000050068C5Z830/07/1980888800305690001ODAIR JOSE DA SILVA LIMA        000000630                    
208888800305690002PRISCILA GARCIA DE OLIVEIRA LIMA      03180399082111/2018+0000000000073008C5Z818/04/1983888800305690001ODAIR JOSE DA SILVA LIMA        000000630                    
208888800305691001FLAVIO NEVES DE ARAUJO                00780454081711/2018+0000000000005718C5Z802/11/1965888800305691001FLAVIO NEVES DE ARAUJO          000000640                    
208888800305693001VANDERCI FERNANDES DE CARVALHO        06040595361511/2018+0000000000191058C5Z823/02/1967888800305693001VANDERCI FERNANDES DE CARVALHO  000000690                    
208888800305693002MARIA AGUIDA MORAIS SOBRINHO          06040571667211/2018+0000000000113818C5Z812/08/1967888800305693001VANDERCI FERNANDES DE CARVALHO  000000690                    
208888800305695002ALESSANDRA BARRETO SILVA              03262337188111/2018+0000000000029108C5Z817/03/1985888800305695001EDICARLOS BARRETO SILVA         000000740                    
208888800305698010ARTHUR CARVALHO DE ANDRADE            04725923389311/2018+0000000000000728C5Z814/09/2007888800305698001CARLOS HENRIQUE R DE ANDRADE    000000830                    
208888800305699001PATRICIA GIRALDELI PECORA             03102163386011/2018+0000000000024148C5Z814/09/1982888800305699001PATRICIA GIRALDELI PECORA       000000850                    
208888800305702001PATRICIA DE CASTRO DAVI SALVIANO      02188101286711/2018+0000000000039758C5Z826/12/1980888800305702001PATRICIA DE CASTRO DAVI SALVIANO000000880                    
208888800305704001AMANDA PEREIRA CARNEIRO               04161070888111/2018+0000000000029108C5Z824/05/1992888800305704001AMANDA PEREIRA CARNEIRO         000000930                    
208888800305705001NIVALDO SEVERINO DE MOURA             02437468749111/2018+0000000000185968C5Z825/01/1960888800305705001NIVALDO SEVERINO DE MOURA       000000940                    
208888800305710001GABRIELA COSTA DE ALMEIDA             04010849983911/2018+0000000000005788C5Z820/11/1991888800305710001GABRIELA COSTA DE ALMEIDA       000000990                    
208888800305714001RICARDO LOPES CERQUEIRA               03441348184411/2018+0000000000010978C5Z823/03/1986888800305714001RICARDO LOPES CERQUEIRA         000040150                    
208888845245808001BRUNA CRISTINA BARBOSA          11700303838673280611/2018-0000000000006288C5Z808/03/1989888845245808001BRUNA CRISTINA BARBOSA          000001030                    
208888845561096010LORENZO MACHADO DOS SANTOS      11000205056104183011/2018+0000000000051008C5Z812/12/2015888845561096001VAGNER RAMOS DA SILVA SANTOS    000001050                    
208888845561106010LETICIA LACERDA SILVA           11000205325435787611/2018+0000000000086438C5Z811/01/2014888845561106001ERIVANDRA CICERA MARIA DA SILVA 000001060                    
208888845835412001EDSON SILVA ZANOTTI             11700401189655284611/2018+0000000000086398C5Z827/03/1968888845835412001EDSON SILVA ZANOTTI             000001090                    
90+000000000119426000019                                                                                                                              
