1031/07/2018                             000000000000000                                                              000000000                       
208888800305685001JOCINEIA TAVARES DA SILVA             02949329683007/2018+0000000000376128C5Z823/08/1981888800305685001JOCINEIA TAVARES DA SILVA       000000420                    
208888800305688001JESSICA ALVES DE SOUZA CRUZ           04010917687107/2018+0000000000057298C5Z803/09/1991888800305688001JESSICA ALVES DE SOUZA CRUZ     000000580                    
208888800305689010BRYAN VERZA PINAFFO                   04774810789007/2018+0000000000002828C5Z811/07/2003888800305689001RIVENILDO DE ALMEIDA PINAFFO    000000620                    
208888800305695002ALESSANDRA BARRETO SILVA              03262337188107/2018+0000000000027008C5Z817/03/1985888800305695001EDICARLOS BARRETO SILVA         000000740                    
208888800305704001AMANDA PEREIRA CARNEIRO               04161070888107/2018+0000000000027008C5Z824/05/1992888800305704001AMANDA PEREIRA CARNEIRO         000000930                    
208888800305707001LUZINETE MARIA DOS SANTOS             03540511083307/2018+0000000000054008C5Z815/03/1985888800305707001LUZINETE MARIA DOS SANTOS       000000960                    
208888800305714002ALESSANDRA AGUIAR DA SILVA            03480680585807/2018+0000000000031778C5Z803/07/1987888800305714001RICARDO LOPES CERQUEIRA         000040150                    
208888845245808001BRUNA CRISTINA BARBOSA          11700303838673280607/2018+0000000000037608C5Z808/03/1989888845245808001BRUNA CRISTINA BARBOSA          000001030                    
208888845561096010LORENZO MACHADO DOS SANTOS      11000205056104183007/2018+0000000000138008C5Z812/12/2015888845561096001VAGNER RAMOS DA SILVA SANTOS    000001050                    
208888845789543001ALEX SANDRO INACIO DE OLIVEIRA  11000202995484688307/2018+0000000000027008C5Z813/12/1981888845789543001ALEX SANDRO INACIO DE OLIVEIRA  000001080                    
208888845835412002RENATA CRISTINA ZANOTTI         11700401817638882307/2018+0000000000018648C5Z808/11/1971888845835412001EDSON SILVA ZANOTTI             000001090                    
208888845991519001RAFAELA DE SOUZA                      04102702083607/2018+0000000000081878C5Z816/09/1993888845991519001RAFAELA DE SOUZA                000001120                    
90+000000000087911000012                                                                                                                              
