1031/08/2018                             000000000000000                                                              000000000                       
208888800305719002FERNANDO HENRIQUE SILVA               02170068384508/2018+0000000000058188C7XX10/01/1980888800305719001HELIETE FIRMINA DA SILVA        000000110                    
208888800305720012CATARINA NAVARRO BODON                01238771882808/2018+0000000000254668C7XX22/09/1945888800305720001CELIA REGINA BODON S GERARDI    000015380                    
208888800305721002VALERIA FERREIRA FILIPE               06919169770008/2018+0000000000035578C7XX21/09/1961888800305721001JOSE CARLOS CARREIRA FILIPE     000015530                    
208888800305722001BEATRIZ LARA APOLINARIO               02679373480608/2018+0000000000252898C7XX18/01/1978888800305722001BEATRIZ LARA APOLINARIO         000015660                    
208888800305723001MARIA INES CONTAR                     08111837682008/2018+0000000000095078C7XX03/07/1951888800305723001MARIA INES CONTAR               000016070                    
208888800305723002CARLOS RICARDO PEREIRA                08970898980008/2018+0000000000166598C7XX16/08/1956888800305723001MARIA INES CONTAR               000016070                    
208888800305731001SANDRA CARDOSO DE ANDRADE             02863649787608/2018+0000000000311078C7XX12/11/1980888800305731001SANDRA CARDOSO DE ANDRADE       000018950                    
208888800305732001JUSTINO MATIAS DIAS                   00446300284208/2018+0000000000027948C7XX10/12/1959888800305732001JUSTINO MATIAS DIAS             000018970                    
208888800305737002LECIO GREGORIO DA SILVA               02850100188008/2018+0000000000013228C7XX18/07/1981888800305737001DANIELE CONCEICAO DE SOUZA      000020620                    
208888800305741001VERA REGINA CERIOLI                   02316369006808/2018+0000000000008128C7XX30/03/1956888800305741001VERA REGINA CERIOLI             000022490                    
208888800305741002CARLOS SANTOS DIAS                    08055004587208/2018+0000000000133938C7XX13/08/1958888800305741001VERA REGINA CERIOLI             000022490                    
208888800305743001MARCIA CRISTINA DA COSTA              01357878486908/2018+0000000000019168C7XX23/03/1971888800305743001MARCIA CRISTINA DA COSTA        000022880                    
208888800305745001GILBERTO DA ROCHA SANTOS              00448615487808/2018+0000000000069098C7XX13/03/1964888800305745001GILBERTO DA ROCHA SANTOS        000023160                    
208888800305745002MARIA DE FATIMA REBELO SANTOS         01487853980108/2018+0000000000152168C7XX03/01/1963888800305745001GILBERTO DA ROCHA SANTOS        000023160                    
208888800305747001JULIA SHIZUE KAWASHIMA                00540855782008/2018+0000000000144488C7XX14/06/1959888800305747001JULIA SHIZUE KAWASHIMA          000023500                    
208888800305749001PRISCILA ANTONIA A ARAUJO             02140549082908/2018+0000000000027008C7XX16/03/1981888800305749001PRISCILA ANTONIA A ARAUJO       000024080                    
208888800305750010LARISSA DOS SANTOS COSTA              04246497487008/2018+0000000000066418C7XX24/09/1996888800305750001EDUARDO MATEUS DA COSTA         000024110                    
208888800305751001MARIA GRAZIELA FURTADO SBROGLIO       03319345389708/2018+0000000000080368C7XX07/10/1985888800305751001MARIA GRAZIELA FURTADO SBROGLIO 000024500                    
208888800305752002MARCOS ELIAS DA SILVA COELHO          00756978661008/2018+0000000000006198C7XX27/08/1983888800305752001ANA PAULA FERNANDES SANTANA     000024940                    
208888800305760010MARIA JULIA DUARTE TORRES             05328556488108/2018+0000000000020648C7XX27/07/2017888800305760001MARLUCIA JACINTO DUARTE         000026000                    
208888800305766001CLAUDIO CALMON DOS SANTOS             05433058050008/2018+0000000000152458C7XX25/03/1971888800305766001CLAUDIO CALMON DOS SANTOS       000027350                    
208888800305767001DANIELE MAIA SOUZA                    02837822280208/2018+0000000000284218C7XX07/05/1980888800305767001DANIELE MAIA SOUZA              000027420                    
208888800305767010NICOLE MAIA DANTAS                    04986474588308/2018+0000000000029618C7XX09/05/2001888800305767001DANIELE MAIA SOUZA              000027420                    
208888800305774002TANIA BARBOSA DE ASSIS CARDOSO        01252390882408/2018+0000000000027008C7XX29/08/1966888800305774001WANDERLEI ROSARIO DA SILVA      000028310                    
208888800305777002ISABEL SAYURI KATO                    03611944289808/2018+0000000000007148C7XX10/10/1986888800305777001RICARDO FERNANDES LOPES         000029030                    
208888800305785001MILENA SOUZA BRONCA MESQUITA          03020697786708/2018+0000000000388698C7XX25/04/1980888800305785001MILENA SOUZA BRONCA MESQUITA    000030060                    
208888800305785010LUCAS BRONCA MESQUITA                 05345564485608/2018+0000000000159758C7XX21/02/2014888800305785001MILENA SOUZA BRONCA MESQUITA    000030060                    
208888800305789001SILVIO ANTONIO LOUREIRO               00094743789408/2018+0000000000190788C7XX24/05/1960888800305789001SILVIO ANTONIO LOUREIRO         000030810                    
208888800305790010FELIPE CRAVO BOREL                    00675932050608/2018+0000000000006668C7XX20/05/2002888800305790001MARCELO MURICY BOREL            000030880                    
208888800305793010GUSTAVO MOURA DOS SANTOS              04814236689408/2018+0000000000147008C7XX17/09/2013888800305793001ROSENI SANTOS MOURA             000031520                    
208888800305797001RITA FORMIGA NASSAR                   03096970688008/2018+0000000000112078C7XX12/03/1982888800305797001RITA FORMIGA NASSAR             000031710                    
208888800305797002MARCOS JORGE NASSAR                   01761181289008/2018+0000000000044668C7XX27/10/1977888800305797001RITA FORMIGA NASSAR             000031710                    
208888800305798001EDUARDO MORAES DOS SANTOS             01513140086408/2018+0000000000106208C7XX11/07/1975888800305798001EDUARDO MORAES DOS SANTOS       000031730                    
208888800305798002LUCILA NANCI CASTELLANI               03039823787508/2018+0000000000005778C7XX10/02/1982888800305798001EDUARDO MORAES DOS SANTOS       000031730                    
208888800305798011TOMAZ CASTELLANI SANTOS               00000000000008/2018+0000000000005188C7XX08/11/2005888800305798001EDUARDO MORAES DOS SANTOS       000031730                    
208888800305799001SARITA RUGGIERI Z CAMPINEIRO          00844080080008/2018+0000000000184098C7XX23/06/1966888800305799001SARITA RUGGIERI Z CAMPINEIRO    000031760                    
208888800305799002WELLINGTON ZACCARELLI CAMPINEIRO      00658159984008/2018+0000000000043598C7XX20/08/1965888800305799001SARITA RUGGIERI Z CAMPINEIRO    000031760                    
208888800305800010MARIA CLARA ALVES DE SOUZA            05270504588008/2018+0000000000049328C7XX16/05/2004888800305800001EDNA ALVES WANDERLEY            000031770                    
208888800305802001CARLA CRISTINA V DEFAVARI             01470777584508/2018+0000000000078558C7XX19/05/1972888800305802001CARLA CRISTINA V DEFAVARI       000032050                    
208888800305802010BEATRIZ VENDRAMEL BORGES              04776109280008/2018+0000000000227728C7XX18/06/1996888800305802001CARLA CRISTINA V DEFAVARI       000032050                    
208888800305810010MARIA CLARA BIANCO KAPOR              00000000000008/2018+0000000000054388C7XX27/10/2009888800305810001MARCOS ANDRE KAPOR              000032620                    
208888800305812011GABRIELA MACHADO PEREIRA              05341712684308/2018+0000000000025538C7XX27/08/2017888800305812001GRACIELY PASCOAL MACHADO        000032780                    
208888800305826001EWERTON RODRIGUES CAMPI               03136687183908/2018+0000000000055498C7XX31/12/1981888800305826001EWERTON RODRIGUES CAMPI         000034820                    
208888800305832001ELIZETH CRISTINA SILVA MOREIRA        03540695281108/2018+0000000000027008C7XX27/07/1987888800305832001ELIZETH CRISTINA SILVA MOREIRA  000035210                    
208888800305832011ISABELLE CRISTINA MOREIRA             05193446485608/2018+0000000000131398C7XX29/10/2016888800305832001ELIZETH CRISTINA SILVA MOREIRA  000035210                    
208888800305840001RENATA CRISTINA DA SILVA GOUVEA       01815370386208/2018+0000000000375608C7XX27/05/1973888800305840001RENATA CRISTINA DA SILVA GOUVEA 000035700                    
208888800305845001ALESSANDRA PEREIRA DAVID              02666098788608/2018+0000000000028168C7XX30/06/1976888800305845001ALESSANDRA PEREIRA DAVID        000036100                    
208888800305857001JOSE ROBERTO FELICIO DE MOURA         05953904673408/2018+0000000000089498C7XX03/09/1960888800305857001JOSE ROBERTO FELICIO DE MOURA   000036940                    
208888800305859001PRISCILA SILVA DE CASTRO              03012393889908/2018+0000000000027008C7XX26/08/1982888800305859001PRISCILA SILVA DE CASTRO        000036970                    
208888800305868001LUCIO MAURO APRIGIO DA SILVA          00208925970108/2018+0000000000115518C7XX20/02/1973888800305868001LUCIO MAURO APRIGIO DA SILVA    000037360                    
208888800305873001VERONICA SOARES BOMFIM GOMES          02893960189008/2018+0000000000073068C7XX21/01/1978888800305873001VERONICA SOARES BOMFIM GOMES    000037510                    
208888800305878002PATRICIA NAVARRO MARQUES              00083561358508/2018+0000000000082878C7XX12/03/1983888800305878001ADELMO MENEZES FRANCA           000037730                    
208888800305898001RENATA APOLINARIO DE CASTRO           02936187680508/2018+0000000000026888C7XX27/08/1980888800305898001RENATA APOLINARIO DE CASTRO     000038430                    
208888800305901001MARINA CRISTINA GOMES COELHO          03223073485708/2018+0000000000129358C7XX08/07/1979888800305901001MARINA CRISTINA GOMES COELHO    000038680                    
208888800305909001NURIA FURLAN HAMADA                   02691685780308/2018+0000000000115518C7XX19/11/1977888800305909001NURIA FURLAN HAMADA             000038910                    
208888800305910001SHEILA DA CRUZ NOVAES                 03437794680308/2018+0000000000027188C7XX23/07/1986888800305910001SHEILA DA CRUZ NOVAES           000039030                    
208888800305910010LETICIA CRUZ DOS SANTOS               00000000000008/2018+0000000000054188C7XX08/03/2001888800305910001SHEILA DA CRUZ NOVAES           000039030                    
208888800305916002CLAUDIA SANCHES FLORES QUEIROZ        01159393982508/2018+0000000000206758C7XX19/06/1969888800305916001MOACIR DA SILVA QUEIROZ         000039280                    
208888800305917001VALERIA PASSOS GREGORIO               00524336385508/2018+0000000000185848C7XX30/05/1955888800305917001VALERIA PASSOS GREGORIO         000039300                    
208888800305920001LIVIA DE ANDRADE                      02852588285208/2018+0000000000124078C7XX01/11/1980888800305920001LIVIA DE ANDRADE                000039480                    
208888800305920010FELIPE AUGUSTO ANDRADE DE JESUS       00000000000008/2018+0000000000068958C7XX19/04/2011888800305920001LIVIA DE ANDRADE                000039480                    
208888800305921001ADRIANA DE OLIVEIRA                   02289681482508/2018+0000000000174508C7XX09/08/1984888800305921001ADRIANA DE OLIVEIRA             000039560                    
208888800305924001THATIANE TRAETE SABUNDJIAN            03327741484108/2018+0000000000315098C7XX11/08/1984888800305924001THATIANE TRAETE SABUNDJIAN      000039680                    
208888800305928001ALESSANDRA LURI NAKAGUMA KOURA        02901701582908/2018+0000000000083408C7XX19/06/1977888800305928001ALESSANDRA LURI NAKAGUMA KOURA  000039760                    
208888800305944002MAGALI ALVES DE OLIVEIRA              03606647387508/2018+0000000000057598C7XX04/07/1988888800305944001JOELSON TRINDADE SILVA          000040360                    
208888800305945001LUIZ CARLOS MOREIRA                   01164461486308/2018+0000000000082938C7XX05/04/1969888800305945001LUIZ CARLOS MOREIRA             000040370                    
208888800305945002ROSIMEIRE A DOS SANTOS MOREIRA        00542660660908/2018+0000000000072438C7XX19/09/1982888800305945001LUIZ CARLOS MOREIRA             000040370                    
208888800305948001MELISSA LOWE LEONI                    03918455084808/2018+0000000000085788C7XX19/03/1991888800305948001MELISSA LOWE LEONI              000040480                    
208888800305951001TELMA GOMES DA SILVA                  03712899882908/2018+0000000000027008C7XX15/05/1989888800305951001TELMA GOMES DA SILVA            000040520                    
208888800305957010HEITOR LYRA DOS SANTOS                00000000000008/2018+0000000000019558C7XX12/04/2015888800305957001ISABELA DE LIMA SANTOS LYRA     000040630                    
208888800305959001MARIA GERACINA ALVES DE MATOS         05414662339108/2018+0000000000133078C7XX20/04/1974888800305959001MARIA GERACINA ALVES DE MATOS   000040710                    
208888800305959010ENZO MATOS DE OLIVEIRA                04696224287508/2018+0000000000045528C7XX27/08/2004888800305959001MARIA GERACINA ALVES DE MATOS   000040710                    
208888800305963002JOANA CELIA VICENTINI                 00113681283008/2018+0000000000447848C7XX25/03/1961888800305963001JOSE ELIAS RODRIGUES            000040980                    
208888800305965002JUCILENE DA SILVA C C DOS SANTOS      02241001481008/2018+0000000000458028C7XX05/11/1983888800305965001ADRIANO CALIXTO COSTA DOS SANTOS000041000                    
208888800305975001GABRIELA CABRAL DE SOUZA CUNHA        03758441889908/2018+0000000000028128C7XX07/04/1990888800305975001GABRIELA CABRAL DE SOUZA CUNHA  000041240                    
208888800305980010STEPHANY EDUARDO MATTOS               00000000000008/2018+0000000000090108C7XX13/09/2007888800305980001WILLIAN DE MELO MATTOS          000041360                    
208888800305992001KELLY GOMES L GALVAO MONTEIRO         09934617617208/2018+0000000000171738C7XX13/09/1984888800305992001KELLY GOMES L GALVAO MONTEIRO   000041640                    
208888800305992002RODRIGO FELIX MONTEIRO                08679881210408/2018+0000000000172588C7XX02/07/1979888800305992001KELLY GOMES L GALVAO MONTEIRO   000041640                    
208888800306004010THAIS FRAGOSO MARIA                   05234093280708/2018+0000000000027008C7XX24/01/2017888800306004001VANESSA FRAGOSO MAIA BRAGA      000041880                    
208888800306006001CRISTINA SANTOS CRUZ BRITO            03081494389608/2018+0000000000146518C7XX07/11/1982888800306006001CRISTINA SANTOS CRUZ BRITO      000041940                    
208888800306006002ANDRE LUIS BRITO DA SILVA             02167998783608/2018+0000000000148438C7XX21/10/1980888800306006001CRISTINA SANTOS CRUZ BRITO      000041940                    
208888800306029001SANDRA SALES DE SOUSA SALES           03070515886108/2018+0000000000010348C7XX09/01/1980888800306029001SANDRA SALES DE SOUSA SALES     000042240                    
208888800306030001MARIA EDILANIA VIDAL PINHEIRO         02785039580808/2018+0000000000062918C7XX24/10/1979888800306030001MARIA EDILANIA VIDAL PINHEIRO   000042250                    
208888800306030010BIANCA VIDAL PINHEIRO                 04529492389008/2018+0000000000029708C7XX11/07/2006888800306030001MARIA EDILANIA VIDAL PINHEIRO   000042250                    
208888800306042010LETYCIA SILVA E SILVA                 00000000000008/2018+0000000000007978C7XX18/04/2010888800306042001JANAINA SEVERINA DA SILVA       000042470                    
208888800306044010GABRIEL ALBUQUERQUE DE ARAUJO         00528159216508/2018+0000000000209548C7XX22/04/1999888800306044001MARIA APARECIDA DE ALBUQUERQUE  000042500                    
208888800306049001CRISTIANE ALVES DA SILVA              02771720485108/2018+0000000000053688C7XX02/04/1979888800306049001CRISTIANE ALVES DA SILVA        000042590                    
208888800306053010MELISSA SIMOES ALBANO                 05376628183608/2018+0000000000027408C7XX12/11/2017888800306053001CAMILA SIMOES ALBANO            000042680                    
208888800306066010MURILO PIRES SUPESCHI GONCALVES       00000000000008/2018+0000000000067478C7XX30/06/2008888800306066001MIRIAM VIEIRA PIRES SILVA       000042860                    
208888800306073001BRUNA FANTIN FURNIEL                  03326122683808/2018+0000000000467038C7XX01/07/1986888800306073001BRUNA FANTIN FURNIEL            000042940                    
208888800306092010RAPHAEL ANDRADE DA SILVA              05069468383308/2018+0000000000005648C7XX24/09/2012888800306092001MAURICIO RODRIGUES DA SILVA     000043250                    
208888800306102001JULIANA MACHADO SILVA                 03179758384008/2018+0000000000033058C7XX02/01/1985888800306102001JULIANA MACHADO SILVA           000043420                    
208888800306111010GUILHERME FERREIRA BEZERRA            05188461889808/2018+0000000000034928C7XX02/12/2012888800306111001MICILENE DOS SANTOS BEZERRA     000043530                    
208888800306113001INGRID BARBOSA FERREIRA               03324411289708/2018+0000000000080948C7XX28/09/1993888800306113001INGRID BARBOSA FERREIRA         000043560                    
208888800306114001ROBSON RICETO                         00611855984808/2018+0000000000064488C7XX17/12/1968888800306114001ROBSON RICETO                   000043570                    
208888800306114010GISELE SIQUEIRA RICETO                04581447089508/2018+0000000000123258C7XX13/10/1992888800306114001ROBSON RICETO                   000043570                    
208888800306114011STEFANO ROBERTO DA SILVA B ELIAS      03884456482308/2018+0000000000022458C7XX12/11/1997888800306114001ROBSON RICETO                   000043570                    
208888800309766001KAMILA JESSICA PEREIRA NOGUEIRA       00289616115508/2018+0000000000179108C7XX03/01/1988888800309766001KAMILA JESSICA PEREIRA NOGUEIRA 000043680                    
208888800309766010MARIA CLARA DIONISIO PEREIRA          00000000000008/2018+0000000000085848C7XX21/02/2013888800309766001KAMILA JESSICA PEREIRA NOGUEIRA 000043680                    
208888800309766011MARIA ALICE DIONISIO PEREIRA          00814904718208/2018+0000000000030908C7XX12/12/2016888800309766001KAMILA JESSICA PEREIRA NOGUEIRA 000043680                    
208888845225473010EDUARDA KEMILLY OLIVEIRA FARIAS 11700205167743486408/2018+0000000000218828C7XX28/08/2016888845225473001ANTONIO VAGNER FARIAS GOMES     000043650                    
208888845225481001CLAUDIO GONCALVES DA SILVA      11700803447068485608/2018+0000000000033558C7XX25/05/1986888845225481001CLAUDIO GONCALVES DA SILVA      000043710                    
208888845232305001VANESSA DA FONSECA ROSAS        11700203683560185008/2018+0000000000206908C7XX08/07/1988888845232305001VANESSA DA FONSECA ROSAS        000043720                    
208888845272489001VERA LUCIA RIBEIRO DA SILVA     33000801615057889508/2018+0000000000060828C7XX25/01/1976888845272489001VERA LUCIA RIBEIRO DA SILVA     000043870                    
208888845314760001ALINE RIBAS LEMES DE ALMEIDA    22100103723429289608/2018+0000000000027008C7XX03/10/1990888845314760001ALINE RIBAS LEMES DE ALMEIDA    000044330                    
208888845330458001MAURO LUIZ SANCHES              22000500563945982408/2018+0000000000063448C7XX18/12/1964888845330458001MAURO LUIZ SANCHES              000044400                    
208888845337016001ANDERSON ANDRE DA SILVA         11700402738193781608/2018+0000000000217228C7XX26/01/1980888845337016001ANDERSON ANDRE DA SILVA         000044520                    
208888845363146001PATRICIA COUTO PIMENTA          22000400479097470708/2018+0000000000130928C7XX26/02/1976888845363146001PATRICIA COUTO PIMENTA          000044780                    
208888845372096010AGNES RAMOS BELDA STOZEK        22200205323209380908/2018+0000000000004738C7XX17/07/2017888845372096001ROBERTO BELDA STOZEK            000044960                    
208888845418119002CAMILA SCALDELAI MONTEIRO             03122059088608/2018+0000000000071058C7XX08/12/1982888845418119001RUBENS MONTEIRO OLIVEIRA        000045060                    
208888845432992010NICOLAS RODRIGUES BATISTA DA SIL11400105398024086008/2018+0000000000054008C7XX19/12/2017888845432992001TATIANA BATISTA DA SILVA        000045090                    
208888845468180001MARIA FABIANA ERNESTO           11701202773285883208/2018+0000000000135718C7XX05/06/1979888845468180001MARIA FABIANA ERNESTO           000045180                    
208888845468547010YASMIN DE SOUSA SOBRAL          22000401510352775808/2018+0000000000020768C7XX09/01/1997888845468547001MARCIO DO NASCIMENTO SOBRAL     000045260                    
208888845483883011RAFAELA CORREA APOLINARIO       22000500000000000008/2018+0000000000092968C7XX17/06/2011888845483883001ANDERSON ALEX APOLINARIO        000045320                    
208888845516044001SHEILA CRISTINA P DA SILVA      11200102187765482508/2018+0000000000085498C7XX22/10/1980888845516044001SHEILA CRISTINA P DA SILVA      000045600                    
208888845518502001EDUARDO ALVES ASSIS             22000502277759384108/2018+0000000000145438C7XX22/05/1985888845518502001EDUARDO ALVES ASSIS             000045650                    
208888845522459001FERNANDA CHATAGNIER             22000501298816688908/2018+0000000000203048C7XX27/10/1973888845522459001FERNANDA CHATAGNIER             000045750                    
208888845522459010ANDRESSA CHATAGNIER KISS        22000504908589887008/2018+0000000000055458C7XX10/03/1999888845522459001FERNANDA CHATAGNIER             000045750                    
208888845563813001ANDREA DAS GRACAS P DE CARVALHO 22000400218203276208/2018+0000000000086218C7XX04/02/1972888845563813001ANDREA DAS GRACAS P DE CARVALHO 000046090                    
208888845563813010INGRID PEREIRA DE CARVALHO      22000401724974173008/2018+0000000000027008C7XX26/10/1998888845563813001ANDREA DAS GRACAS P DE CARVALHO 000046090                    
208888845573466001JULIANA QUEIROZ BRAVIN          11700202254651285408/2018+0000000000055508C7XX23/05/1984888845573466001JULIANA QUEIROZ BRAVIN          000046160                    
208888845589521001FERNANDA YUKIE SHIMIZU DOS SANTO      04107085686008/2018+0000000000049308C7XX18/01/1990888845589521001FERNANDA YUKIE SHIMIZU DOS SANTO000046210                    
208888845595126002SILVIA HELENA DE FREITAS RESTINO      00827023189408/2018+0000000000135878C7XX07/08/1966888845595126001WAGNER LUCIO RESTINO            000046220                    
208888845595126011DANILO DE FREITAS RESTINO             04244844988008/2018+0000000000064598C7XX20/03/1998888845595126001WAGNER LUCIO RESTINO            000046220                    
208888845615009001RENATA BUSSAB P G DE ARAUJO           02764614586608/2018+0000000000264498C7XX18/08/1978888845615009001RENATA BUSSAB P G DE ARAUJO     000046320                    
208888845726320001PRISCILA SANDMANN OLIVEIRA      33001003953840380008/2018+0000000000022598C7XX17/11/1989888845726320001PRISCILA SANDMANN OLIVEIRA      000046710                    
208888845763014002EULANE CIRINA OLIVEIRA          22000504397935386908/2018+0000000000072848C7XX20/03/1993888845763014001GLEIDSON NORONHA DOS SANTOS     000046830                    
208888845778590001CINTIA CORTEZ                   11700203601348780408/2018+0000000000063148C7XX10/05/1990888845778590001CINTIA CORTEZ                   000011090                    
208888845844308001PATRICIA JUNKO NAGAMINE               01293218480608/2018+0000000000027008C7XX06/05/1970888845844308001PATRICIA JUNKO NAGAMINE         000047290                    
208888845863847010RUBI RACTZ RAMALHO              22000505171719284008/2018+0000000000027008C7XX08/09/2016888845863847001RICARDO SANTOS RAMALHO          000046940                    
208888845899115001JACQUELINE NAVARRO DE QUEVEDO   22200204064349881808/2018+0000000000124108C7XX02/05/1991888845899115001JACQUELINE NAVARRO DE QUEVEDO   000047500                    
208888845913766001MARISTELA DA SILVA KRAEMER      22000400965880575208/2018+0000000000063818C7XX27/07/1981888845913766001MARISTELA DA SILVA KRAEMER      000047590                    
208888845954045001JAQUELINE SALETE RIBEIRO FREIRE 22000400140491775608/2018+0000000000182708C7XX03/09/1971888845954045001JAQUELINE SALETE RIBEIRO FREIRE 000047680                    
208888845954059001ROGERIO VIEIRA BENTO            22000400067232574808/2018+0000000000120338C7XX20/07/1971888845954059001ROGERIO VIEIRA BENTO            000047710                    
208888845959618001BARBARA FELIX RAMOS             22202001312522879408/2018+0000000000069098C7XX08/03/1989888845959618001BARBARA FELIX RAMOS             000047780                    
208888845963338001ADRIANO DOS SANTOS ARNAUD       22000400536169772908/2018+0000000000009208C7XX01/02/1979888845963338001ADRIANO DOS SANTOS ARNAUD       000047750                    
208888845967219001ALINE VILELA DE SIQUEIRA        33000803116394989208/2018+0000000000195668C7XX10/05/1984888845967219001ALINE VILELA DE SIQUEIRA        000047820                    
208888846010406010EDUARDA FIUZA OLIVEIRA          11100305279292087408/2018+0000000000034618C7XX11/04/2017888846010406001DANILO SANTOS OLIVEIRA          000048310                    
208888846010478001JULIANA BERARDINELLI DE F BRITTO22202003103129688308/2018+0000000000042258C7XX30/04/1983888846010478001JULIANA BERARDINELLI DE F BRITTO000048380                    
208888846010478002RODRIGO APARECIDO DE O BRITTO   22202002173054481908/2018+0000000000128258C7XX04/05/1982888846010478001JULIANA BERARDINELLI DE F BRITTO000048380                    
208888846034025001CINTIA PEKI                     DVF   03110489783008/2018+0000000000024128C7XX18/08/1983888846034025001CINTIA PEKI                     000048450                    
208888846038514001LILIAN PIERRI MARTINS           DIRETO01819596788408/2018+0000000000247798C7XX01/01/1979888846038514001LILIAN PIERRI MARTINS           000048470                    
208888846066413001ANDREZA CRISTINA DE MEDEIROS    11700402842181484208/2018+0000000000123958C7XX17/09/1981888846066413001ANDREZA CRISTINA DE MEDEIROS    000048720                    
208888846069018010BEATRIZ SANTOS PEREIRA          22000401465113576508/2018+0000000000019088C7XX03/02/2000888846069018001ALYNE MACHADO DOS SANTOS PEREIRA000048530                    
208888846069018011HELENA SANTOS PEREIRA           22000401954852673508/2018+0000000000067708C7XX12/10/2016888846069018001ALYNE MACHADO DOS SANTOS PEREIRA000048530                    
208888846069026010ISABELA VITORIA DOS SANTOS      22000505262198988808/2018+0000000000017878C7XX10/12/2004888846069026001ALEXANDRE FRANCISCO DOS SANTOS  000048570                    
208888846085667001LUCIANA CABRERA RODRIGUES       11700402135293580508/2018+0000000000098988C7XX04/03/1981888846085667001LUCIANA CABRERA RODRIGUES       000048821                    
208888846098184001DANIELLE BORGES DE CARVALHO     22000400534306071408/2018+0000000000169308C7XX05/01/1981888846098184001DANIELLE BORGES DE CARVALHO     000048990                    
208888846100773002LIDIANY MONIKE CALIXTO DE BRITO 22005M03224755288908/2018+0000000000225258C7XX22/12/1984888846100773001RICARDO DE BRITO ANDRADE        000049000                    
208888846100805001VIVIANE DE LIMA                 22000503096189285408/2018+0000000000043318C7XX20/04/1981888846100805001VIVIANE DE LIMA                 000049040                    
208888846102679002NATALLIA SOARES SILVA CUSTODIO  22300203986594183008/2018+0000000000211868C7XX28/09/1991888846102679001SEMAIAS MAISTRO LEITE CUSTODIO  000049050                    
208888846109547001LUCY MEIRY FERREIRA G DA SILVA  22000501895129087508/2018+0000000000116248C7XX01/04/1976888846109547001LUCY MEIRY FERREIRA G DA SILVA  000049070                    
90+000000001565943000152                                                                                                                              
