1031/08/2018                             000000000000000                                                              000000000                       
208888800305684010MIGUEL NUNES DE SOUZA                 00000000000008/2018+0000000000096008C5Z804/12/2010888800305684001EDSON JOSE NUNES DA SILVA       000000400                    
208888800305688001JESSICA ALVES DE SOUZA CRUZ           04010917687108/2018+0000000000096108C5Z803/09/1991888800305688001JESSICA ALVES DE SOUZA CRUZ     000000580                    
208888800305689002ANGELICA VERZA PINAFFO                02200671482108/2018+0000000000009058C5Z830/11/1979888800305689001RIVENILDO DE ALMEIDA PINAFFO    000000620                    
208888800305689010BRYAN VERZA PINAFFO                   04774810789008/2018+0000000000002828C5Z811/07/2003888800305689001RIVENILDO DE ALMEIDA PINAFFO    000000620                    
208888800305690002PRISCILA GARCIA DE OLIVEIRA LIMA      03180399082108/2018+0000000000079708C5Z818/04/1983888800305690001ODAIR JOSE DA SILVA LIMA        000000630                    
208888800305695010CARLOS HENRIQUE B SILVA               04540589482608/2018+0000000000082688C5Z802/09/2005888800305695001EDICARLOS BARRETO SILVA         000000740                    
208888800305702001PATRICIA DE CASTRO DAVI SALVIANO      02188101286708/2018+0000000000011608C5Z826/12/1980888800305702001PATRICIA DE CASTRO DAVI SALVIANO000000880                    
208888800305704001AMANDA PEREIRA CARNEIRO               04161070888108/2018+0000000000060118C5Z824/05/1992888800305704001AMANDA PEREIRA CARNEIRO         000000930                    
208888800305714002ALESSANDRA AGUIAR DA SILVA            03480680585808/2018+0000000000027008C5Z803/07/1987888800305714001RICARDO LOPES CERQUEIRA         000040150                    
208888845245808001BRUNA CRISTINA BARBOSA          11700303838673280608/2018+0000000000053898C5Z808/03/1989888845245808001BRUNA CRISTINA BARBOSA          000001030                    
208888845561096010LORENZO MACHADO DOS SANTOS      11000205056104183008/2018+0000000000048598C5Z812/12/2015888845561096001VAGNER RAMOS DA SILVA SANTOS    000001050                    
208888845835412002RENATA CRISTINA ZANOTTI         11700401817638882308/2018+0000000000026148C5Z808/11/1971888845835412001EDSON SILVA ZANOTTI             000001090                    
208888845853177002FABIO BAILO DOS SANTOS          11700302844037089008/2018+0000000000059388C5Z813/08/1979888845853177001MARINEIDE CRISTINA B OLIVEIRA   000001100                    
208888845991519001RAFAELA DE SOUZA                      04102702083608/2018+0000000000119698C5Z816/09/1993888845991519001RAFAELA DE SOUZA                000001120                    
90+000000000077275000014                                                                                                                              
