1027/11/2018                             000000000000000                                                              000000000                       
208888800305720001CELIA REGINA BODON S GERARDI          02000185789411/2018+0000000000027678C7XX09/08/1973888800305720001CELIA REGINA BODON S GERARDI    000015380                    
208888800305722001BEATRIZ LARA APOLINARIO               02679373480611/2018+0000000000058208C7XX18/01/1978888800305722001BEATRIZ LARA APOLINARIO         000015660                    
208888800305723001MARIA INES CONTAR                     08111837682011/2018+0000000000073778C7XX03/07/1951888800305723001MARIA INES CONTAR               000016070                    
208888800305723002CARLOS RICARDO PEREIRA                08970898980011/2018+0000000000067558C7XX16/08/1956888800305723001MARIA INES CONTAR               000016070                    
208888800305730001SIMONE DE FREITAS VIEIRA              02670413382811/2018+0000000000061308C7XX30/03/1974888800305730001SIMONE DE FREITAS VIEIRA        000018070                    
208888800305731010BENJAMIN CARDOSO DE ANDRADE           00000000000011/2018+0000000000050208C7XX10/06/2011888800305731001SANDRA CARDOSO DE ANDRADE       000018950                    
208888800305732001JUSTINO MATIAS DIAS                   00446300284211/2018+0000000000029108C7XX10/12/1959888800305732001JUSTINO MATIAS DIAS             000018970                    
208888800305738010VITOR HUGO PEREIRA                    04661059182211/2018+0000000000000488C7XX19/12/1997888800305738001FLAVIO RODRIGUES DOS SANTOS     000021280                    
208888800305741001VERA REGINA CERIOLI                   02316369006811/2018+0000000000001448C7XX30/03/1956888800305741001VERA REGINA CERIOLI             000022490                    
208888800305744001IVONE CARDOSO DOS SANTOS              01314700480511/2018+0000000000026358C7XX03/07/1966888800305744001IVONE CARDOSO DOS SANTOS        000022960                    
208888800305745001GILBERTO DA ROCHA SANTOS              00448615487811/2018+0000000000022598C7XX13/03/1964888800305745001GILBERTO DA ROCHA SANTOS        000023160                    
208888800305745002MARIA DE FATIMA REBELO SANTOS         01487853980111/2018+0000000000028718C7XX03/01/1963888800305745001GILBERTO DA ROCHA SANTOS        000023160                    
208888800305747001JULIA SHIZUE KAWASHIMA                00540855782011/2018+0000000000365708C7XX14/06/1959888800305747001JULIA SHIZUE KAWASHIMA          000023500                    
208888800305751001MARIA GRAZIELA FURTADO SBROGLIO       03319345389711/2018+0000000000129828C7XX07/10/1985888800305751001MARIA GRAZIELA FURTADO SBROGLIO 000024500                    
208888800305755001DAYSE CRISTINA DIAS FONTES            01708349383911/2018+0000000000224288C7XX16/05/1977888800305755001DAYSE CRISTINA DIAS FONTES      000025250                    
208888800305755010LUCAS DIAS FONTES                     05241239880111/2018+0000000000411688C7XX22/09/2003888800305755001DAYSE CRISTINA DIAS FONTES      000025250                    
208888800305755011RAFAEL DIAS FONTES                    05241242589211/2018+0000000000408998C7XX07/10/2007888800305755001DAYSE CRISTINA DIAS FONTES      000025250                    
208888800305756010LUIS GUILHERME OLIVEIRA REIS          00000000000011/2018+0000000000000728C7XX19/10/2012888800305756001JOCELIO LUCIANO DOS REIS        000025560                    
208888800305760010MARIA JULIA DUARTE TORRES             05328556488111/2018+0000000000020648C7XX27/07/2017888800305760001MARLUCIA JACINTO DUARTE         000026000                    
208888800305762001MARCIA MEDINA ALMEIDA BRAGA           01177597284411/2018+0000000000397778C7XX09/02/1969888800305762001MARCIA MEDINA ALMEIDA BRAGA     000026720                    
208888800305762002FLAVIO ARAUJO ALMEIDA BRAGA           00504811088911/2018+0000000000099338C7XX04/08/1959888800305762001MARCIA MEDINA ALMEIDA BRAGA     000026720                    
208888800305763001ALFREDO ARAUJO PEDRONI                01436796989411/2018+0000000000339848C7XX02/01/1973888800305763001ALFREDO ARAUJO PEDRONI          000026740                    
208888800305765001JOAO CARLOS BOM                       00763829188311/2018+0000000000069598C7XX30/03/1967888800305765001JOAO CARLOS BOM                 000027180                    
208888800305767001DANIELE MAIA SOUZA                    02837822280211/2018+0000000000021688C7XX07/05/1980888800305767001DANIELE MAIA SOUZA              000027420                    
208888800305771001LUCIANA MENEGATTI                     01255770988311/2018+0000000000021948C7XX10/10/1969888800305771001LUCIANA MENEGATTI               000028140                    
208888800305772001ANDREA GOMES SILVA SANTOS             02299862188011/2018+0000000000112638C7XX13/10/1987888800305772001ANDREA GOMES SILVA SANTOS       000028210                    
208888800305774002TANIA BARBOSA DE ASSIS CARDOSO        01252390882411/2018+0000000000029108C7XX29/08/1966888800305774001WANDERLEI ROSARIO DA SILVA      000028310                    
208888800305780001HENRIQUE DE LIMA                      02484757689611/2018+0000000000092328C7XX20/07/1979888800305780001HENRIQUE DE LIMA                000029610                    
208888800305781002FERNANDA DE LIMA FERNANDES GOMES      02998612687811/2018+0000000000154158C7XX28/01/1980888800305781001GILBERTO FERNANDES GOMES        000029750                    
208888800305789001SILVIO ANTONIO LOUREIRO               00094743789411/2018+0000000000029108C7XX24/05/1960888800305789001SILVIO ANTONIO LOUREIRO         000030810                    
208888800305789002JEAINE RACHEL DE SOUZA LOUREIRO       00489812384811/2018+0000000000056108C7XX26/05/1963888800305789001SILVIO ANTONIO LOUREIRO         000030810                    
208888800305790011GUILHERME FIALHO MURICY BOREL         00912204850211/2018+0000000000018588C7XX24/07/2013888800305790001MARCELO MURICY BOREL            000030880                    
208888800305793001ROSENI SANTOS MOURA                   03152585080611/2018+0000000000058208C7XX28/11/1983888800305793001ROSENI SANTOS MOURA             000031520                    
208888800305793002JOSE RAMOS DOS SANTOS                 00310432740811/2018+0000000000023308C7XX01/04/1980888800305793001ROSENI SANTOS MOURA             000031520                    
208888800305793010GUSTAVO MOURA DOS SANTOS              04814236689411/2018+0000000000055558C7XX17/09/2013888800305793001ROSENI SANTOS MOURA             000031520                    
208888800305797001RITA FORMIGA NASSAR                   03096970688011/2018+0000000000094108C7XX12/03/1982888800305797001RITA FORMIGA NASSAR             000031710                    
208888800305797002MARCOS JORGE NASSAR                   01761181289011/2018+0000000000056508C7XX27/10/1977888800305797001RITA FORMIGA NASSAR             000031710                    
208888800305798001EDUARDO MORAES DOS SANTOS             01513140086411/2018+0000000000027088C7XX11/07/1975888800305798001EDUARDO MORAES DOS SANTOS       000031730                    
208888800305798002LUCILA NANCI CASTELLANI               03039823787511/2018+0000000000019808C7XX10/02/1982888800305798001EDUARDO MORAES DOS SANTOS       000031730                    
208888800305799010BARBARA RUGGIERI Z CAMPINEIRO         03975678089411/2018+0000000000005708C7XX16/11/2005888800305799001SARITA RUGGIERI Z CAMPINEIRO    000031760                    
208888800305800002JOSE SONIVALDO SOUZA                  07646297844911/2018+0000000000089508C7XX25/01/1973888800305800001EDNA ALVES WANDERLEY            000031770                    
208888800305801001LUIZ ANTONIO DA SILVA PEREIRA         01326151185011/2018+0000000000069558C7XX22/01/1976888800305801001LUIZ ANTONIO DA SILVA PEREIRA   000031950                    
208888800305804002ROMERO TEMPONI LEITE                  03201978566811/2018+0000000000000298C7XX24/07/1952888800305804001ELIANE CRISTINE THOT LEITE      000032270                    
208888800305812011GABRIELA MACHADO PEREIRA              05341712684311/2018+0000000000004058C7XX27/08/2017888800305812001GRACIELY PASCOAL MACHADO        000032780                    
208888800305813010CAIO CESAR SAITO RODRIGUES            05029693980311/2018+0000000000074108C7XX05/01/2015888800305813001DENISE HITOMI SAITO             000032830                    
208888800305836001KARINA OLIVEIRA DA SILVA              03841173683011/2018+0000000000000728C7XX02/03/1989888800305836001KARINA OLIVEIRA DA SILVA        000035470                    
208888800305840001RENATA CRISTINA DA SILVA GOUVEA       01815370386211/2018+0000000000095718C7XX27/05/1973888800305840001RENATA CRISTINA DA SILVA GOUVEA 000035700                    
208888800305845001ALESSANDRA PEREIRA DAVID              02666098788611/2018+0000000000029108C7XX30/06/1976888800305845001ALESSANDRA PEREIRA DAVID        000036100                    
208888800305846010BERNARDO LUIZ SILVA DE OLIVEIRA       05142536789511/2018+0000000000210628C7XX20/06/2016888800305846001ANDRE LUIZ ANTONIO ALVES SILVA  000036120                    
208888800305856002ELIANE RODRIGUES DA ROCHA             01896593380311/2018+0000000000127528C7XX19/12/1976888800305856001RONEY BERG BARROS PEREIRA       000036920                    
208888800305857001JOSE ROBERTO FELICIO DE MOURA         05953904673411/2018+0000000000019948C7XX03/09/1960888800305857001JOSE ROBERTO FELICIO DE MOURA   000036940                    
208888800305857002CLAUDIA MACABU QUINTANILHA            08669336073411/2018+0000000000088438C7XX07/05/1966888800305857001JOSE ROBERTO FELICIO DE MOURA   000036940                    
208888800305858001ROMULO BARBOSA DA CUNHA               00793545277611/2018+0000000000042868C7XX18/06/1979888800305858001ROMULO BARBOSA DA CUNHA         000036960                    
208888800305858002CARLA DE PAULA AMENO                  00693254874711/2018+0000000000029108C7XX06/07/1976888800305858001ROMULO BARBOSA DA CUNHA         000036960                    
208888800305860001CAMILA VILAS BOAS                     03114988989611/2018+0000000000000938C7XX17/02/1984888800305860001CAMILA VILAS BOAS               000036990                    
208888800305861001ANA PAULA MIES                        02825730980011/2018+0000000000082538C7XX07/11/1980888800305861001ANA PAULA MIES                  000037030                    
208888800305861010GABRIELA MIES BRITO                   05438295883011/2018+0000000000064888C7XX22/07/2016888800305861001ANA PAULA MIES                  000037030                    
208888800305865001MICHEL ANGELO SANTOS SILVA            06783422151511/2018+0000000000144308C7XX29/09/1975888800305865001MICHEL ANGELO SANTOS SILVA      000037230                    
208888800305873001VERONICA SOARES BOMFIM GOMES          02893960189011/2018+0000000000002828C7XX21/01/1978888800305873001VERONICA SOARES BOMFIM GOMES    000037510                    
208888800305874001MARCIO CUSTODIO MENDES                03147568881411/2018+0000000000000728C7XX06/06/1982888800305874001MARCIO CUSTODIO MENDES          000037520                    
208888800305876001VALDELICE ARAGAO AMORIM               05391851750011/2018+0000000000041348C7XX27/11/1968888800305876001VALDELICE ARAGAO AMORIM         000037560                    
208888800305880002LUCIDALVA BRITO SILVA                 02762531080911/2018+0000000000115098C7XX15/05/1971888800305880001CICERO DE JESUS SANTOS          000037920                    
208888800305889002SANGELA MARIA DE OLIVEIRA             01271247585211/2018+0000000000240508C7XX13/05/1972888800305889001MAURICIO NEVES BRAGA            000038180                    
208888800305893010PEDRO DA SILVA BONA                   05079325682811/2018+0000000000034618C7XX28/01/2016888800305893001JEAN CARLOS COSTA BONA          000038250                    
208888800305894002ELCIA MARIA PEGORIN DE OLIVEIRA       01005352186211/2018+0000000000074878C7XX08/08/1968888800305894001FRANCISCO JOSE P DE OLIVEIRA    000038270                    
208888800305898001RENATA APOLINARIO DE CASTRO           02936187680511/2018+0000000000029108C7XX27/08/1980888800305898001RENATA APOLINARIO DE CASTRO     000038430                    
208888800305903002MARILIA DE JESUS SOUZA                03319798782911/2018+0000000000089448C7XX11/06/1986888800305903001VALDINEI FIGUEIREDO FRANCA      000038760                    
208888800305903010MIGUEL DE JESUS FIGUEIREDO FRANC      05393292180111/2018+0000000000029108C7XX11/12/2017888800305903001VALDINEI FIGUEIREDO FRANCA      000038760                    
208888800305908001VANUSA FERREIRA D DE OLIVEIRA         02615033581011/2018+0000000000064198C7XX06/09/1968888800305908001VANUSA FERREIRA D DE OLIVEIRA   000038900                    
208888800305909001NURIA FURLAN HAMADA                   02691685780311/2018+0000000000145678C7XX19/11/1977888800305909001NURIA FURLAN HAMADA             000038910                    
208888800305920001LIVIA DE ANDRADE                      02852588285211/2018+0000000000093608C7XX01/11/1980888800305920001LIVIA DE ANDRADE                000039480                    
208888800305928001ALESSANDRA LURI NAKAGUMA KOURA        02901701582911/2018+0000000000000458C7XX19/06/1977888800305928001ALESSANDRA LURI NAKAGUMA KOURA  000039760                    
208888800305944002MAGALI ALVES DE OLIVEIRA              03606647387511/2018+0000000000085928C7XX04/07/1988888800305944001JOELSON TRINDADE SILVA          000040360                    
208888800305944011LORENZO OLIVEIRA SILVA                05554021387411/2018+0000000000015698C7XX08/08/2018888800305944001JOELSON TRINDADE SILVA          000040360                    
208888800305945001LUIZ CARLOS MOREIRA                   01164461486311/2018+0000000000029108C7XX05/04/1969888800305945001LUIZ CARLOS MOREIRA             000040370                    
208888800305945002ROSIMEIRE A DOS SANTOS MOREIRA        00542660660911/2018+0000000000027738C7XX19/09/1982888800305945001LUIZ CARLOS MOREIRA             000040370                    
208888800305956001WESLLEY SIDNEY DE MELO SILVA          09246169743411/2018+0000000000214048C7XX06/08/1975888800305956001WESLLEY SIDNEY DE MELO SILVA    000040600                    
208888800305963001JOSE ELIAS RODRIGUES                  00708640389011/2018+0000000000062788C7XX11/05/1964888800305963001JOSE ELIAS RODRIGUES            000040980                    
208888800305963002JOANA CELIA VICENTINI                 00113681283011/2018+0000000000200788C7XX25/03/1961888800305963001JOSE ELIAS RODRIGUES            000040980                    
208888800305965002JUCILENE DA SILVA C C DOS SANTOS      02241001481011/2018+0000000000027008C7XX05/11/1983888800305965001ADRIANO CALIXTO COSTA DOS SANTOS000041000                    
208888800305967002CARLOS ALBERTO A DE AMORIM            00286182181711/2018+0000000000027008C7XX12/10/1961888800305967001SELMA APARECIDA ZAMBIANCO AMORIM000041020                    
208888800305967010ALINE ZAMBIANCO AMORIM                04501335289411/2018+0000000000006688C7XX14/06/1998888800305967001SELMA APARECIDA ZAMBIANCO AMORIM000041020                    
208888800305967011MATEUS CALEBE ZAMBIANCO AMORIM        04544783186511/2018+0000000000118478C7XX14/05/2005888800305967001SELMA APARECIDA ZAMBIANCO AMORIM000041020                    
208888800305977001PAMELA FITTIPALDI                     03575050082911/2018+0000000000061588C7XX21/03/1987888800305977001PAMELA FITTIPALDI               000041280                    
208888800305980010STEPHANY EDUARDO MATTOS               00000000000011/2018+0000000000152818C7XX13/09/2007888800305980001WILLIAN DE MELO MATTOS          000041360                    
208888800305983010GEOVANNA MOREIRA VIEIRA               00000000000011/2018+0000000000000728C7XX04/06/2012888800305983001FABIO RICHARD VIEIRA DOS SANTOS 000041500                    
208888800305992001KELLY GOMES L GALVAO MONTEIRO         09934617617211/2018+0000000000027008C7XX13/09/1984888800305992001KELLY GOMES L GALVAO MONTEIRO   000041640                    
208888800305993001SAMIRA ALVES CASTIGLIONI              04099048381911/2018+0000000000000728C7XX21/08/1990888800305993001SAMIRA ALVES CASTIGLIONI        000041650                    
208888800305997001ARLENE FREIRE DA SILVA                03101165180711/2018+0000000000128928C7XX05/09/1982888800305997001ARLENE FREIRE DA SILVA          000041740                    
208888800305997003BRUNO BERTINI LOPES                   03898641180611/2018+0000000000075448C7XX09/11/1988888800305997001ARLENE FREIRE DA SILVA          000041740                    
208888800305999001LUCIANE ROGERIA SANTOS BARROS         02227793686311/2018+0000000000024468C7XX05/06/1981888800305999001LUCIANE ROGERIA SANTOS BARROS   000041760                    
208888800306003001SABRINA SOBRINHO BICALHO BRUM         03825476480811/2018+0000000000453148C7XX19/01/1990888800306003001SABRINA SOBRINHO BICALHO BRUM   000041830                    
208888800306004001VANESSA FRAGOSO MAIA BRAGA            02195268689011/2018+0000000000248478C7XX24/05/1982888800306004001VANESSA FRAGOSO MAIA BRAGA      000041880                    
208888800306004002THELMO DOS SANTOS MARIA               01054720681011/2018+0000000000124078C7XX14/12/1969888800306004001VANESSA FRAGOSO MAIA BRAGA      000041880                    
208888800306004010THAIS FRAGOSO MARIA                   05234093280711/2018+0000000000029108C7XX24/01/2017888800306004001VANESSA FRAGOSO MAIA BRAGA      000041880                    
208888800306006001CRISTINA SANTOS CRUZ BRITO            03081494389611/2018+0000000000585138C7XX07/11/1982888800306006001CRISTINA SANTOS CRUZ BRITO      000041940                    
208888800306006002ANDRE LUIS BRITO DA SILVA             02167998783611/2018+0000000000182818C7XX21/10/1980888800306006001CRISTINA SANTOS CRUZ BRITO      000041940                    
208888800306008001MARFIZA PEREIRA DAMACENA              01050848284411/2018+0000000000005838C7XX26/11/1964888800306008001MARFIZA PEREIRA DAMACENA        000041960                    
208888800306008010GABRIELA PEREIRA SERAFIM              04443156186211/2018+0000000000249148C7XX02/10/1996888800306008001MARFIZA PEREIRA DAMACENA        000041960                    
208888800306025001TELMA DA SILVA                        03142079785911/2018+0000000000050698C7XX29/06/1980888800306025001TELMA DA SILVA                  000042200                    
208888800306026001PATRICIA APARECIDA P JERONYMO         03195043785011/2018-0000000000004678C7XX04/10/1983888800306026001PATRICIA APARECIDA P JERONYMO   000042210                    
208888800306030001MARIA EDILANIA VIDAL PINHEIRO         02785039580811/2018+0000000000051048C7XX24/10/1979888800306030001MARIA EDILANIA VIDAL PINHEIRO   000042250                    
208888800306030010BIANCA VIDAL PINHEIRO                 04529492389011/2018+0000000000028178C7XX11/07/2006888800306030001MARIA EDILANIA VIDAL PINHEIRO   000042250                    
208888800306040001EDMILSON LIMA DOS SANTOS              09343036183411/2018+0000000000025718C7XX14/01/1956888800306040001EDMILSON LIMA DOS SANTOS        000042420                    
208888800306050002JOSEANE CROTT SANCHES ALVARENGA       01841035580911/2018+0000000000057758C7XX27/08/1973888800306050001MARCIO DOS SANTOS ALVARENGA     000042610                    
208888800306050010MARIANA SANCHES ALVARENGA             05284918185411/2018+0000000000303558C7XX16/01/2004888800306050001MARCIO DOS SANTOS ALVARENGA     000042610                    
208888800306053010MELISSA SIMOES ALBANO                 05376628183611/2018+0000000000019968C7XX12/11/2017888800306053001CAMILA SIMOES ALBANO            000042680                    
208888800306066010MURILO PIRES SUPESCHI GONCALVES       00000000000011/2018+0000000000040668C7XX30/06/2008888800306066001MIRIAM VIEIRA PIRES SILVA       000042860                    
208888800306066011MANUELA PIRES SUPESCHI GONCALVES      00000000000011/2018+0000000000011738C7XX12/12/2012888800306066001MIRIAM VIEIRA PIRES SILVA       000042860                    
208888800306088001ANDRE LUIS RODRIGUES DE OLIVEIRA      04025780283511/2018+0000000000041238C7XX23/09/1988888800306088001ANDRE LUIS RODRIGUES DE OLIVEIRA000043180                    
208888800306092001MAURICIO RODRIGUES DA SILVA           09206240765311/2018+0000000000046988C7XX05/03/1974888800306092001MAURICIO RODRIGUES DA SILVA     000043250                    
208888800306092010RAPHAEL ANDRADE DA SILVA              05069468383311/2018+0000000000093018C7XX24/09/2012888800306092001MAURICIO RODRIGUES DA SILVA     000043250                    
208888800306100011DAVI LUAN DA COSTA SILVA              00000000000011/2018+0000000000276708C7XX12/12/2012888800306100001ALESSANDRO DA SILVA             000043380                    
208888800306102002GILBERTO PEREIRA DA SILVA             03413337483511/2018+0000000000000728C7XX23/02/1986888800306102001JULIANA MACHADO SILVA           000043420                    
208888800306104001BRUNO KATSUMI GIOVANI ODA             03415724182711/2018+0000000000217458C7XX16/08/1986888800306104001BRUNO KATSUMI GIOVANI ODA       000043440                    
208888800306108001LUCIANA MARCIA DE OLIVEIRA            01477587489611/2018+0000000000270018C7XX13/12/1971888800306108001LUCIANA MARCIA DE OLIVEIRA      000043480                    
208888800306114002CRISTIANE BUENO ELIAS RICETO          02807419887111/2018+0000000000181938C7XX15/10/1978888800306114001ROBSON RICETO                   000043570                    
208888800306114011STEFANO ROBERTO DA SILVA B ELIAS      03884456482311/2018+0000000000029108C7XX12/11/1997888800306114001ROBSON RICETO                   000043570                    
208888800309632001JOAO ROBERTO DE ARAUJO                00631986383811/2018+0000000000308188C7XX17/10/1964888800309632001JOAO ROBERTO DE ARAUJO          000022350                    
208888800309758002POLIANA M MAGALHAES ATAIDE            03874762386111/2018+0000000000027618C7XX10/10/1990888800309758001GABRIEL RIBEIRO DE M LEITE      000043580                    
208888800309764001LUCIANA NUNES ROCHA                   03802552482511/2018+0000000000029108C7XX09/08/1986888800309764001LUCIANA NUNES ROCHA             000043640                    
208888800309766001KAMILA JESSICA PEREIRA NOGUEIRA       00289616115511/2018+0000000000000198C7XX03/01/1988888800309766001KAMILA JESSICA PEREIRA NOGUEIRA 000043680                    
208888845225473010EDUARDA KEMILLY OLIVEIRA FARIAS 11700205167743486411/2018+0000000000036918C7XX28/08/2016888845225473001ANTONIO VAGNER FARIAS GOMES     000043650                    
208888845225481001CLAUDIO GONCALVES DA SILVA      11700803447068485611/2018+0000000000029148C7XX25/05/1986888845225481001CLAUDIO GONCALVES DA SILVA      000043710                    
208888845276831001MARCELO CONFIANTINO             11700801560136782511/2018+0000000000166258C7XX03/01/1972888845276831001MARCELO CONFIANTINO             000044080                    
208888845282343001VANESSA MIDORI IKEDA            22100103501599587311/2018+0000000000097228C7XX05/11/1986888845282343001VANESSA MIDORI IKEDA            000044110                    
208888845282343002RAFAEL GUANDALINE DE PAULA      22100103132161888311/2018+0000000000003298C7XX31/08/1984888845282343001VANESSA MIDORI IKEDA            000044110                    
208888845337016001ANDERSON ANDRE DA SILVA         11700402738193781611/2018+0000000000105428C7XX26/01/1980888845337016001ANDERSON ANDRE DA SILVA         000044520                    
208888845337020001JULIANE CELESTINO BERCHIOR      22000504112099487011/2018+0000000000000728C7XX17/06/1994888845337020001JULIANE CELESTINO BERCHIOR      000044530                    
208888845353843001CASSIO CLEIR BATISTA            22000507129006064911/2018+0000000000043048C7XX22/05/1968888845353843001CASSIO CLEIR BATISTA            000044670                    
208888845353843002LUCIA GRITTI BATISTA            22000502539916988611/2018+0000000000000238C7XX14/04/1976888845353843001CASSIO CLEIR BATISTA            000044670                    
208888845353855001BRUNA RIYUKA KANEKO OZAKI       11700203181494380311/2018+0000000000198688C7XX04/11/1983888845353855001BRUNA RIYUKA KANEKO OZAKI       000044710                    
208888845363146001PATRICIA COUTO PIMENTA          22000400479097470711/2018+0000000000085348C7XX26/02/1976888845363146001PATRICIA COUTO PIMENTA          000044780                    
208888845418119001RUBENS MONTEIRO OLIVEIRA              02655475089411/2018+0000000000190378C7XX18/03/1978888845418119001RUBENS MONTEIRO OLIVEIRA        000045060                    
208888845418119002CAMILA SCALDELAI MONTEIRO             03122059088611/2018+0000000000029108C7XX08/12/1982888845418119001RUBENS MONTEIRO OLIVEIRA        000045060                    
208888845418119010JOAO GABRIEL SCALDELAI MONTEIRO       04397005184311/2018+0000000000052018C7XX14/03/2010888845418119001RUBENS MONTEIRO OLIVEIRA        000045060                    
208888845432992001TATIANA BATISTA DA SILVA        11400103528091681111/2018+0000000000194698C7XX10/08/1987888845432992001TATIANA BATISTA DA SILVA        000045090                    
208888845432996001PRISCILA MATOS DE AQUINO        11700304067680686411/2018+0000000000117118C7XX16/12/1991888845432996001PRISCILA MATOS DE AQUINO        000045100                    
208888845447058011ANNA BEATRIS TEIXEIRA SANTOS    22202004189882780011/2018+0000000000060028C7XX27/11/2002888845447058001SOLANGE TEIXEIRA SOARES SANTOS  000045110                    
208888845483883010JOICY CORREA APOLINARIO         22000504845917980011/2018+0000000000053468C7XX19/12/2000888845483883001ANDERSON ALEX APOLINARIO        000045320                    
208888845483883011RAFAELA CORREA APOLINARIO       22000500000000000011/2018+0000000000038768C7XX17/06/2011888845483883001ANDERSON ALEX APOLINARIO        000045320                    
208888845503307002BRUNA ROCHA LIMA                22000503707508889011/2018+0000000000003048C7XX03/02/1988888845503307001REGINALDO VEIGA LIMA            000045450                    
208888845503307010SOPHIA ROCHA LIMA               22000501550297465011/2018+0000000000107538C7XX13/12/2012888845503307001REGINALDO VEIGA LIMA            000045450                    
208888845503307011ESTHER ROCHA LIMA               22000501550299565811/2018+0000000000016258C7XX06/05/2015888845503307001REGINALDO VEIGA LIMA            000045450                    
208888845505186002CIBELE PATRICIA CUNHA FERNANDES 22000502879971080311/2018+0000000000000218C7XX14/06/1978888845505186001MARCO ANTONIO FERNANDES DA SILVA000045400                    
208888845516044001SHEILA CRISTINA P DA SILVA      11200102187765482511/2018+0000000000016168C7XX22/10/1980888845516044001SHEILA CRISTINA P DA SILVA      000045600                    
208888845522445001FABIANA BARROS MORETTI ALMEIDA  22000502721791885511/2018+0000000000255098C7XX04/02/1976888845522445001FABIANA BARROS MORETTI ALMEIDA  000045740                    
208888845522445011GIOVANNA MORETTI PEREIRA DE ALME22000505085713680111/2018+0000000000521728C7XX21/06/2010888845522445001FABIANA BARROS MORETTI ALMEIDA  000045740                    
208888845522459010ANDRESSA CHATAGNIER KISS        22000504908589887011/2018+0000000000045118C7XX10/03/1999888845522459001FERNANDA CHATAGNIER             000045750                    
208888845563825002ROCHANE BORGES SIMAS            22000400884200876111/2018+0000000000091948C7XX23/02/1981888845563825001MARCO ANTONIO VASCONCELOS LESSA 000046100                    
208888845563825011LUCA SIMAS LESSA                22000401937355071311/2018+0000000000040468C7XX23/11/2009888845563825001MARCO ANTONIO VASCONCELOS LESSA 000046100                    
208888845588566002CAROLINE ALVAREZ SAVIOLI CORREA       02837540285011/2018+0000000000000728C7XX21/04/1977888845588566001DANIEL CORREA                   000046170                    
208888845595126002SILVIA HELENA DE FREITAS RESTINO      00827023189411/2018+0000000000203528C7XX07/08/1966888845595126001WAGNER LUCIO RESTINO            000046220                    
208888845595126011DANILO DE FREITAS RESTINO             04244844988011/2018+0000000000018748C7XX20/03/1998888845595126001WAGNER LUCIO RESTINO            000046220                    
208888845726320001PRISCILA SANDMANN OLIVEIRA      33001003953840380011/2018+0000000000022828C7XX17/11/1989888845726320001PRISCILA SANDMANN OLIVEIRA      000046710                    
208888845744905001ALINE DE SOUSA SILVA            33000803573164480211/2018+0000000000022868C7XX28/04/1989888845744905001ALINE DE SOUSA SILVA            000011070                    
208888845763028012GUILHERME FELIX DE CARVALHO     22000505403798781311/2018+0000000000060008C7XX02/01/2018888845763028001PEDRO HENRIQUE XAVIER CARVALHO  000046800                    
208888845767138001ANA PAULA PEREIRA ALVES         22001002753445885411/2018+0000000000006448C7XX17/04/1978888845767138001ANA PAULA PEREIRA ALVES         000046840                    
208888845769084002ELIANA MARIA DA SILVA SOUZA     11701402163546780211/2018+0000000000124568C7XX17/01/1980888845769084001JOSE GERALDO DE SOUZA           000046850                    
208888845769084010JULIA DE SOUZA                  11701404260263986911/2018+0000000000097468C7XX28/01/2008888845769084001JOSE GERALDO DE SOUZA           000046850                    
208888845778594001DANIELA MEDEIROS DA SILVA       22200204139695889411/2018+0000000000033928C7XX11/02/1994888845778594001DANIELA MEDEIROS DA SILVA       000046880                    
208888845812941001ERASMO CARLOS NOBRIGA ARAUJO    11700701847916880311/2018+0000000000022868C7XX11/04/1974888845812941001ERASMO CARLOS NOBRIGA ARAUJO    000047150                    
208888845913766001MARISTELA DA SILVA KRAEMER      22000400965880575211/2018+0000000000455068C7XX27/07/1981888845913766001MARISTELA DA SILVA KRAEMER      000047590                    
208888845913766003RAFAEL LEAL DETERLING           22000401411807979811/2018+0000000000222208C7XX18/12/1990888845913766001MARISTELA DA SILVA KRAEMER      000047590                    
208888845954027001TATIANE VALETE                  33001004389048082911/2018+0000000000198668C7XX26/01/1995888845954027001TATIANE VALETE                  000047730                    
208888845954059002CLAUDIA MARMELO BENTO           22000400093001177511/2018+0000000000098858C7XX01/07/1970888845954059001ROGERIO VIEIRA BENTO            000047710                    
208888845959614001MARISTELA LIMA PLUMAS NASCIMENTO11700402730597182011/2018+0000000000034338C7XX16/04/1978888845959614001MARISTELA LIMA PLUMAS NASCIMENTO000047770                    
208888845963338001ADRIANO DOS SANTOS ARNAUD       22000400536169772911/2018+0000000000059188C7XX01/02/1979888845963338001ADRIANO DOS SANTOS ARNAUD       000047750                    
208888846042622001JULIANA AKEMI TAKANO            22203002953918582311/2018+0000000000109278C7XX04/12/1980888846042622001JULIANA AKEMI TAKANO            000048580                    
208888846048358001JULIO CESAR LIMA ALVES          RECURS04247216880211/2018+0000000000129618C7XX24/06/1994888846048358001JULIO CESAR LIMA ALVES          000048600                    
208888846055102001VICTOR NEVES MAGGIONI           22000406310525077811/2018+0000000000031198C7XX06/03/1960888846055102001VICTOR NEVES MAGGIONI           000048550                    
208888846055102002ELIANE GONCALVES PAVAO MAGGIONI 22000407955577272011/2018+0000000000075928C7XX18/01/1964888846055102001VICTOR NEVES MAGGIONI           000048550                    
208888846069018011HELENA SANTOS PEREIRA           22000401954852673511/2018+0000000000049278C7XX12/10/2016888846069018001ALYNE MACHADO DOS SANTOS PEREIRA000048530                    
208888846069026011GABRIELA VITORIA DOS SANTOS     22000505380370683111/2018+0000000000045088C7XX27/11/2013888846069026001ALEXANDRE FRANCISCO DOS SANTOS  000048570                    
208888846071215003HELENA APARECIDA DE CASTRO      11701308849179090011/2018+0000000000008128C7XX21/04/1972888846071215001WELINGTON PINTO DA SILVA        000048750                    
208888846073283001PAULA MEREJOLI RAMOS            22100103280114381211/2018+0000000000084968C7XX09/05/1991888846073283001PAULA MEREJOLI RAMOS            000048770                    
208888846098184001DANIELLE BORGES DE CARVALHO     22000400534306071411/2018+0000000000027608C7XX05/01/1981888846098184001DANIELLE BORGES DE CARVALHO     000048990                    
208888846100773002LIDIANY MONIKE CALIXTO DE BRITO 22005M03224755288911/2018+0000000000027008C7XX22/12/1984888846100773001RICARDO DE BRITO ANDRADE        000049000                    
208888846100805001VIVIANE DE LIMA                 22000503096189285411/2018+0000000000419958C7XX20/04/1981888846100805001VIVIANE DE LIMA                 000049040                    
208888846109534010SARAH VILAS BOAS DONEGAR        22000503779102188911/2018+0000000000136798C7XX10/04/1998888846109534001GIOVANIA VILAS BOAS DONEGAR     000049060                    
208888846126515001CAROLINA ARAUJO MARTINS         33001202278127985411/2018+0000000000052468C7XX24/05/1987888846126515001CAROLINA ARAUJO MARTINS         000011180                    
208888846132887001NATHALIA MAYUMI WATANABE HIGUTI 11701104001177684611/2018+0000000000011668C7XX14/09/1991888846132887001NATHALIA MAYUMI WATANABE HIGUTI 000049290                    
208888846138751001JESSICA CAMPOS DA SILVA         22001001219361178511/2018+0000000000333708C7XX08/05/1989888846138751001JESSICA CAMPOS DA SILVA         000049320                    
208888846169255001JESSICA RIOS BARROSO            11700204138715088011/2018+0000000000032218C7XX30/08/1991888846169255001JESSICA RIOS BARROSO            000011220                    
208888846194806001BARBARA CANDIDO BASTOS                02668936080611/2018+0000000000009268C7XX03/10/1978888846194806001BARBARA CANDIDO BASTOS          000049770                    
208888846194808001AMANDA SANTOS SOUZA                   02308076380711/2018+0000000000244258C7XX21/05/1988888846194808001AMANDA SANTOS SOUZA             000049700                    
208888846194808010VINICIUS SOUZA ALVES                  04741524280711/2018+0000000000083758C7XX07/08/2013888846194808001AMANDA SANTOS SOUZA             000049700                    
208888846194822001MONIKA SAWADA ISHINI                  03598643780211/2018+0000000000054538C7XX05/01/1987888846194822001MONIKA SAWADA ISHINI            000049720                    
208888846194834011MARIA FERNANDA GOMES SILVA            05526439380011/2018+0000000000069168C7XX06/08/2016888846194834001FERNANDO SILVA                  000049520                    
208888846194852002SAMANTA GARCIA REIS                   01359517685511/2018+0000000000000938C7XX10/07/1975888846194852001OSEAS REIS SILVA                000049630                    
208888846198173001GABRIELLE NOVAES DE LIMA        11700204490956584111/2018+0000000000112798C7XX08/07/1999888846198173001GABRIELLE NOVAES DE LIMA        000011260                    
208888846198223002ELIANE PEREIRA VIEIRA           22000407915070576811/2018+0000000000130088C7XX13/10/1964888846198223001JOVANE DE MOURA VIEIRA DA SILVA 000049870                    
208888846220852002DAVID TISCHENBERG               33000100493061282911/2018+0000000000150068C7XX31/01/1964888846220852001ESMERALDA M C ABREU TISCHENBERG 000049940                    
208888846243282001MARIA JOSE DO NASCIMENTO        11701200661554040111/2018+0000000000070378C7XX19/02/1985888846243282001MARIA JOSE DO NASCIMENTO        000050300                    
208888846262631001ALINE SOUZA LIMA                11700403316692681011/2018+0000000000172828C7XX25/04/1986888846262631001ALINE SOUZA LIMA                000050390                    
208888846262645002NILDETE CANDIDA MACHADO         11000202727687389711/2018+0000000000072728C7XX25/04/1980888846262645001LUIS CARLOS DE JESUS            000050430                    
90+000000001822547000196                                                                                                                              
