1027/12/2018                             000000000000000                                                              000000000                       
208888800353746001ROSINETE DA SILVA SANTOS          21-100535313578412/2018+0000000000019408CHE814/02/1972888800353746001ROSINETE DA SILVA SANTOS        000210550                    
208888800353748001MYLENA RODRIGUES LESSA            21-101344649173212/2018+0000000000018008CHE818/06/1990888800353748001MYLENA RODRIGUES LESSA          000210660                    
208888800353760001CINTHIA SILVERIO DA SILVA         21-101056761172812/2018+0000000000134528CHE801/03/1992888800353760001CINTHIA SILVERIO DA SILVA       000212580                    
208888800353766001ELIZABETE A DOS SANTOS PRATA      21-100161754678012/2018+0000000000135148CHE805/09/1970888800353766001ELIZABETE A DOS SANTOS PRATA    000214380                    
208888845329648001VIRLENE SOARES DE SOUZA               00856452963712/2018+0000000000038808CHE802/03/1986888845329648001VIRLENE SOARES DE SOUZA         000217830                    
208888845509574001NEIDE APARECIDA PARAJARA PEREIRA      00354881078012/2018+0000000000070288CHE801/04/1972888845509574001NEIDE APARECIDA PARAJARA PEREIRA000221270                    
208888845530439001FERNANDA SANTOS DA SILVA              01013927273912/2018+0000000000018008CHE812/09/1984888845530439001FERNANDA SANTOS DA SILVA        000222170                    
208888845554262001MARIA ROSARIA BARROS LIRA             06593304433412/2018+0000000000110318CHE815/09/1973888845554262001MARIA ROSARIA BARROS LIRA       000222650                    
208888845606233001BIANCA KATELINE SILVA DE MIRANDA      01202757871412/2018+0000000000018008CHE819/09/1988888845606233001BIANCA KATELINE SILVA DE MIRANDA000224000                    
208888845817219001TACIANA DA CONCEICAO                  01579360475812/2018+0000000000018008CHE804/12/1992888845817219001TACIANA DA CONCEICAO            020226690                    
208888846238525001MAYARA CRISTINA GOMES FLORES          01432170473112/2018+0000000000051278CHE804/04/1991888846238525001MAYARA CRISTINA GOMES FLORES    000090360                    
90+000000000063172000011                                                                                                                              
