1027/12/2018                             000000000000000                                                              000000000                       
208888800353820001PAULO AFONSO RAMOS RIBEIRO        21  00152971980112/2018+0000000000013818CH5Y12/02/1959888800353820001PAULO AFONSO RAMOS RIBEIRO      000205130                    
208888800353820002ERCI PERAZZI DE AQUINO            21  00361710283212/2018+0000000000013818CH5Y01/04/1962888800353820001PAULO AFONSO RAMOS RIBEIRO      000205130                    
208888800353880001CARINA ALENCAR D LIBERA ESTEVES   21  03137425689712/2018+0000000000053518CH5Y13/07/1985888800353880001CARINA ALENCAR D LIBERA ESTEVES 000207740                    
208888800354015001GRAZIELLE ALVES DOS SANTOS        07  04583148682612/2018+0000000000037728CH5Y20/07/1995888800354015001GRAZIELLE ALVES DOS SANTOS      000213250                    
208888800354027001KARINE FERNANDES DE SOUSA LIMA    21  00941150640212/2018+0000000000027168CH5Y02/01/1993888800354027001KARINE FERNANDES DE SOUSA LIMA  000213540                    
208888800354029001TATIANE MAGALHAES DOS SANTOS      21  03913018689712/2018+0000000000019408CH5Y01/06/1990888800354029001TATIANE MAGALHAES DOS SANTOS    000213570                    
208888800354037001OZANA CARDOSO RIBEIRO             21  02570879380512/2018+0000000000015508CH5Y08/09/1973888800354037001OZANA CARDOSO RIBEIRO           000213740                    
208888800354370001JOSE WILSON TAVARES MAGALHAES     21  01174604131512/2018+0000000000121658CH5Y26/02/1954888800354370001JOSE WILSON TAVARES MAGALHAES   000202270                    
208888800354374001DAYANNA KAYSE O DO NASCIMENTO     21  00112267645012/2018+0000000000019408CH5Y25/03/1982888800354374001DAYANNA KAYSE O DO NASCIMENTO   000204410                    
208888800354378001ADRIANA DAS N DE LIMA BEZERRA     21  00232512949712/2018+0000000000054408CH5Y09/12/1977888800354378001ADRIANA DAS N DE LIMA BEZERRA   000204920                    
208888800354399001ELANIA SANTOS DA SILVA            21  00697831043312/2018+0000000000016008CH5Y29/05/1987888800354399001ELANIA SANTOS DA SILVA          000206620                    
208888800354400001FRANCISCA SIMONE DOS S SILVA      21  00546960146312/2018+0000000000034018CH5Y19/11/1984888800354400001FRANCISCA SIMONE DOS S SILVA    000206630                    
208888800354422001MARCIANA G S DO NASCIMENTO        21  00515236349612/2018+0000000000085528CH5Y02/05/1985888800354422001MARCIANA G S DO NASCIMENTO      000206910                    
208888800354476001ROSEMEIRE OLIVEIRA DA SILVA       21  00435448153712/2018+0000000000018008CH5Y14/04/1991888800354476001ROSEMEIRE OLIVEIRA DA SILVA     000209200                    
208888800354494001FABIANA PINHEIRO DE ARAUJO        21  00116670959012/2018+0000000000015668CH5Y10/08/1982888800354494001FABIANA PINHEIRO DE ARAUJO      000210610                    
208888800354538001MARIA CONCEICAO C P DE SOUZA      21  03848405610412/2018+0000000000209828CH5Y07/08/1966888800354538001MARIA CONCEICAO C P DE SOUZA    000212540                    
208888800354538002JOAO ANTONIO DE SOUZA             21  03445869715312/2018+0000000000024118CH5Y04/02/1960888800354538001MARIA CONCEICAO C P DE SOUZA    000212540                    
208888800354541001JORACI INERINDA DE ALMEIDA        09  00005195810412/2018+0000000000117308CH5Y22/07/1981888800354541001JORACI INERINDA DE ALMEIDA      000212620                    
208888800354618001ROSIDALVA PINHEIRO DE JESUS       21  07538436138712/2018+0000000000017818CH5Y24/02/1967888800354618001ROSIDALVA PINHEIRO DE JESUS     000215570                    
208888800354629001ANGELA MARIA OLIVEIRA MAGALHAES   21  06452583034412/2018+0000000000014508CH5Y15/04/1978888800354629001ANGELA MARIA OLIVEIRA MAGALHAES 000215870                    
208888800354631001CAMILA DE ALMEIDA GOMES           21  00403448832812/2018+0000000000019408CH5Y22/08/1991888800354631001CAMILA DE ALMEIDA GOMES         000215930                    
208888800354639001JOELMA APARECIDA VIEIRA           21  09258364490412/2018+0000000000022038CH5Y20/10/1974888800354639001JOELMA APARECIDA VIEIRA         000216300                    
208888800354655001PATRICIA FERNANDA DA S SANTOS     21  00448354195112/2018+0000000000022618CH5Y04/05/1985888800354655001PATRICIA FERNANDA DA S SANTOS   000216770                    
208888800354668001MARCELLA LORIANE CAILLEAUX        21  00556627890612/2018+0000000000018008CH5Y01/07/1987888800354668001MARCELLA LORIANE CAILLEAUX      000217110                    
208888845301830001ROSELY SILVA FLORES             21303900211535419212/2018+0000000000038608CH5Y16/05/1987888845301830001ROSELY SILVA FLORES             000217910                    
208888845364473001NAYARA OLIVEIRA DE MELO               00477247733012/2018+0000000000019408CH5Y01/06/1991888845364473001NAYARA OLIVEIRA DE MELO         000219270                    
208888845365698001FLAVIA CAROLINE AMORIM DA SILVA       00011998512812/2018+0000000000033228CH5Y28/06/1982888845365698001FLAVIA CAROLINE AMORIM DA SILVA 000217900                    
208888845384884001JANETE JUCI DA SILVA                  05364303810012/2018+0000000000019408CH5Y24/06/1972888845384884001JANETE JUCI DA SILVA            000219470                    
208888845402510001LAURA VIRGINIA R VILELA PEREIRA       08959037613412/2018+0000000000017338CH5Y12/02/1978888845402510001LAURA VIRGINIA R VILELA PEREIRA 000216820                    
208888845408873001KEINAIANA FERNANDES BRAZ SILVA        01175676675412/2018+0000000000018008CH5Y27/07/1987888845408873001KEINAIANA FERNANDES BRAZ SILVA  000219830                    
208888845513078001EDIVANIA MENDES DOS SANTOS            00928851893212/2018+0000000000022328CH5Y23/04/1994888845513078001EDIVANIA MENDES DOS SANTOS      000221470                    
208888845554026001RAQUEL PEREIRA SILVA                  00026529432012/2018+0000000000017028CH5Y08/04/1983888845554026001RAQUEL PEREIRA SILVA            000222540                    
208888845554145001ROSIANE VIANA DA SILVA                00499355032412/2018+0000000000100608CH5Y22/08/1989888845554145001ROSIANE VIANA DA SILVA          000223360                    
208888845554172001RAELMA DOURADO                        00283998458012/2018+0000000000007208CH5Y26/01/1983888845554172001RAELMA DOURADO                  000223270                    
208888845554192001FLAVIA MAURA SANTOS FRAZAO            04881350838712/2018+0000000000013358CH5Y28/09/1972888845554192001FLAVIA MAURA SANTOS FRAZAO      000223170                    
208888845554238001NELIANE CARVALHO DOS SANTOS           00400851733212/2018+0000000000112328CH5Y20/06/1986888845554238001NELIANE CARVALHO DOS SANTOS     000223010                    
208888845568421001RAFAELLA SILVA RODRIGUES              00085608327512/2018+0000000000038958CH5Y31/03/1992888845568421001RAFAELLA SILVA RODRIGUES        000223100                    
208888845580019002VANDERLEI SANTANA PAULINO             00535083882212/2018+0000000000016008CH5Y12/11/1962888845580019001ELIANE FERREIRA DA SILVA PAULINO000223950                    
208888845580044002EURICIO BARTOLOMEU LAGO VERAS         02536247031012/2018+0000000000086368CH5Y10/03/1960888845580044001ROSIDALVA AS VERAS              000223830                    
208888845630047001PAULO SERGIO OSORIO DA FONSECA        05961610586812/2018+0000000000019408CH5Y03/01/1952888845630047001PAULO SERGIO OSORIO DA FONSECA  000224450                    
208888845630054001ISABELA VITORIA DE ARAUJO             01086585496312/2018+0000000000104488CH5Y17/07/1997888845630054001ISABELA VITORIA DE ARAUJO       000224440                    
208888845630104001DEYLLUHAN COSME DE CARVALHO CAMP      00167009710212/2018+0000000000043218CH5Y16/05/1987888845630104001DEYLLUHAN COSME DE CARVALHO CAMP000220280                    
208888845630104002ROSICLER EVANGELISTA DE ARRUDA        00467479917112/2018+0000000000004708CH5Y31/07/1991888845630104001DEYLLUHAN COSME DE CARVALHO CAMP000220280                    
208888845709252001DAIANE DA SILVA ROCHA                 00051761920212/2018+0000000000072288CH5Y15/03/1991888845709252001DAIANE DA SILVA ROCHA           020225180                    
208888845709256001ANA CLAUDIA DE BITTENCOURT            00034280391312/2018+0000000000061028CH5Y13/06/1978888845709256001ANA CLAUDIA DE BITTENCOURT      020225120                    
208888845709258001FRANCIELLI LUMAR DA SILVA ROSINO      00584722036712/2018+0000000000025368CH5Y03/02/1992888845709258001FRANCIELLI LUMAR DA SILVA ROSINO020225100                    
208888845720098001FRANCIDALVA GUIMARAES DOS SANTOS      08345453520412/2018+0000000000102248CH5Y10/04/1984888845720098001FRANCIDALVA GUIMARAES DOS SANTOS020225470                    
208888845775826001TATIANA FEITOSA DE LIMA         OPERAD00329491229312/2018+0000000000020288CH5Y10/06/1997888845775826001TATIANA FEITOSA DE LIMA         020226150                    
208888845808046001JUCELENE DE OLIVEIRA S KOSTUSKI       00457238798212/2018+0000000000020678CH5Y14/12/1979888845808046001JUCELENE DE OLIVEIRA S KOSTUSKI 020224620                    
208888845808054001IDALMIRANE MARIA DO NASCIMENTO        00800034090912/2018+0000000000009188CH5Y12/12/1991888845808054001IDALMIRANE MARIA DO NASCIMENTO  020221700                    
208888845817095001GIRLENE APARECIDA DE O CASTILHO       00270302662512/2018+0000000000053388CH5Y30/03/1979888845817095001GIRLENE APARECIDA DE O CASTILHO 020226850                    
208888845817137001DEUZIANE COSTA DE SOUSA SILVA         06173385538612/2018+0000000000014498CH5Y01/12/1997888845817137001DEUZIANE COSTA DE SOUSA SILVA   020226730                    
208888845817197001MARIANE POLLI PEDROSO                 00897568990512/2018+0000000000018008CH5Y18/05/1993888845817197001MARIANE POLLI PEDROSO           020224610                    
208888845818948001MARILEIDE ALVES DE CASTRO             07860403617212/2018+0000000000018008CH5Y23/11/1969888845818948001MARILEIDE ALVES DE CASTRO       020226660                    
208888845842873001GILDA SANTANA DA SILVA                08352999320412/2018+0000000000015608CH5Y25/04/1984888845842873001GILDA SANTANA DA SILVA          020227040                    
208888845842891001MICHELLE MARQUES DA SILVA JOTA        00350755043112/2018+0000000000064058CH5Y31/10/1981888845842891001MICHELLE MARQUES DA SILVA JOTA  240224660                    
208888845842927001AMANDA DE JESUS SILVA                 03866204183312/2018+0000000000053468CH5Y09/08/1990888845842927001AMANDA DE JESUS SILVA           020213690                    
208888845907026001MONICA DE SOUSA FEITOSA               00065615514012/2018+0000000000017028CH5Y11/09/1983888845907026001MONICA DE SOUSA FEITOSA         020227300                    
208888845942167001VERONICA DA CRUZ CALVET FERREIRAOPERAD09681616332012/2018+0000000000104888CH5Y02/02/1985888845942167001VERONICA DA CRUZ CALVET FERREIRA020227500                    
208888845969856001LILIAN MARIA DE TOLEDO                00476932491012/2018+0000000000066738CH5Y19/09/1983888845969856001LILIAN MARIA DE TOLEDO          020226550                    
208888846014207001RAABE DA SILVA MENDES                 00280477716212/2018+0000000000038598CH5Y29/05/1987888846014207001RAABE DA SILVA MENDES           020227610                    
208888846042952001CLEIONICE SALVODI SILVERIO            00441094112712/2018+0000000000022108CH5Y01/02/1994888846042952001CLEIONICE SALVODI SILVERIO      000090340                    
208888846101153001MARINETE CRISTINA DEVITT              08478131914912/2018+0000000000028178CH5Y27/04/1978888846101153001MARINETE CRISTINA DEVITT        000015150                    
208888846101173001VANESSA CAVALCANTE ARRAIS COUTO       00338953418012/2018+0000000000017028CH5Y07/06/1990888846101173001VANESSA CAVALCANTE ARRAIS COUTO 000015220                    
208888846101177001MICHELE CONCEICAO DA SILVA            00614591295212/2018+0000000000081898CH5Y24/08/1987888846101177001MICHELE CONCEICAO DA SILVA      000015240                    
208888846112030001EVELISE CAROLINE R K CONTADOR         00666056099812/2018+0000000000020288CH5Y16/11/1986888846112030001EVELISE CAROLINE R K CONTADOR   000217751                    
208888846132306001ALESSANDRA JULIA PANTOJA ALMEIDA      00305314025012/2018+0000000000033608CH5Y04/11/1995888846132306001ALESSANDRA JULIA PANTOJA ALMEIDA000015420                    
208888846132308001LURIANE MARINHO LIMA                  00016796829712/2018+0000000000114448CH5Y27/06/1992888846132308001LURIANE MARINHO LIMA            000015320                    
208888846199385001PRISCILLA ROSANA DA SILVA             00684821745012/2018+0000000000015608CH5Y24/06/1984888846199385001PRISCILLA ROSANA DA SILVA       000015700                    
208888846238499001MIRIAM PEREIRA DA SILVA               09055954136812/2018+0000000000059438CH5Y16/12/1979888846238499001MIRIAM PEREIRA DA SILVA         000015860                    
208888846238513001LUCAS NAVA LIMA                       00234171537012/2018+0000000000018848CH5Y06/09/1996888846238513001LUCAS NAVA LIMA                 000015940                    
90+000000000292959000071                                                                                                                              
