1028/02/2018                             000000000000000                                                              000000000                       
208888800353789001AUCINELIA GOMES XAVIER            21  02674412046802/2018+0000000000024738CH5Y09/10/1962888800353789001AUCINELIA GOMES XAVIER          000102720                    
208888800353789001AUCINELIA GOMES XAVIER            21  02674412046802/2018-0000000000001450CH5Y09/10/1962888800353789001AUCINELIA GOMES XAVIER          000102720
208888800353789002JOSE ELIONALDO DE SOUZA           21  00075300184502/2018+0000000000020938CH5Y19/09/1956888800353789001AUCINELIA GOMES XAVIER          000102720                    
208888800353789010RODRIGO GOMES XAVIER BATISTA      21  00540869945502/2018+0000000000068908CH5Y04/05/1989888800353789001AUCINELIA GOMES XAVIER          000102720                    
208888800353790001CLAUDIO HENRIQUE MOURA            06  03348615380302/2018+0000000000023258CH5Y20/02/1989888800353790001CLAUDIO HENRIQUE MOURA          000103110                    
208888800353806001VICENTE ANDRE BRONZEADO           18  01557633584802/2018+0000000000047898CH5Y12/12/1971888800353806001VICENTE ANDRE BRONZEADO         000203090                    
208888800353820001PAULO AFONSO RAMOS RIBEIRO        21  00152971980102/2018+0000000000026148CH5Y12/02/1959888800353820001PAULO AFONSO RAMOS RIBEIRO      000205130                    
208888800353820002ERCI PERAZZI DE AQUINO            21  00361710283202/2018+0000000000034048CH5Y01/04/1962888800353820001PAULO AFONSO RAMOS RIBEIRO      000205130                    
208888800353825001MONIQUE WERLICK BRAVO LIMA      21    00937396877702/2018+0000000000017008CH5Y29/03/1983888800353825001MONIQUE WERLICK BRAVO LIMA      000205950                    
208888800353869001LUZIA CRISTINA PEREIRA          21    02861692286502/2018+0000000000030138CH5Y22/11/1980888800353869001LUZIA CRISTINA PEREIRA          000207380                    
208888800353888001SILMARA FEITOZA BENICIO           21  03555150685102/2018+0000000000018008CH5Y09/07/1987888800353888001SILMARA FEITOZA BENICIO         000208160                    
208888800353990001FATIMA APARECIDA DA SILVA         21  02188054180702/2018+0000000000079208CH5Y14/04/1980888800353990001FATIMA APARECIDA DA SILVA       000212660                    
208888800354037002GILMAR RIBEIRO SANTOS             21  06949892063002/2018+0000000000012008CH5Y17/05/1965888800354037001OZANA CARDOSO RIBEIRO           000213740                    
208888800354066001ADRIANA CRISTINA BASSO PAVAN      21  02814720384502/2018+0000000000036008CH5Y10/07/1973888800354066001ADRIANA CRISTINA BASSO PAVAN    000214570                    
208888800354370001JOSE WILSON TAVARES MAGALHAES     21  01174604131502/2018+0000000000178408CH5Y26/02/1954888800354370001JOSE WILSON TAVARES MAGALHAES   000202270                    
208888800354371001ARLEN SOARES DO NASCIMENTO        10  00450316947502/2018+0000000000107228CH5Y19/07/1982888800354371001ARLEN SOARES DO NASCIMENTO      000202600                    
208888800354374001DAYANNA KAYSE O DO NASCIMENTO     21  00112267645002/2018+0000000000016008CH5Y25/03/1982888800354374001DAYANNA KAYSE O DO NASCIMENTO   000204410                    
208888800354378001ADRIANA DAS N DE LIMA BEZERRA     21  00232512949702/2018+0000000000173608CH5Y09/12/1977888800354378001ADRIANA DAS N DE LIMA BEZERRA   000204920                    
208888800354391001WAGNER DE SOUZA DANTAS            21  00344603644002/2018+0000000000020008CH5Y24/04/1980888800354391001WAGNER DE SOUZA DANTAS          000206070                    
208888800354404001JANAINA GOMES PINHEIRO DE MORAIS  21  00083959840802/2018+0000000000017028CH5Y28/05/1981888800354404001JANAINA GOMES PINHEIRO DE MORAIS000206670                    
208888800354407001JUSSARA TARGINO DA SILVA          18  00119250543302/2018+0000000000023098CH5Y02/03/1981888800354407001JUSSARA TARGINO DA SILVA        000206700                    
208888800354423001MICARLA VALDIANNE L CRUZ GOMES    21  00681499745202/2018+0000000000093008CH5Y23/03/1987888800354423001MICARLA VALDIANNE L CRUZ GOMES  000206920                    
208888800354447001RUI OLIVEIRA BARBOSA              21  03269672837202/2018+0000000000029528CH5Y04/11/1970888800354447001RUI OLIVEIRA BARBOSA            000208150                    
208888800354451001ANA PAULA FERNANDES GOMES         21  06474726334902/2018+0000000000022418CH5Y05/11/1980888800354451001ANA PAULA FERNANDES GOMES       000208380                    
208888800354482001NAYANE FREITAS DE VASCONCELOS     21  00410043931802/2018+0000000000036418CH5Y04/03/1994888800354482001NAYANE FREITAS DE VASCONCELOS   000209350                    
208888800354483001JOELMA ARAUJO LOPES               21  06533124935302/2018+0000000000014508CH5Y29/07/1979888800354483001JOELMA ARAUJO LOPES             000209360                    
208888800354494001FABIANA PINHEIRO DE ARAUJO        21  00116670959002/2018+0000000000054008CH5Y10/08/1982888800354494001FABIANA PINHEIRO DE ARAUJO      000210610                    
208888800354495001ANA CARINA PEREIRA LIMA           21  00338106936502/2018+0000000000052378CH5Y13/10/1988888800354495001ANA CARINA PEREIRA LIMA         000210810                    
208888800354546001LAURINEIA FREITAS DOS SANTOS      21  07070971818702/2018+0000000000040758CH5Y15/10/1984888800354546001LAURINEIA FREITAS DOS SANTOS    000212720                    
208888800354567001ELIZANGELA MARIA GASQUE LEQUE     21  09143916716802/2018+0000000000025388CH5Y15/01/1981888800354567001ELIZANGELA MARIA GASQUE LEQUE   000213670                    
208888800354590001MARCIA SOUZA PEREIRA              21  08389471310002/2018+0000000000121848CH5Y04/03/1976888800354590001MARCIA SOUZA PEREIRA            000214520                    
208888800354603001DANIELE APARECIDA M MORAES        21  00074545515802/2018+0000000000010708CH5Y12/07/1983888800354603001DANIELE APARECIDA M MORAES      000215030                    
208888800354618001ROSIDALVA PINHEIRO DE JESUS       21  07538436138702/2018+0000000000056618CH5Y24/02/1967888800354618001ROSIDALVA PINHEIRO DE JESUS     000215570                    
208888800354651001LISLAINE PIASSALI DE CASTRO       21  00639772099302/2018+0000000000051338CH5Y29/06/1988888800354651001LISLAINE PIASSALI DE CASTRO     000216710                    
208888800354662001LISIENE MAYUMI K KOSLOSKI RIOS  21    01659358485102/2018+0000000000188478CH5Y19/04/1973888800354662001LISIENE MAYUMI K KOSLOSKI RIOS  000216910                    
208888800354668001MARCELLA LORIANE CAILLEAUX        21  00556627890602/2018+0000000000049308CH5Y01/07/1987888800354668001MARCELLA LORIANE CAILLEAUX      000217110                    
208888845301830001ROSELY SILVA FLORES             21303900211535419202/2018+0000000000000028CH5Y16/05/1987888845301830001ROSELY SILVA FLORES             000217910                    
208888845305214001DARLINE SILVA DIAS                    00289108136602/2018+0000000000035768CH5Y18/01/1989888845305214001DARLINE SILVA DIAS              000218030                    
208888845310979001SORAIA ALVES SILVA                    07432637652002/2018+0000000000320158CH5Y24/09/1976888845310979001SORAIA ALVES SILVA              000215520                    
208888845321875001TASSIANE RIBEIRO                      00444667610502/2018+0000000000074998CH5Y04/09/1992888845321875001TASSIANE RIBEIRO                000215810                    
208888845321931001GISELE FERREIRA DOS SANTOS            03138017983102/2018+0000000000014408CH5Y22/12/1981888845321931001GISELE FERREIRA DOS SANTOS      000218680                    
208888845364473001NAYARA OLIVEIRA DE MELO               00477247733002/2018+0000000000095548CH5Y01/06/1991888845364473001NAYARA OLIVEIRA DE MELO         000219270                    
208888845364497001ROSANGELA DE SIQUEIRA MAGALHAES       00680725784802/2018+0000000000023378CH5Y16/01/1965888845364497001ROSANGELA DE SIQUEIRA MAGALHAES 000219180                    
208888845364499001LAYSA MYRIAN CARVALHO SOUSA           00088928233102/2018+0000000000029068CH5Y29/08/1985888845364499001LAYSA MYRIAN CARVALHO SOUSA     000219140                    
208888845384884001JANETE JUCI DA SILVA                  05364303810002/2018+0000000000086428CH5Y24/06/1972888845384884001JANETE JUCI DA SILVA            000219470                    
208888845402510001LAURA VIRGINIA R VILELA PEREIRA       08959037613402/2018+0000000000049298CH5Y12/02/1978888845402510001LAURA VIRGINIA R VILELA PEREIRA 000216820                    
208888845408873001KEINAIANA FERNANDES BRAZ SILVA        01175676675402/2018+0000000000005628CH5Y27/07/1987888845408873001KEINAIANA FERNANDES BRAZ SILVA  000219830                    
208888845428553001ANDREIA APARECIDA DA SILVA            00663430895002/2018+0000000000021078CH5Y25/07/1986888845428553001ANDREIA APARECIDA DA SILVA      000219960                    
208888845428571001LEOCASSIA CARDOSO DANTAS              00355743442702/2018+0000000000018008CH5Y11/02/1982888845428571001LEOCASSIA CARDOSO DANTAS        000220130                    
208888845444291001MARIA SUELI DOS SANTOS                05377126599102/2018+0000000000017028CH5Y11/09/1965888845444291001MARIA SUELI DOS SANTOS          000220520                    
208888845444295001ARNALDO LIMA DA CRUZ JUNIOR           07023154442102/2018+0000000000018008CH5Y28/08/1995888845444295001ARNALDO LIMA DA CRUZ JUNIOR     000220500                    
208888845444303010ISADORA MALKUT DA SILVA               01169251897602/2018+0000000000017018CH5Y21/05/2014888845444303001DANIELE APARECIDA BATISTA       000220470                    
208888845444313001SILMARA APARECIDA DE BARROS           03642949282602/2018+0000000000026008CH5Y13/02/1987888845444313001SILMARA APARECIDA DE BARROS     000213630                    
208888845465348001HELAYNE ROBERTA SOUSA ALENCAR         03436073539102/2018+0000000000034798CH5Y28/06/1970888845465348001HELAYNE ROBERTA SOUSA ALENCAR   000220940                    
208888845466826001ALINE OLIVEIRA DA C PORTO SILVA OPERAD00344296318402/2018+0000000000000018CH5Y25/07/1990888845466826001ALINE OLIVEIRA DA C PORTO SILVA 000220780                    
208888845466872001FRANCISLAINE SOUZA DE MORAIS    OP DE 00413370798202/2018+0000000000018008CH5Y05/02/1985888845466872001FRANCISLAINE SOUZA DE MORAIS    000220750                    
208888845466878001TACIANA DA SILVA DIAS MENDES    OP DE 00265338530902/2018+0000000000051978CH5Y10/08/1987888845466878001TACIANA DA SILVA DIAS MENDES    000220710                    
208888845513078001EDIVANIA MENDES DOS SANTOS            00928851893202/2018+0000000000006708CH5Y23/04/1994888845513078001EDIVANIA MENDES DOS SANTOS      000221470                    
208888845513098001GRAZIELA FRANCISCO DE LIMA CAZEL      04289910785202/2018+0000000000034288CH5Y20/04/1994888845513098001GRAZIELA FRANCISCO DE LIMA CAZEL000221620                    
208888845530421001GLENDA LUANNA SUDRE SANTOS            00496670930002/2018+0000000000043388CH5Y13/01/1993888845530421001GLENDA LUANNA SUDRE SANTOS      000222070                    
208888845554026001RAQUEL PEREIRA SILVA                  00026529432002/2018+0000000000017028CH5Y08/04/1983888845554026001RAQUEL PEREIRA SILVA            000222540                    
208888845554145001ROSIANE VIANA DA SILVA                00499355032402/2018+0000000000017008CH5Y22/08/1989888845554145001ROSIANE VIANA DA SILVA          000223360                    
208888845554164001CRISTIANE DA SILVA PONCCE             00140569421102/2018+0000000000018008CH5Y25/05/1992888845554164001CRISTIANE DA SILVA PONCCE       000222740                    
208888845554238001NELIANE CARVALHO DOS SANTOS           00400851733202/2018+0000000000092938CH5Y20/06/1986888845554238001NELIANE CARVALHO DOS SANTOS     000223010                    
208888845554252001RANUSIA SANTANA DOS REIS MAIA         05613907153402/2018+0000000000014408CH5Y23/05/1970888845554252001RANUSIA SANTANA DOS REIS MAIA   000223050                    
208888845568421001RAFAELLA SILVA RODRIGUES              00085608327502/2018+0000000000072808CH5Y31/03/1992888845568421001RAFAELLA SILVA RODRIGUES        000223100                    
208888845580017001THALITA AZEVEDO CAVINATTI             03092586387402/2018+0000000000067478CH5Y03/10/1984888845580017001THALITA AZEVEDO CAVINATTI       000223730                    
208888845580017010ELISEU CAVINATTI GALVAO               00000000000002/2018+0000000000018008CH5Y07/06/2012888845580017001THALITA AZEVEDO CAVINATTI       000223730                    
208888845601612001RENATA DE SOUSA RIBEIRO               00514730854702/2018+0000000000018008CH5Y14/01/1991888845601612001RENATA DE SOUSA RIBEIRO         000224010                    
208888845603352001KARINA KENIA MOREIRA DE MENDONCA      07227335615302/2018+0000000000090198CH5Y19/01/1986888845603352001KARINA KENIA MOREIRA DE MENDONCA000224410                    
208888845603352010HEITOR MENDONCA SOUZA                 00000000000002/2018+0000000000034048CH5Y05/05/2017888845603352001KARINA KENIA MOREIRA DE MENDONCA000224410                    
208888845603354001MARIA SUELY DE FREITAS SANTOS         07758635245302/2018+0000000000014608CH5Y23/06/1971888845603354001MARIA SUELY DE FREITAS SANTOS   000219550                    
208888845630047001PAULO SERGIO OSORIO DA FONSECA        05961610586802/2018+0000000000036008CH5Y03/01/1952888845630047001PAULO SERGIO OSORIO DA FONSECA  000224450                    
208888845630104001DEYLLUHAN COSME DE CARVALHO CAMP      00167009710202/2018+0000000000043158CH5Y16/05/1987888845630104001DEYLLUHAN COSME DE CARVALHO CAMP000220280                    
208888845630104002ROSICLER EVANGELISTA DE ARRUDA        00467479917102/2018+0000000000018008CH5Y31/07/1991888845630104001DEYLLUHAN COSME DE CARVALHO CAMP000220280                    
208888845667689001DIANE NUNES CAMARA                    06073753535002/2018+0000000000018438CH5Y11/01/1996888845667689001DIANE NUNES CAMARA              020224990                    
208888845683153001LUANA DE MENEZES                      03450955381102/2018+0000000000018678CH5Y11/11/1986888845683153001LUANA DE MENEZES                020225030                    
208888845709258001FRANCIELLI LUMAR DA SILVA ROSINO      00584722036702/2018+0000000000028558CH5Y03/02/1992888845709258001FRANCIELLI LUMAR DA SILVA ROSINO020225100                    
208888845709260001ALEXSSANDRA BENFICA                   07086549320002/2018+0000000000016808CH5Y21/05/1981888845709260001ALEXSSANDRA BENFICA             020222710                    
208888845709260010MARIA CLARA BENFICA MARTINS GUIM      00000000000002/2018+0000000000015608CH5Y03/12/2014888845709260001ALEXSSANDRA BENFICA             020222710                    
208888845720073001ALESSANDRA LIMA ALMEIDA               00187196230702/2018+0000000000018008CH5Y09/06/1987888845720073001ALESSANDRA LIMA ALMEIDA         020221030                    
208888845720130001NECIMERE DA SILVA SANTOS ANDRADE      00621911445002/2018+0000000000082558CH5Y02/01/1986888845720130001NECIMERE DA SILVA SANTOS ANDRADE020225520                    
208888845720141001CRISTIANE DE OLIVEIRA F LEITO         00289555736502/2018+0000000000029198CH5Y23/02/1989888845720141001CRISTIANE DE OLIVEIRA F LEITO   020225560                    
208888845720182001KAROLAYNE RODRIGUES SILVA             00630379114002/2018+0000000000023408CH5Y16/10/1998888845720182001KAROLAYNE RODRIGUES SILVA       020225590                    
208888845746515001JOSIEL JOSE DA ROCHA                  05904403950402/2018+0000000000013208CH5Y13/04/1971888845746515001JOSIEL JOSE DA ROCHA            020225800                    
208888845747362001AYRTON GOMES CORREA                   00032193238202/2018+0000000000004218CH5Y05/10/1989888845747362001AYRTON GOMES CORREA             020225760                    
208888845747376001ERICA MORAES LIMA                     07404687039702/2018+0000000000122698CH5Y02/05/1977888845747376001ERICA MORAES LIMA               020225910                    
208888845747380001NATANE FERNANDA DE OLIVEIRA CAET      04324752184402/2018+0000000000028008CH5Y05/02/1996888845747380001NATANE FERNANDA DE OLIVEIRA CAET020225900                    
208888845775708001CLAUDILENE MILAN ROCHA          OPERAD00394049616202/2018+0000000000039658CH5Y07/06/1989888845775708001CLAUDILENE MILAN ROCHA          020225950                    
208888845807916001CHRISTIAN YVES DESPONDS               01751196682902/2018+0000000000075928CH5Y21/01/1971888845807916001CHRISTIAN YVES DESPONDS         020226330                    
208888845808018001LUCIA CLEIDE DA SILVA MONTEIRO M      03132719587902/2018+0000000000058908CH5Y02/12/1979888845808018001LUCIA CLEIDE DA SILVA MONTEIRO M020226290                    
208888845808034001ERICA DA SILVA RANUCCI                00081848226502/2018+0000000000031298CH5Y11/02/1990888845808034001ERICA DA SILVA RANUCCI          020224210                    
208888845808054001IDALMIRANE MARIA DO NASCIMENTO        00800034090902/2018+0000000000034978CH5Y12/12/1991888845808054001IDALMIRANE MARIA DO NASCIMENTO  020221700                    
208888845817095001GIRLENE APARECIDA DE O CASTILHO       00270302662502/2018+0000000000018008CH5Y30/03/1979888845817095001GIRLENE APARECIDA DE O CASTILHO 020226850                    
208888845817137001DEUZIANE COSTA DE SOUSA SILVA         06173385538602/2018+0000000000014498CH5Y01/12/1997888845817137001DEUZIANE COSTA DE SOUSA SILVA   020226730                    
208888845817177001MARCOS EUGENIO DA PENHA               00409706035002/2018+0000000000115828CH5Y06/07/1987888845817177001MARCOS EUGENIO DA PENHA         020226590                    
208888845817197001MARIANE POLLI PEDROSO                 00897568990502/2018+0000000000131258CH5Y18/05/1993888845817197001MARIANE POLLI PEDROSO           020224610                    
208888845830370001FERNANDA GADELHA DOS SANTOS           00648444848502/2018+0000000000018008CH5Y02/02/1993888845830370001FERNANDA GADELHA DOS SANTOS     020224960                    
208888845842853001PEDRO FERNANDES DA SILVA NETO         00019923635602/2018+0000000000037938CH5Y26/11/1982888845842853001PEDRO FERNANDES DA SILVA NETO   020226940                    
208888845842873001GILDA SANTANA DA SILVA                08352999320402/2018+0000000000101848CH5Y25/04/1984888845842873001GILDA SANTANA DA SILVA          020227040                    
208888845842891001MICHELLE MARQUES DA SILVA JOTA        00350755043102/2018+0000000000042408CH5Y31/10/1981888845842891001MICHELLE MARQUES DA SILVA JOTA  240224660                    
208888845842903001REGINALDO GOMES VIANA                 06572714241502/2018+0000000000091358CH5Y27/06/1970888845842903001REGINALDO GOMES VIANA           020226910                    
208888845842927001AMANDA DE JESUS SILVA                 03866204183302/2018+0000000000036438CH5Y09/08/1990888845842927001AMANDA DE JESUS SILVA           020213690                    
208888845878014001PAULA DA GRACA DIOGO                  02525858085702/2018+0000000000061418CH5Y19/02/1975888845878014001PAULA DA GRACA DIOGO            020227160                    
208888845878024001ANTONIO FERNANDO DE GOYAZ             02691716511502/2018+0000000000115038CH5Y08/10/1961888845878024001ANTONIO FERNANDO DE GOYAZ       020227270                    
208888845878141001AGUIDA MARIA BATISTA LIMA             09151286718702/2018+0000000000041008CH5Y06/05/1978888845878141001AGUIDA MARIA BATISTA LIMA       020222600                    
208888845907026001MONICA DE SOUSA FEITOSA               00065615514002/2018+0000000000153258CH5Y11/09/1983888845907026001MONICA DE SOUSA FEITOSA         020227300                    
208888845907048001RUBENS RODRIGUES ALVES FILHO          00277217989302/2018+0000000000067308CH5Y28/05/1966888845907048001RUBENS RODRIGUES ALVES FILHO    020227320                    
208888845907056001TATIANA ARAGAO DE OLIVEIRA            00176924957502/2018+0000000000165008CH5Y10/10/1981888845907056001TATIANA ARAGAO DE OLIVEIRA      020227360                    
208888845907058001PATRICIA DA CONCEICAO                 00281217351302/2018+0000000000059648CH5Y14/06/1981888845907058001PATRICIA DA CONCEICAO           020227370                    
208888845907058010PALOMA DA CONCEICAO SANTOS            00000000000002/2018+0000000000050918CH5Y03/03/2006888845907058001PATRICIA DA CONCEICAO           020227370                    
208888845907062001EVANY SOUZA DE OLIVEIRA               05435979153402/2018+0000000000060178CH5Y01/01/1973888845907062001EVANY SOUZA DE OLIVEIRA         020227380                    
208888845907062010DAVI OLIVEIRA E OLIVEIRA              00000000000002/2018+0000000000126148CH5Y11/08/2001888845907062001EVANY SOUZA DE OLIVEIRA         020227380                    
208888845907066001CARLA DAS NEVES SANTANA BORGES        06770633957202/2018+0000000000051038CH5Y11/05/1974888845907066001CARLA DAS NEVES SANTANA BORGES  020227390                    
208888845909159001ILSE GONCALINA LEMES ORMOND           00181525810102/2018+0000000000100548CH5Y14/12/1987888845909159001ILSE GONCALINA LEMES ORMOND     020227200                    
90+000000000575153000114                                                                                                                              
