1031/08/2018                             000000000000000                                                              000000000                       
208888800353789001AUCINELIA GOMES XAVIER            21  02674412046808/2018+0000000000036008CH5Y09/10/1962888800353789001AUCINELIA GOMES XAVIER          000102720                    
208888800353820001PAULO AFONSO RAMOS RIBEIRO        21  00152971980108/2018+0000000000013608CH5Y12/02/1959888800353820001PAULO AFONSO RAMOS RIBEIRO      000205130                    
208888800353880001CARINA ALENCAR D LIBERA ESTEVES   21  03137425689708/2018+0000000000018008CH5Y13/07/1985888800353880001CARINA ALENCAR D LIBERA ESTEVES 000207740                    
208888800354027001KARINE FERNANDES DE SOUSA LIMA    21  00941150640208/2018+0000000000000898CH5Y02/01/1993888800354027001KARINE FERNANDES DE SOUSA LIMA  000213540                    
208888800354029001TATIANE MAGALHAES DOS SANTOS      21  03913018689708/2018+0000000000021898CH5Y01/06/1990888800354029001TATIANE MAGALHAES DOS SANTOS    000213570                    
208888800354037001OZANA CARDOSO RIBEIRO             21  02570879380508/2018+0000000000017008CH5Y08/09/1973888800354037001OZANA CARDOSO RIBEIRO           000213740                    
208888800354057001SILVIA SALVATICO DA S CRINI       21  00365741680308/2018+0000000000022968CH5Y30/03/1960888800354057001SILVIA SALVATICO DA S CRINI     000214300                    
208888800354374001DAYANNA KAYSE O DO NASCIMENTO     21  00112267645008/2018+0000000000034008CH5Y25/03/1982888800354374001DAYANNA KAYSE O DO NASCIMENTO   000204410                    
208888800354394001ADRIANA DE OLIVEIRA PEDRO XAVIER  21  00533093643808/2018+0000000000073418CH5Y14/09/1983888800354394001ADRIANA DE OLIVEIRA PEDRO XAVIER000206520                    
208888800354404001JANAINA GOMES PINHEIRO DE MORAIS  21  00083959840808/2018+0000000000011148CH5Y28/05/1981888800354404001JANAINA GOMES PINHEIRO DE MORAIS000206670                    
208888800354423010JOSE MATHIAS                      21  00000000000008/2018+0000000000036008CH5Y12/12/2017888800354423001MICARLA VALDIANNE L CRUZ GOMES  000206920                    
208888800354473001JEZUITA DE OLIVEIRA TEIXEIRA      21  06044345653408/2018+0000000000018008CH5Y06/08/1970888800354473001JEZUITA DE OLIVEIRA TEIXEIRA    000209100                    
208888800354494001FABIANA PINHEIRO DE ARAUJO        21  00116670959008/2018+0000000000213308CH5Y10/08/1982888800354494001FABIANA PINHEIRO DE ARAUJO      000210610                    
208888800354538002JOAO ANTONIO DE SOUZA             21  03445869715308/2018+0000000000143708CH5Y04/02/1960888800354538001MARIA CONCEICAO C P DE SOUZA    000212540                    
208888800354546001LAURINEIA FREITAS DOS SANTOS      21  07070971818708/2018+0000000000061858CH5Y15/10/1984888800354546001LAURINEIA FREITAS DOS SANTOS    000212720                    
208888800354563001ANA ARETINA DE PINHO              21  02059803314908/2018+0000000000130738CH5Y26/10/1959888800354563001ANA ARETINA DE PINHO            000213370                    
208888800354590001MARCIA SOUZA PEREIRA              21  08389471310008/2018+0000000000064828CH5Y04/03/1976888800354590001MARCIA SOUZA PEREIRA            000214520                    
208888800354608001DIOGO RIBEIRO DE ARAUJO          09   00242134335608/2018+0000000000079028CH5Y08/08/1988888800354608001DIOGO RIBEIRO DE ARAUJO         000215150                    
208888800354655001PATRICIA FERNANDA DA S SANTOS     21  00448354195108/2018+0000000000014758CH5Y04/05/1985888800354655001PATRICIA FERNANDA DA S SANTOS   000216770                    
208888800354674001ELIANA CASTRO SILVA               21  03286849880908/2018+0000000000024008CH5Y10/10/1977888800354674001ELIANA CASTRO SILVA             000217270                    
208888845384884001JANETE JUCI DA SILVA                  05364303810008/2018+0000000000031298CH5Y24/06/1972888845384884001JANETE JUCI DA SILVA            000219470                    
208888845402510001LAURA VIRGINIA R VILELA PEREIRA       08959037613408/2018+0000000000180058CH5Y12/02/1978888845402510001LAURA VIRGINIA R VILELA PEREIRA 000216820                    
208888845428567001GLAUCIANE NASCIMENTO NOGUEIRA         00586838732508/2018+0000000000061528CH5Y27/09/1993888845428567001GLAUCIANE NASCIMENTO NOGUEIRA   000220150                    
208888845428579002GILMAR JOB DE FRANCA                  00469639245708/2018+0000000000037458CH5Y28/12/1981888845428579001NAIANE DE LIMA VERAS            000220040                    
208888845465356001ALINE DA SILVA SILVERIO               00522715915708/2018+0000000000072218CH5Y02/07/1993888845465356001ALINE DA SILVA SILVERIO         000220890                    
208888845466878001TACIANA DA SILVA DIAS MENDES    OP DE 00265338530908/2018+0000000000068578CH5Y10/08/1987888845466878001TACIANA DA SILVA DIAS MENDES    000220710                    
208888845554172001RAELMA DOURADO                        00283998458008/2018+0000000000017028CH5Y26/01/1983888845554172001RAELMA DOURADO                  000223270                    
208888845554192001FLAVIA MAURA SANTOS FRAZAO            04881350838708/2018+0000000000068598CH5Y28/09/1972888845554192001FLAVIA MAURA SANTOS FRAZAO      000223170                    
208888845554238001NELIANE CARVALHO DOS SANTOS           00400851733208/2018+0000000000018008CH5Y20/06/1986888845554238001NELIANE CARVALHO DOS SANTOS     000223010                    
208888845568421001RAFAELLA SILVA RODRIGUES              00085608327508/2018+0000000000062828CH5Y31/03/1992888845568421001RAFAELLA SILVA RODRIGUES        000223100                    
208888845580019002VANDERLEI SANTANA PAULINO             00535083882208/2018+0000000000064258CH5Y12/11/1962888845580019001ELIANE FERREIRA DA SILVA PAULINO000223950                    
208888845601612001RENATA DE SOUSA RIBEIRO               00514730854708/2018+0000000000239048CH5Y14/01/1991888845601612001RENATA DE SOUSA RIBEIRO         000224010                    
208888845601639001FABIANO APARECIDO DE PAULA PINHE      02301943984108/2018+0000000000018988CH5Y18/09/1987888845601639001FABIANO APARECIDO DE PAULA PINHE000224180                    
208888845630047001PAULO SERGIO OSORIO DA FONSECA        05961610586808/2018+0000000000018008CH5Y03/01/1952888845630047001PAULO SERGIO OSORIO DA FONSECA  000224450                    
208888845630104001DEYLLUHAN COSME DE CARVALHO CAMP      00167009710208/2018+0000000000003268CH5Y16/05/1987888845630104001DEYLLUHAN COSME DE CARVALHO CAMP000220280                    
208888845651269001SONIA DE LOURDES MONTENEGRO LEAL      02392923523408/2018+0000000000024598CH5Y02/08/1966888845651269001SONIA DE LOURDES MONTENEGRO LEAL000227470                    
208888845709190001MARCIA MARQUES DA CRUZ                00403998298308/2018+0000000000016618CH5Y07/07/1981888845709190001MARCIA MARQUES DA CRUZ          020224780                    
208888845709216001JHENIFFER DE ALCANTARA MESQUITA       00446806510908/2018+0000000000021318CH5Y27/12/1992888845709216001JHENIFFER DE ALCANTARA MESQUITA 020225250                    
208888845709256001ANA CLAUDIA DE BITTENCOURT            00034280391308/2018+0000000000037448CH5Y13/06/1978888845709256001ANA CLAUDIA DE BITTENCOURT      020225120                    
208888845709260010MARIA CLARA BENFICA MARTINS GUIM      00000000000008/2018+0000000000020288CH5Y03/12/2014888845709260001ALEXSSANDRA BENFICA             020222710                    
208888845720079001JOSE SERGIO DE LIMEIRA SEVERO         00411305247608/2018+0000000000021078CH5Y15/12/1981888845720079001JOSE SERGIO DE LIMEIRA SEVERO   020225430                    
208888845720139001THAYSE GISELLE PINHO SANTANA          00447870718908/2018+0000000000019298CH5Y19/05/1993888845720139001THAYSE GISELLE PINHO SANTANA    020225540                    
208888845747354001MANOELA PEREIRA SOUZA                 00309017254208/2018+0000000000014688CH5Y29/05/1986888845747354001MANOELA PEREIRA SOUZA           020225750                    
208888845747376001ERICA MORAES LIMA                     07404687039708/2018+0000000000040408CH5Y02/05/1977888845747376001ERICA MORAES LIMA               020225910                    
208888845775708001CLAUDILENE MILAN ROCHA          OPERAD00394049616208/2018+0000000000044768CH5Y07/06/1989888845775708001CLAUDILENE MILAN ROCHA          020225950                    
208888845775826001TATIANA FEITOSA DE LIMA         OPERAD00329491229308/2018+0000000000069928CH5Y10/06/1997888845775826001TATIANA FEITOSA DE LIMA         020226150                    
208888845808008001NARA ALVES DE JESUS                   00668564334008/2018+0000000000015608CH5Y30/08/1996888845808008001NARA ALVES DE JESUS             020226270                    
208888845808018001LUCIA CLEIDE DA SILVA MONTEIRO M      03132719587908/2018+0000000000030938CH5Y02/12/1979888845808018001LUCIA CLEIDE DA SILVA MONTEIRO M020226290                    
208888845808046001JUCELENE DE OLIVEIRA S KOSTUSKI       00457238798208/2018+0000000000021828CH5Y14/12/1979888845808046001JUCELENE DE OLIVEIRA S KOSTUSKI 020224620                    
208888845817165001EMILI SOARES ROCHA                    01410432866908/2018+0000000000018008CH5Y23/12/1996888845817165001EMILI SOARES ROCHA              020226600                    
208888845817171001TATIANE BOTEGA RIBEIRO NETTO          01010995995708/2018+0000000000031608CH5Y10/03/1996888845817171001TATIANE BOTEGA RIBEIRO NETTO    020226530                    
208888845817191001LORENA MARIA SANTOS GOUVEIA           00284805050008/2018+0000000000018008CH5Y06/09/1987888845817191001LORENA MARIA SANTOS GOUVEIA     020224460                    
208888845817197001MARIANE POLLI PEDROSO                 00897568990508/2018+0000000000018008CH5Y18/05/1993888845817197001MARIANE POLLI PEDROSO           020224610                    
208888845842853001PEDRO FERNANDES DA SILVA NETO         00019923635608/2018+0000000000036008CH5Y26/11/1982888845842853001PEDRO FERNANDES DA SILVA NETO   020226940                    
208888845842873001GILDA SANTANA DA SILVA                08352999320408/2018+0000000000005848CH5Y25/04/1984888845842873001GILDA SANTANA DA SILVA          020227040                    
208888845842891001MICHELLE MARQUES DA SILVA JOTA        00350755043108/2018+0000000000057258CH5Y31/10/1981888845842891001MICHELLE MARQUES DA SILVA JOTA  240224660                    
208888845842903001REGINALDO GOMES VIANA                 06572714241508/2018+0000000000015338CH5Y27/06/1970888845842903001REGINALDO GOMES VIANA           020226910                    
208888845842927001AMANDA DE JESUS SILVA                 03866204183308/2018+0000000000018008CH5Y09/08/1990888845842927001AMANDA DE JESUS SILVA           020213690                    
208888845878024001ANTONIO FERNANDO DE GOYAZ             02691716511508/2018+0000000000102618CH5Y08/10/1961888845878024001ANTONIO FERNANDO DE GOYAZ       020227270                    
208888845878141001AGUIDA MARIA BATISTA LIMA             09151286718708/2018+0000000000006348CH5Y06/05/1978888845878141001AGUIDA MARIA BATISTA LIMA       020222600                    
208888845909159001ILSE GONCALINA LEMES ORMOND           00181525810108/2018+0000000000063258CH5Y14/12/1987888845909159001ILSE GONCALINA LEMES ORMOND     020227200                    
208888845909169001ANA CLESYA FREITAS VASCONCELOS        00410044032408/2018+0000000000015008CH5Y12/07/1989888845909169001ANA CLESYA FREITAS VASCONCELOS  020226030                    
208888845942167001VERONICA DA CRUZ CALVET FERREIRAOPERAD09681616332008/2018+0000000000032128CH5Y02/02/1985888845942167001VERONICA DA CRUZ CALVET FERREIRA020227500                    
208888845942179001THAYMARA REGINA S DE OLIVEIRA         00489346618608/2018+0000000000019298CH5Y23/05/1994888845942179001THAYMARA REGINA S DE OLIVEIRA   020227550                    
208888846001648001MICHELE MACHINER                      00233496610008/2018+0000000000030928CH5Y14/05/1994888846001648001MICHELE MACHINER                020213500                    
208888846001652001SEBASTIANA PEREIRA DA COSTA           07314652821508/2018+0000000000018008CH5Y19/04/1983888846001652001SEBASTIANA PEREIRA DA COSTA     020223930                    
208888846001654001GRACIANE APARECIDA DUARTE             01270790161008/2018+0000000000117358CH5Y05/10/1994888846001654001GRACIANE APARECIDA DUARTE       020227470                    
208888846001816001GERMANA CORREIA LIMA G MESQUITA       06318787631508/2018+0000000000074698CH5Y27/03/1977888846001816001GERMANA CORREIA LIMA G MESQUITA 020227770                    
208888846014207001RAABE DA SILVA MENDES                 00280477716208/2018+0000000000042688CH5Y29/05/1987888846014207001RAABE DA SILVA MENDES           020227610                    
208888846042952001CLEIONICE SALVODI SILVERIO            00441094112708/2018+0000000000010708CH5Y01/02/1994888846042952001CLEIONICE SALVODI SILVERIO      000090340                    
208888846059502001MAYARA SANTANA BRITO                  00236678159808/2018+0000000000102968CH5Y25/03/1987888846059502001MAYARA SANTANA BRITO            000015010                    
208888846101153001MARINETE CRISTINA DEVITT              08478131914908/2018+0000000000062618CH5Y27/04/1978888846101153001MARINETE CRISTINA DEVITT        000015150                    
208888846101175001ADRIANE SOUSA DE OLIVEIRA             07037264016808/2018+0000000000018978CH5Y19/01/1981888846101175001ADRIANE SOUSA DE OLIVEIRA       000015230                    
208888846101177001MICHELE CONCEICAO DA SILVA            00614591295208/2018+0000000000014408CH5Y24/08/1987888846101177001MICHELE CONCEICAO DA SILVA      000015240                    
208888846112030001EVELISE CAROLINE R K CONTADOR         00666056099808/2018+0000000000093008CH5Y16/11/1986888846112030001EVELISE CAROLINE R K CONTADOR   000217751                    
90+000000000343772000075                                                                                                                              
