1031/08/2018                             000000000000000                                                              000000000                       
208888800353748001MYLENA RODRIGUES LESSA            21-101344649173208/2018+0000000000063748CHE818/06/1990888800353748001MYLENA RODRIGUES LESSA          000210660                    
208888800353760001CINTHIA SILVERIO DA SILVA         21-101056761172808/2018+0000000000042538CHE801/03/1992888800353760001CINTHIA SILVERIO DA SILVA       000212580                    
208888800353770001ROMULO DO ESPIRITO SANTO SILVA    21-101028281170208/2018+0000000000018008CHE809/04/1983888800353770001ROMULO DO ESPIRITO SANTO SILVA  000214810                    
208888845509574001NEIDE APARECIDA PARAJARA PEREIRA      00354881078008/2018+0000000000057978CHE801/04/1972888845509574001NEIDE APARECIDA PARAJARA PEREIRA000221270                    
208888845554262001MARIA ROSARIA BARROS LIRA             06593304433408/2018+0000000000119258CHE815/09/1973888845554262001MARIA ROSARIA BARROS LIRA       000222650                    
208888845606233001BIANCA KATELINE SILVA DE MIRANDA      01202757871408/2018+0000000000064838CHE819/09/1988888845606233001BIANCA KATELINE SILVA DE MIRANDA000224000                    
208888845746491001CECILIA XAVIER OLIVEIRA               00574689478808/2018+0000000000018008CHE814/07/1983888845746491001CECILIA XAVIER OLIVEIRA         020225830                    
208888845842935001KARLA RODRIGUES DE ASSIS              00939049775208/2018+0000000000000568CHE827/04/1982888845842935001KARLA RODRIGUES DE ASSIS        020225660                    
90+000000000038488000008                                                                                                                              
