1028/02/2018                             000000000000000                                                              000000000                       
208888800305682001CATIA APARECIDA ROSA DA SILVA         02203522380602/2018+0000000000191838C5Z802/11/1981888800305682001CATIA APARECIDA ROSA DA SILVA   000000050                    
208888800305687001NOEMI DE PAULA SANTOS                 00773436243502/2018+0000000000126068C5Z811/07/1990888800305687001NOEMI DE PAULA SANTOS           000000530                    
208888800305690011LORENZO GARCIA DE OLIVEIRA LIMA       05087851983102/2018+0000000000027008C5Z816/02/2016888800305690001ODAIR JOSE DA SILVA LIMA        000000630                    
208888800305691010ANDRESSA RODRIGUES DE ARAUJO          04449025180702/2018+0000000000104288C5Z828/07/1996888800305691001FLAVIO NEVES DE ARAUJO          000000640                    
208888800305696001JOSE ROSOLEM                          04338422696802/2018+0000000000094978C5Z805/08/1962888800305696001JOSE ROSOLEM                    000000800                    
208888800305698002ANA PAULA DE SOUZA CARVALHO           02924663482902/2018+0000000000110458C5Z811/12/1981888800305698001CARLOS HENRIQUE R DE ANDRADE    000000830                    
208888800305699001PATRICIA GIRALDELI PECORA             03102163386002/2018+0000000000005178C5Z814/09/1982888800305699001PATRICIA GIRALDELI PECORA       000000850                    
208888800305702001PATRICIA DE CASTRO DAVI SALVIANO      02188101286702/2018+0000000000027008C5Z826/12/1980888800305702001PATRICIA DE CASTRO DAVI SALVIANO000000880                    
208888800305706001RENATO COSTA DOS SANTOS               03865299180402/2018+0000000000027008C5Z808/03/1991888800305706001RENATO COSTA DOS SANTOS         000000950                    
208888800305711011HENRIQUE LUCCA C C NASCIMENTO         05339733688002/2018+0000000000025538C5Z822/08/2017888800305711001ELOISA ALMEIDA C NASCIMENTO     000027650                    
208888800305714002ALESSANDRA AGUIAR DA SILVA            03480680585802/2018+0000000000017288C5Z803/07/1987888800305714001RICARDO LOPES CERQUEIRA         000040150                    
208888800305714010MANUELLA AGUIAR LOPES                 00000000000002/2018+0000000000044378C5Z811/01/2015888800305714001RICARDO LOPES CERQUEIRA         000040150                    
208888800309631002CARLA MARIA LIMA                      08101693084402/2018+0000000000027008C5Z817/04/1951888800309631001MANOEL DOS SANTOS OLIVEIRA      000037150                    
208888845316766001ANDREA BROCARDO                       03089064685602/2018+0000000000033288C5Z813/09/1983888845316766001ANDREA BROCARDO                 453167660                    
208888845561096010LORENZO MACHADO DOS SANTOS      11000205056104183002/2018+0000000000088538C5Z812/12/2015888845561096001VAGNER RAMOS DA SILVA SANTOS    000001050                    
208888845561106001ERIVANDRA CICERA MARIA DA SILVA 11000203420215282402/2018+0000000000129948C5Z810/02/1985888845561106001ERIVANDRA CICERA MARIA DA SILVA 000001060                    
208888845853177010IGOR BAILO DE OLIVEIRA          11700305329890683202/2018+0000000000036298C5Z821/11/2007888845853177001MARINEIDE CRISTINA B OLIVEIRA   000001100                    
90+000000000111598000017                                                                                                                              
