1031/07/2018                             000000000000000                                                              000000000                       
208888800305719002FERNANDO HENRIQUE SILVA               02170068384507/2018+0000000000021298C7XX10/01/1980888800305719001HELIETE FIRMINA DA SILVA        000000110                    
208888800305720001CELIA REGINA BODON S GERARDI          02000185789407/2018+0000000000033548C7XX09/08/1973888800305720001CELIA REGINA BODON S GERARDI    000015380                    
208888800305722001BEATRIZ LARA APOLINARIO               02679373480607/2018+0000000000113438C7XX18/01/1978888800305722001BEATRIZ LARA APOLINARIO         000015660                    
208888800305723001MARIA INES CONTAR                     08111837682007/2018+0000000000009448C7XX03/07/1951888800305723001MARIA INES CONTAR               000016070                    
208888800305723002CARLOS RICARDO PEREIRA                08970898980007/2018+0000000000058658C7XX16/08/1956888800305723001MARIA INES CONTAR               000016070                    
208888800305732001JUSTINO MATIAS DIAS                   00446300284207/2018+0000000000114678C7XX10/12/1959888800305732001JUSTINO MATIAS DIAS             000018970                    
208888800305733002LUSINEIDE DOS SANTOS DA SILVA         01077570783007/2018+0000000000005528C7XX27/07/1967888800305733001GILSON APARECIDO DA SILVA       000019100                    
208888800305737002LECIO GREGORIO DA SILVA               02850100188007/2018+0000000000074578C7XX18/07/1981888800305737001DANIELE CONCEICAO DE SOUZA      000020620                    
208888800305745001GILBERTO DA ROCHA SANTOS              00448615487807/2018+0000000000095388C7XX13/03/1964888800305745001GILBERTO DA ROCHA SANTOS        000023160                    
208888800305745002MARIA DE FATIMA REBELO SANTOS         01487853980107/2018+0000000000223128C7XX03/01/1963888800305745001GILBERTO DA ROCHA SANTOS        000023160                    
208888800305747001JULIA SHIZUE KAWASHIMA                00540855782007/2018+0000000000041588C7XX14/06/1959888800305747001JULIA SHIZUE KAWASHIMA          000023500                    
208888800305748001DENISE JEREMIAS DA COSTA              03258311587107/2018+0000000000101438C7XX05/05/1985888800305748001DENISE JEREMIAS DA COSTA        000023530                    
208888800305749001PRISCILA ANTONIA A ARAUJO             02140549082907/2018+0000000000057258C7XX16/03/1981888800305749001PRISCILA ANTONIA A ARAUJO       000024080                    
208888800305751001MARIA GRAZIELA FURTADO SBROGLIO       03319345389707/2018+0000000000270378C7XX07/10/1985888800305751001MARIA GRAZIELA FURTADO SBROGLIO 000024500                    
208888800305752001ANA PAULA FERNANDES SANTANA           03314474288007/2018+0000000000005648C7XX19/03/1986888800305752001ANA PAULA FERNANDES SANTANA     000024940                    
208888800305755002JOAO CARLOS LEITE FONTES              00594052084707/2018+0000000000033748C7XX05/07/1966888800305755001DAYSE CRISTINA DIAS FONTES      000025250                    
208888800305767002WILLIAM NUNES CAPIM                   03108068288007/2018+0000000000232238C7XX26/08/1982888800305767001DANIELE MAIA SOUZA              000027420                    
208888800305767010NICOLE MAIA DANTAS                    04986474588307/2018+0000000000009268C7XX09/05/2001888800305767001DANIELE MAIA SOUZA              000027420                    
208888800305781002FERNANDA DE LIMA FERNANDES GOMES      02998612687807/2018+0000000000041128C7XX28/01/1980888800305781001GILBERTO FERNANDES GOMES        000029750                    
208888800305793010GUSTAVO MOURA DOS SANTOS              04814236689407/2018+0000000000026458C7XX17/09/2013888800305793001ROSENI SANTOS MOURA             000031520                    
208888800305797001RITA FORMIGA NASSAR                   03096970688007/2018+0000000000088078C7XX12/03/1982888800305797001RITA FORMIGA NASSAR             000031710                    
208888800305797002MARCOS JORGE NASSAR                   01761181289007/2018+0000000000110948C7XX27/10/1977888800305797001RITA FORMIGA NASSAR             000031710                    
208888800305797010GIOVANNA FORMIGA NASSAR               00000000000007/2018+0000000000005758C7XX16/09/2013888800305797001RITA FORMIGA NASSAR             000031710                    
208888800305804002ROMERO TEMPONI LEITE                  03201978566807/2018+0000000000016368C7XX24/07/1952888800305804001ELIANE CRISTINE THOT LEITE      000032270                    
208888800305806002ELENIR BARBOSA MATTIOLE               00606211780207/2018+0000000000109268C7XX01/06/1965888800305806001SILVIO LUCIANO MATTIOLE         000032320                    
208888800305812011GABRIELA MACHADO PEREIRA              05341712684307/2018+0000000000051068C7XX27/08/2017888800305812001GRACIELY PASCOAL MACHADO        000032780                    
208888800305845001ALESSANDRA PEREIRA DAVID              02666098788607/2018+0000000000494818C7XX30/06/1976888800305845001ALESSANDRA PEREIRA DAVID        000036100                    
208888800305846010BERNARDO LUIZ SILVA DE OLIVEIRA       05142536789507/2018+0000000000027008C7XX20/06/2016888800305846001ANDRE LUIZ ANTONIO ALVES SILVA  000036120                    
208888800305856002ELIANE RODRIGUES DA ROCHA             01896593380307/2018+0000000000027008C7XX19/12/1976888800305856001RONEY BERG BARROS PEREIRA       000036920                    
208888800305857001JOSE ROBERTO FELICIO DE MOURA         05953904673407/2018+0000000000061228C7XX03/09/1960888800305857001JOSE ROBERTO FELICIO DE MOURA   000036940                    
208888800305859001PRISCILA SILVA DE CASTRO              03012393889907/2018+0000000000027008C7XX26/08/1982888800305859001PRISCILA SILVA DE CASTRO        000036970                    
208888800305873001VERONICA SOARES BOMFIM GOMES          02893960189007/2018+0000000000035258C7XX21/01/1978888800305873001VERONICA SOARES BOMFIM GOMES    000037510                    
208888800305874001MARCIO CUSTODIO MENDES                03147568881407/2018+0000000000006448C7XX06/06/1982888800305874001MARCIO CUSTODIO MENDES          000037520                    
208888800305880001CICERO DE JESUS SANTOS                01433814188307/2018+0000000000036518C7XX01/07/1970888800305880001CICERO DE JESUS SANTOS          000037920                    
208888800305888001CARLA FURNO BORBA                     00997753277007/2018+0000000000102968C7XX06/07/1984888800305888001CARLA FURNO BORBA               000038140                    
208888800305888002JEAN CARLOS DOMINGOS                  01012360474507/2018+0000000000076418C7XX03/01/1986888800305888001CARLA FURNO BORBA               000038140                    
208888800305894001FRANCISCO JOSE P DE OLIVEIRA          01197114181007/2018+0000000000051898C7XX24/04/1968888800305894001FRANCISCO JOSE P DE OLIVEIRA    000038270                    
208888800305894002ELCIA MARIA PEGORIN DE OLIVEIRA       01005352186207/2018+0000000000099268C7XX08/08/1968888800305894001FRANCISCO JOSE P DE OLIVEIRA    000038270                    
208888800305895002MAYARA DOS SANTOS REIS LIMA           03890455980407/2018+0000000000300318C7XX26/06/1992888800305895001MILTON LUIZ FERREIRA LIMA       000038280                    
208888800305898001RENATA APOLINARIO DE CASTRO           02936187680507/2018+0000000000026888C7XX27/08/1980888800305898001RENATA APOLINARIO DE CASTRO     000038430                    
208888800305903010MIGUEL DE JESUS FIGUEIREDO FRANC      05393292180107/2018+0000000000027008C7XX11/12/2017888800305903001VALDINEI FIGUEIREDO FRANCA      000038760                    
208888800305908001VANUSA FERREIRA D DE OLIVEIRA         02615033581007/2018+0000000000358228C7XX06/09/1968888800305908001VANUSA FERREIRA D DE OLIVEIRA   000038900                    
208888800305908010LORRAINE DANTAS DE OLIVEIRA           04637284589007/2018+0000000000033008C7XX16/12/1996888800305908001VANUSA FERREIRA D DE OLIVEIRA   000038900                    
208888800305909001NURIA FURLAN HAMADA                   02691685780307/2018+0000000000107018C7XX19/11/1977888800305909001NURIA FURLAN HAMADA             000038910                    
208888800305910001SHEILA DA CRUZ NOVAES                 03437794680307/2018+0000000000054008C7XX23/07/1986888800305910001SHEILA DA CRUZ NOVAES           000039030                    
208888800305910010LETICIA CRUZ DOS SANTOS               00000000000007/2018+0000000000067418C7XX08/03/2001888800305910001SHEILA DA CRUZ NOVAES           000039030                    
208888800305917001VALERIA PASSOS GREGORIO               00524336385507/2018+0000000000150418C7XX30/05/1955888800305917001VALERIA PASSOS GREGORIO         000039300                    
208888800305917002FREDERICO GREGORIO                    05866501384907/2018+0000000000165108C7XX19/03/1955888800305917001VALERIA PASSOS GREGORIO         000039300                    
208888800305924001THATIANE TRAETE SABUNDJIAN            03327741484107/2018+0000000000103078C7XX11/08/1984888800305924001THATIANE TRAETE SABUNDJIAN      000039680                    
208888800305931001NATHALIA DAMINI MOREIRA               03663752380107/2018+0000000000131858C7XX28/11/1986888800305931001NATHALIA DAMINI MOREIRA         000039850                    
208888800305939002GRASIELA DA COSTA R GASPAROTO         02588046681707/2018+0000000000087358C7XX04/03/1978888800305939001DANIEL GASPAROTO NOVO           000040200                    
208888800305941002VALBETE PANTA LIMA DE SA              08277312253407/2018+0000000000000008C7XX07/04/1982888800305941001THAIS OLIVEIRA SILVA DE SA      000040240                    
208888800305944002MAGALI ALVES DE OLIVEIRA              03606647387507/2018+0000000000125748C7XX04/07/1988888800305944001JOELSON TRINDADE SILVA          000040360                    
208888800305945001LUIZ CARLOS MOREIRA                   01164461486307/2018+0000000000013958C7XX05/04/1969888800305945001LUIZ CARLOS MOREIRA             000040370                    
208888800305945002ROSIMEIRE A DOS SANTOS MOREIRA        00542660660907/2018+0000000000076458C7XX19/09/1982888800305945001LUIZ CARLOS MOREIRA             000040370                    
208888800305948001MELISSA LOWE LEONI                    03918455084807/2018+0000000000006448C7XX19/03/1991888800305948001MELISSA LOWE LEONI              000040480                    
208888800305959001MARIA GERACINA ALVES DE MATOS         05414662339107/2018+0000000000110788C7XX20/04/1974888800305959001MARIA GERACINA ALVES DE MATOS   000040710                    
208888800305963002JOANA CELIA VICENTINI                 00113681283007/2018+0000000000050008C7XX25/03/1961888800305963001JOSE ELIAS RODRIGUES            000040980                    
208888800305965002JUCILENE DA SILVA C C DOS SANTOS      02241001481007/2018+0000000000151808C7XX05/11/1983888800305965001ADRIANO CALIXTO COSTA DOS SANTOS000041000                    
208888800305967011MATEUS CALEBE ZAMBIANCO AMORIM        04544783186507/2018+0000000000144198C7XX14/05/2005888800305967001SELMA APARECIDA ZAMBIANCO AMORIM000041020                    
208888800305975001GABRIELA CABRAL DE SOUZA CUNHA        03758441889907/2018+0000000000156328C7XX07/04/1990888800305975001GABRIELA CABRAL DE SOUZA CUNHA  000041240                    
208888800305977001PAMELA FITTIPALDI                     03575050082907/2018+0000000000081518C7XX21/03/1987888800305977001PAMELA FITTIPALDI               000041280                    
208888800305980010STEPHANY EDUARDO MATTOS               00000000000007/2018+0000000000013178C7XX13/09/2007888800305980001WILLIAN DE MELO MATTOS          000041360                    
208888800305992002RODRIGO FELIX MONTEIRO                08679881210407/2018+0000000000015028C7XX02/07/1979888800305992001KELLY GOMES L GALVAO MONTEIRO   000041640                    
208888800306004001VANESSA FRAGOSO MAIA BRAGA            02195268689007/2018+0000000000059658C7XX24/05/1982888800306004001VANESSA FRAGOSO MAIA BRAGA      000041880                    
208888800306004010THAIS FRAGOSO MARIA                   05234093280707/2018+0000000000027008C7XX24/01/2017888800306004001VANESSA FRAGOSO MAIA BRAGA      000041880                    
208888800306027001MARIA DO CARMO C DE L GOMES           07892941541507/2018+0000000000056298C7XX11/11/1970888800306027001MARIA DO CARMO C DE L GOMES     000042220                    
208888800306029001SANDRA SALES DE SOUSA SALES           03070515886107/2018+0000000000033448C7XX09/01/1980888800306029001SANDRA SALES DE SOUSA SALES     000042240                    
208888800306030001MARIA EDILANIA VIDAL PINHEIRO         02785039580807/2018+0000000000043508C7XX24/10/1979888800306030001MARIA EDILANIA VIDAL PINHEIRO   000042250                    
208888800306037001ALEX DA SILVA AVELINO                 02871575380807/2018+0000000000066568C7XX15/12/1981888800306037001ALEX DA SILVA AVELINO           000042380                    
208888800306040001EDMILSON LIMA DOS SANTOS              09343036183407/2018+0000000000004198C7XX14/01/1956888800306040001EDMILSON LIMA DOS SANTOS        000042420                    
208888800306040002NIVALDA LIMA DOS SANTOS               01351388282307/2018+0000000000038658C7XX27/02/1948888800306040001EDMILSON LIMA DOS SANTOS        000042420                    
208888800306053010MELISSA SIMOES ALBANO                 05376628183607/2018+0000000000054008C7XX12/11/2017888800306053001CAMILA SIMOES ALBANO            000042680                    
208888800306066002MARCELO GONCALVES DA SILVA            01169556884207/2018+0000000000067418C7XX28/04/1972888800306066001MIRIAM VIEIRA PIRES SILVA       000042860                    
208888800306092010RAPHAEL ANDRADE DA SILVA              05069468383307/2018+0000000000009198C7XX24/09/2012888800306092001MAURICIO RODRIGUES DA SILVA     000043250                    
208888800306094002VANDA ROSA DOS REIS SILVA             02577775687507/2018+0000000000053058C7XX05/12/1971888800306094001JORGE PAULO CAMBUI SILVA        000043290                    
208888800306102001JULIANA MACHADO SILVA                 03179758384007/2018+0000000000035108C7XX02/01/1985888800306102001JULIANA MACHADO SILVA           000043420                    
208888800306110001VALMIRA CARMO DA SILVA HONORATO       01762483289507/2018+0000000000011148C7XX24/10/1973888800306110001VALMIRA CARMO DA SILVA HONORATO 000043520                    
208888800306111010GUILHERME FERREIRA BEZERRA            05188461889807/2018+0000000000052308C7XX02/12/2012888800306111001MICILENE DOS SANTOS BEZERRA     000043530                    
208888800306113001INGRID BARBOSA FERREIRA               03324411289707/2018+0000000000076658C7XX28/09/1993888800306113001INGRID BARBOSA FERREIRA         000043560                    
208888800306114010GISELE SIQUEIRA RICETO                04581447089507/2018+0000000000037258C7XX13/10/1992888800306114001ROBSON RICETO                   000043570                    
208888800306114011STEFANO ROBERTO DA SILVA B ELIAS      03884456482307/2018+0000000000037008C7XX12/11/1997888800306114001ROBSON RICETO                   000043570                    
208888800309640010LETICIA CAMPOS TAVARES                01303715660007/2018+0000000000006878C7XX25/05/2001888800309640001NELSON RAIMUNDO TAVARES NETO    000027670                    
208888800309764001LUCIANA NUNES ROCHA                   03802552482507/2018+0000000000323828C7XX09/08/1986888800309764001LUCIANA NUNES ROCHA             000043640                    
208888800309766001KAMILA JESSICA PEREIRA NOGUEIRA       00289616115507/2018+0000000000027008C7XX03/01/1988888800309766001KAMILA JESSICA PEREIRA NOGUEIRA 000043680                    
208888800309766010MARIA CLARA DIONISIO PEREIRA          00000000000007/2018+0000000000028368C7XX21/02/2013888800309766001KAMILA JESSICA PEREIRA NOGUEIRA 000043680                    
208888800309766011MARIA ALICE DIONISIO PEREIRA          00814904718207/2018+0000000000108908C7XX12/12/2016888800309766001KAMILA JESSICA PEREIRA NOGUEIRA 000043680                    
208888845225473010EDUARDA KEMILLY OLIVEIRA FARIAS 11700205167743486407/2018+0000000000038748C7XX28/08/2016888845225473001ANTONIO VAGNER FARIAS GOMES     000043650                    
208888845225481001CLAUDIO GONCALVES DA SILVA      11700803447068485607/2018+0000000000152038C7XX25/05/1986888845225481001CLAUDIO GONCALVES DA SILVA      000043710                    
208888845263104001THIAGO FERREIRA DE LIMA         33000601403489289707/2018+0000000000002328C7XX05/01/1975888845263104001THIAGO FERREIRA DE LIMA         000043900                    
208888845282343001VANESSA MIDORI IKEDA            22100103501599587307/2018+0000000000027008C7XX05/11/1986888845282343001VANESSA MIDORI IKEDA            000044110                    
208888845297454010TAMIRES GOMES CRUZ              11701203861423880007/2018+0000000000047028C7XX22/05/1996888845297454001ADRIANA GOMES BITU              000044210                    
208888845337016001ANDERSON ANDRE DA SILVA         11700402738193781607/2018+0000000000096288C7XX26/01/1980888845337016001ANDERSON ANDRE DA SILVA         000044520                    
208888845353855001BRUNA RIYUKA KANEKO OZAKI       11700203181494380307/2018+0000000000329668C7XX04/11/1983888845353855001BRUNA RIYUKA KANEKO OZAKI       000044710                    
208888845363146001PATRICIA COUTO PIMENTA          22000400479097470707/2018+0000000000173328C7XX26/02/1976888845363146001PATRICIA COUTO PIMENTA          000044780                    
208888845372090001ERINALVA PEREIRA ALVES NOGUEIRA 22000502534916688307/2018+0000000000079808C7XX19/02/1978888845372090001ERINALVA PEREIRA ALVES NOGUEIRA 000044870                    
208888845372096010AGNES RAMOS BELDA STOZEK        22200205323209380907/2018+0000000000027008C7XX17/07/2017888845372096001ROBERTO BELDA STOZEK            000044960                    
208888845390840002DARCI WEISS MOUSSA              22000803931966097207/2018+0000000000006778C7XX18/02/1960888845390840001ALAOR GODOFREDO MOUSSA JUNIOR   000045020                    
208888845390840010LUCAS WEISS MOUSSA              22000800873991192607/2018+0000000000083008C7XX06/10/1996888845390840001ALAOR GODOFREDO MOUSSA JUNIOR   000045020                    
208888845418119002CAMILA SCALDELAI MONTEIRO             03122059088607/2018+0000000000334688C7XX08/12/1982888845418119001RUBENS MONTEIRO OLIVEIRA        000045060                    
208888845432992001TATIANA BATISTA DA SILVA        11400103528091681107/2018+0000000000070868C7XX10/08/1987888845432992001TATIANA BATISTA DA SILVA        000045090                    
208888845432992010NICOLAS RODRIGUES BATISTA DA SIL11400105398024086007/2018+0000000000081008C7XX19/12/2017888845432992001TATIANA BATISTA DA SILVA        000045090                    
208888845468180001MARIA FABIANA ERNESTO           11701202773285883207/2018+0000000000045108C7XX05/06/1979888845468180001MARIA FABIANA ERNESTO           000045180                    
208888845483883011RAFAELA CORREA APOLINARIO       22000500000000000007/2018+0000000000063518C7XX17/06/2011888845483883001ANDERSON ALEX APOLINARIO        000045320                    
208888845503307010SOPHIA ROCHA LIMA               22000501550297465007/2018+0000000000005988C7XX13/12/2012888845503307001REGINALDO VEIGA LIMA            000045450                    
208888845503307011ESTHER ROCHA LIMA               22000501550299565807/2018+0000000000005988C7XX06/05/2015888845503307001REGINALDO VEIGA LIMA            000045450                    
208888845505190002PALOMA ALVES BARBOZA            22000503919733282807/2018+0000000000089288C7XX04/04/1990888845505190001LEANDRO DE OLIVEIRA STACH       000045420                    
208888845516062001JAQUELINE RODRIGUES PEREIRA     11200100224988336007/2018+0000000000042618C7XX26/11/1985888845516062001JAQUELINE RODRIGUES PEREIRA     000045570                    
208888845516062010RYAN RODRIGUES RAULINO          11200100000000000007/2018+0000000000043418C7XX19/02/2005888845516062001JAQUELINE RODRIGUES PEREIRA     000045570                    
208888845535211001ADRIANO BATISTA RAMOS                 01520579683907/2018+0000000000192788C7XX12/01/1972888845535211001ADRIANO BATISTA RAMOS           000045800                    
208888845563813001ANDREA DAS GRACAS P DE CARVALHO 22000400218203276207/2018+0000000000455248C7XX04/02/1972888845563813001ANDREA DAS GRACAS P DE CARVALHO 000046090                    
208888845573466001JULIANA QUEIROZ BRAVIN          11700202254651285407/2018+0000000000043778C7XX23/05/1984888845573466001JULIANA QUEIROZ BRAVIN          000046160                    
208888845588566002CAROLINE ALVAREZ SAVIOLI CORREA       02837540285007/2018+0000000000141868C7XX21/04/1977888845588566001DANIEL CORREA                   000046170                    
208888845595126002SILVIA HELENA DE FREITAS RESTINO      00827023189407/2018+0000000000061828C7XX07/08/1966888845595126001WAGNER LUCIO RESTINO            000046220                    
208888845601413002GISELLE MACHADO SANCHES               01332926274507/2018+0000000000029828C7XX24/07/1989888845601413001IGOR SANCHES SALES              000046260                    
208888845615009001RENATA BUSSAB P G DE ARAUJO           02764614586607/2018+0000000000027008C7XX18/08/1978888845615009001RENATA BUSSAB P G DE ARAUJO     000046320                    
208888845726320001PRISCILA SANDMANN OLIVEIRA      33001003953840380007/2018+0000000000027968C7XX17/11/1989888845726320001PRISCILA SANDMANN OLIVEIRA      000046710                    
208888845767138001ANA PAULA PEREIRA ALVES         22001002753445885407/2018+0000000000102298C7XX17/04/1978888845767138001ANA PAULA PEREIRA ALVES         000046840                    
208888845778590001CINTIA CORTEZ                   11700203601348780407/2018+0000000000014778C7XX10/05/1990888845778590001CINTIA CORTEZ                   000011090                    
208888845785940011GUILHERME FREITAS LEITE         22000402016832576407/2018+0000000000027008C7XX03/09/2017888845785940001ADELMO AUGUSTO TOLEDO LEITE     000046900                    
208888845787394001MARCOS ANTONIO SANTOS LIMA      11400104149175985207/2018+0000000000007158C7XX16/08/1994888845787394001MARCOS ANTONIO SANTOS LIMA      000045970                    
208888845806406010MANUELA BONFIM MACEDO           22000505102989081107/2018+0000000000108318C7XX10/02/2012888845806406001LUCIANO MACEDO                  000047110                    
208888845812941001ERASMO CARLOS NOBRIGA ARAUJO    11700701847916880307/2018+0000000000006348C7XX11/04/1974888845812941001ERASMO CARLOS NOBRIGA ARAUJO    000047150                    
208888845863847010RUBI RACTZ RAMALHO              22000505171719284007/2018+0000000000079218C7XX08/09/2016888845863847001RICARDO SANTOS RAMALHO          000046940                    
208888845892359001PATRICIA BENETE CUETO CAMARGO   22000502197181386907/2018+0000000000018008C7XX24/01/1981888845892359001PATRICIA BENETE CUETO CAMARGO   000047440                    
208888845899115001JACQUELINE NAVARRO DE QUEVEDO   22200204064349881807/2018+0000000000156788C7XX02/05/1991888845899115001JACQUELINE NAVARRO DE QUEVEDO   000047500                    
208888845899491001CECILIA GONCALVES SOARES        22200203681350680307/2018+0000000000006608C7XX19/08/1988888845899491001CECILIA GONCALVES SOARES        000047520                    
208888845899501011PEDRO LUCA LOPES COSTA          22000504514485985207/2018+0000000000027008C7XX31/01/2012888845899501001MARCEL SOARES COSTA             000047480                    
208888845950017002FLAVIO DIAS SEMIM JUNIOR        33000801329189680707/2018+0000000000062178C7XX17/10/1972888845950017001RITA DE CASSIA RABADJI          000047650                    
208888845950017010ANNA RABADJI ZORNOFF            33000805286743188307/2018+0000000000064648C7XX06/03/2004888845950017001RITA DE CASSIA RABADJI          000047650                    
208888845950017011REBECA RABADJI SEMIM            33000805286734782307/2018+0000000000056018C7XX31/07/2008888845950017001RITA DE CASSIA RABADJI          000047650                    
208888845954027001TATIANE VALETE                  33001004389048082907/2018+0000000000137038C7XX26/01/1995888845954027001TATIANE VALETE                  000047730                    
208888845954049010VALENTINA ROSA BARRETO FREIRE   22000400000000000007/2018+0000000000030008C7XX18/11/2017888845954049001MARCILENO DE FREITAS FREIRE     000047720                    
208888845954059002CLAUDIA MARMELO BENTO           22000400093001177507/2018+0000000000069828C7XX01/07/1970888845954059001ROGERIO VIEIRA BENTO            000047710                    
208888845954059010MARIANA MARMELO BENTO           22000401738143473307/2018+0000000000148828C7XX22/10/2002888845954059001ROGERIO VIEIRA BENTO            000047710                    
208888845959614001MARISTELA LIMA PLUMAS NASCIMENTO11700402730597182007/2018+0000000000214028C7XX16/04/1978888845959614001MARISTELA LIMA PLUMAS NASCIMENTO000047770                    
208888845967219001ALINE VILELA DE SIQUEIRA        33000803116394989207/2018+0000000000079538C7XX10/05/1984888845967219001ALINE VILELA DE SIQUEIRA        000047820                    
208888846010400001LETICIA SYBILLA BORGES PEDRO    33001003937724389007/2018+0000000000113248C7XX17/01/1994888846010400001LETICIA SYBILLA BORGES PEDRO    000047920                    
208888846010561001LILIAN ARAUJO CORREA            22100203319988689207/2018+0000000000023508C7XX02/09/1987888846010561001LILIAN ARAUJO CORREA            000047910                    
208888846069018010BEATRIZ SANTOS PEREIRA          22000401465113576507/2018+0000000000268428C7XX03/02/2000888846069018001ALYNE MACHADO DOS SANTOS PEREIRA000048530                    
208888846073301001LUANA CHIARADIA WOLFF BARREIROS 22100103803496586307/2018+0000000000028908C7XX06/01/1991888846073301001LUANA CHIARADIA WOLFF BARREIROS 000048780                    
208888846087294001LETICIA OLIVEIRA DE ROSSI       22100104677308586107/2018+0000000000087358C7XX28/02/1997888846087294001LETICIA OLIVEIRA DE ROSSI       000011160                    
208888846098184001DANIELLE BORGES DE CARVALHO     22000400534306071407/2018+0000000000096368C7XX05/01/1981888846098184001DANIELLE BORGES DE CARVALHO     000048990                    
208888846100805001VIVIANE DE LIMA                 22000503096189285407/2018+0000000000396748C7XX20/04/1981888846100805001VIVIANE DE LIMA                 000049040                    
208888846102679002NATALLIA SOARES SILVA CUSTODIO  22300203986594183007/2018+0000000000142738C7XX28/09/1991888846102679001SEMAIAS MAISTRO LEITE CUSTODIO  000049050                    
90+000000001220850000145                                                                                                                              
