1029/06/2018                             000000000000000                                                              000000000                       
208888800305721001JOSE CARLOS CARREIRA FILIPE           07200559970006/2018+0000000000040088C7XX23/09/1960888800305721001JOSE CARLOS CARREIRA FILIPE     000015530                    
208888800305721002VALERIA FERREIRA FILIPE               06919169770006/2018+0000000000104938C7XX21/09/1961888800305721001JOSE CARLOS CARREIRA FILIPE     000015530                    
208888800305722001BEATRIZ LARA APOLINARIO               02679373480606/2018+0000000000188418C7XX18/01/1978888800305722001BEATRIZ LARA APOLINARIO         000015660                    
208888800305723001MARIA INES CONTAR                     08111837682006/2018+0000000000316528C7XX03/07/1951888800305723001MARIA INES CONTAR               000016070                    
208888800305736001GLAUCO HENRIQUES MARQUES              01197529187506/2018+0000000000237168C7XX04/03/1969888800305736001GLAUCO HENRIQUES MARQUES        000020060                    
208888800305736002CLAUDIA ALEXANDRA MARTINS ROMAR       02541721684406/2018+0000000000169428C7XX08/04/1975888800305736001GLAUCO HENRIQUES MARQUES        000020060                    
208888800305736010GABRIELA ROMAR MARQUES                05156173888306/2018+0000000000164638C7XX05/12/2004888800305736001GLAUCO HENRIQUES MARQUES        000020060                    
208888800305736011FELIPE ROMAR MARQUES                  05156160484406/2018+0000000000197348C7XX04/10/2008888800305736001GLAUCO HENRIQUES MARQUES        000020060                    
208888800305736012GUILHERME ROMAR MARQUES               05156168086906/2018+0000000000200028C7XX04/10/2008888800305736001GLAUCO HENRIQUES MARQUES        000020060                    
208888800305745001GILBERTO DA ROCHA SANTOS              00448615487806/2018+0000000000006448C7XX13/03/1964888800305745001GILBERTO DA ROCHA SANTOS        000023160                    
208888800305745002MARIA DE FATIMA REBELO SANTOS         01487853980106/2018+0000000000149338C7XX03/01/1963888800305745001GILBERTO DA ROCHA SANTOS        000023160                    
208888800305749001PRISCILA ANTONIA A ARAUJO             02140549082906/2018+0000000000027008C7XX16/03/1981888800305749001PRISCILA ANTONIA A ARAUJO       000024080                    
208888800305752010MANUELA FERNANDES COELHO              04956847882506/2018+0000000000043288C7XX14/06/2014888800305752001ANA PAULA FERNANDES SANTANA     000024940                    
208888800305757001MARTA DE OLIVEIRA MELO TIGRE          03106550686406/2018+0000000000041148C7XX12/02/1983888800305757001MARTA DE OLIVEIRA MELO TIGRE    000025680                    
208888800305766001CLAUDIO CALMON DOS SANTOS             05433058050006/2018+0000000000417608C7XX25/03/1971888800305766001CLAUDIO CALMON DOS SANTOS       000027350                    
208888800305767010NICOLE MAIA DANTAS                    04986474588306/2018+0000000000283908C7XX09/05/2001888800305767001DANIELE MAIA SOUZA              000027420                    
208888800305776001ADEMAR DA SILVA FONTES JUNIOR         03471571086206/2018+0000000000007008C7XX30/04/1987888800305776001ADEMAR DA SILVA FONTES JUNIOR   000028910                    
208888800305776011LEONARDO ARAUJO FONTES                00000000000006/2018+0000000000034618C7XX22/07/2017888800305776001ADEMAR DA SILVA FONTES JUNIOR   000028910                    
208888800305781001GILBERTO FERNANDES GOMES              01800389582006/2018+0000000000040268C7XX22/06/1978888800305781001GILBERTO FERNANDES GOMES        000029750                    
208888800305781010JOAO VITOR FERNANDES GOMES            05043167882006/2018+0000000000045218C7XX20/07/2007888800305781001GILBERTO FERNANDES GOMES        000029750                    
208888800305791001ORLANDO SANTANA FALCAO                07936601554906/2018+0000000000005048C7XX05/01/1980888800305791001ORLANDO SANTANA FALCAO          000031310                    
208888800305791010ENZO SANDES FALCAO                    00833356151906/2018+0000000000044288C7XX13/10/2010888800305791001ORLANDO SANTANA FALCAO          000031310                    
208888800305792001MARIZA MOREIRA ALMEIDA CESAR          00553135481906/2018+0000000000056668C7XX15/03/1957888800305792001MARIZA MOREIRA ALMEIDA CESAR    000031350                    
208888800305793001ROSENI SANTOS MOURA                   03152585080606/2018+0000000000093668C7XX28/11/1983888800305793001ROSENI SANTOS MOURA             000031520                    
208888800305793010GUSTAVO MOURA DOS SANTOS              04814236689406/2018+0000000000191348C7XX17/09/2013888800305793001ROSENI SANTOS MOURA             000031520                    
208888800305795001CLAUDETE MARTINS                      01616544384206/2018+0000000000119428C7XX24/04/1973888800305795001CLAUDETE MARTINS                000031580                    
208888800305797002MARCOS JORGE NASSAR                   01761181289006/2018+0000000000121618C7XX27/10/1977888800305797001RITA FORMIGA NASSAR             000031710                    
208888800305799002WELLINGTON ZACCARELLI CAMPINEIRO      00658159984006/2018+0000000000078148C7XX20/08/1965888800305799001SARITA RUGGIERI Z CAMPINEIRO    000031760                    
208888800305804002ROMERO TEMPONI LEITE                  03201978566806/2018+0000000000044958C7XX24/07/1952888800305804001ELIANE CRISTINE THOT LEITE      000032270                    
208888800305805011SOFIA SUENAGA DIAS                    00000000000006/2018+0000000000106838C7XX12/03/2015888800305805001ADAINE SUENAGA                  000032290                    
208888800305806002ELENIR BARBOSA MATTIOLE               00606211780206/2018+0000000000042428C7XX01/06/1965888800305806001SILVIO LUCIANO MATTIOLE         000032320                    
208888800305810002THAIS CORREIA BIANCO KAPOR            02230658883006/2018+0000000000027008C7XX12/12/1978888800305810001MARCOS ANDRE KAPOR              000032620                    
208888800305812011GABRIELA MACHADO PEREIRA              05341712684306/2018+0000000000025538C7XX27/08/2017888800305812001GRACIELY PASCOAL MACHADO        000032780                    
208888800305825001RICARDO CHIODARO                      02805693183006/2018+0000000000198758C7XX05/04/1980888800305825001RICARDO CHIODARO                000034790                    
208888800305856002ELIANE RODRIGUES DA ROCHA             01896593380306/2018+0000000000086268C7XX19/12/1976888800305856001RONEY BERG BARROS PEREIRA       000036920                    
208888800305856011DAVI LOURENZO RODRIGUES PEREIRA       00000000000006/2018+0000000000185708C7XX10/11/2014888800305856001RONEY BERG BARROS PEREIRA       000036920                    
208888800305857001JOSE ROBERTO FELICIO DE MOURA         05953904673406/2018+0000000000033148C7XX03/09/1960888800305857001JOSE ROBERTO FELICIO DE MOURA   000036940                    
208888800305858001ROMULO BARBOSA DA CUNHA               00793545277606/2018+0000000000002978C7XX18/06/1979888800305858001ROMULO BARBOSA DA CUNHA         000036960                    
208888800305859001PRISCILA SILVA DE CASTRO              03012393889906/2018+0000000000027008C7XX26/08/1982888800305859001PRISCILA SILVA DE CASTRO        000036970                    
208888800305873001VERONICA SOARES BOMFIM GOMES          02893960189006/2018+0000000000174988C7XX21/01/1978888800305873001VERONICA SOARES BOMFIM GOMES    000037510                    
208888800305874001MARCIO CUSTODIO MENDES                03147568881406/2018+0000000000197778C7XX06/06/1982888800305874001MARCIO CUSTODIO MENDES          000037520                    
208888800305876001VALDELICE ARAGAO AMORIM               05391851750006/2018+0000000000007538C7XX27/11/1968888800305876001VALDELICE ARAGAO AMORIM         000037560                    
208888800305878001ADELMO MENEZES FRANCA                 00110142551206/2018+0000000000057828C7XX16/04/1984888800305878001ADELMO MENEZES FRANCA           000037730                    
208888800305894001FRANCISCO JOSE P DE OLIVEIRA          01197114181006/2018+0000000000036878C7XX24/04/1968888800305894001FRANCISCO JOSE P DE OLIVEIRA    000038270                    
208888800305895002MAYARA DOS SANTOS REIS LIMA           03890455980406/2018-0000000000004678C7XX26/06/1992888800305895001MILTON LUIZ FERREIRA LIMA       000038280                    
208888800305898001RENATA APOLINARIO DE CASTRO           02936187680506/2018+0000000000118948C7XX27/08/1980888800305898001RENATA APOLINARIO DE CASTRO     000038430                    
208888800305901001MARINA CRISTINA GOMES COELHO          03223073485706/2018+0000000000027008C7XX08/07/1979888800305901001MARINA CRISTINA GOMES COELHO    000038680                    
208888800305908001VANUSA FERREIRA D DE OLIVEIRA         02615033581006/2018+0000000000034478C7XX06/09/1968888800305908001VANUSA FERREIRA D DE OLIVEIRA   000038900                    
208888800305909001NURIA FURLAN HAMADA                   02691685780306/2018+0000000000035248C7XX19/11/1977888800305909001NURIA FURLAN HAMADA             000038910                    
208888800305910001SHEILA DA CRUZ NOVAES                 03437794680306/2018+0000000000248738C7XX23/07/1986888800305910001SHEILA DA CRUZ NOVAES           000039030                    
208888800305910010LETICIA CRUZ DOS SANTOS               00000000000006/2018+0000000000292798C7XX08/03/2001888800305910001SHEILA DA CRUZ NOVAES           000039030                    
208888800305917001VALERIA PASSOS GREGORIO               00524336385506/2018+0000000000059998C7XX30/05/1955888800305917001VALERIA PASSOS GREGORIO         000039300                    
208888800305921001ADRIANA DE OLIVEIRA                   02289681482506/2018+0000000000049248C7XX09/08/1984888800305921001ADRIANA DE OLIVEIRA             000039560                    
208888800305926001KELLY CRISTINA G CIPOLA PILATTI       02780414189006/2018+0000000000101398C7XX23/08/1978888800305926001KELLY CRISTINA G CIPOLA PILATTI 000039710                    
208888800305931001NATHALIA DAMINI MOREIRA               03663752380106/2018+0000000000163898C7XX28/11/1986888800305931001NATHALIA DAMINI MOREIRA         000039850                    
208888800305945001LUIZ CARLOS MOREIRA                   01164461486306/2018+0000000000032978C7XX05/04/1969888800305945001LUIZ CARLOS MOREIRA             000040370                    
208888800305948001MELISSA LOWE LEONI                    03918455084806/2018+0000000000032708C7XX19/03/1991888800305948001MELISSA LOWE LEONI              000040480                    
208888800305948002RAFAEL FRANCISCO LEONI                03386467687806/2018+0000000000083128C7XX04/08/1985888800305948001MELISSA LOWE LEONI              000040480                    
208888800305951001TELMA GOMES DA SILVA                  03712899882906/2018+0000000000139788C7XX15/05/1989888800305951001TELMA GOMES DA SILVA            000040520                    
208888800305951003RODRIGO GONCALVES TABOZA              03503143289606/2018+0000000000160098C7XX02/05/1987888800305951001TELMA GOMES DA SILVA            000040520                    
208888800305956001WESLLEY SIDNEY DE MELO SILVA          09246169743406/2018+0000000000143208C7XX06/08/1975888800305956001WESLLEY SIDNEY DE MELO SILVA    000040600                    
208888800305957001ISABELA DE LIMA SANTOS LYRA           01076353975906/2018+0000000000034768C7XX04/03/1983888800305957001ISABELA DE LIMA SANTOS LYRA     000040630                    
208888800305962010CAUAN DE ABREU CAVALCANTE             00893661350206/2018+0000000000041178C7XX23/05/2008888800305962001VERENA DE ABREU SACRAMENTO      000040840                    
208888800305963002JOANA CELIA VICENTINI                 00113681283006/2018+0000000000069418C7XX25/03/1961888800305963001JOSE ELIAS RODRIGUES            000040980                    
208888800305965002JUCILENE DA SILVA C C DOS SANTOS      02241001481006/2018+0000000000027008C7XX05/11/1983888800305965001ADRIANO CALIXTO COSTA DOS SANTOS000041000                    
208888800305968002JUSCELIA OLIVEIRA FREIRE MATOS        02618076583906/2018+0000000000022298C7XX27/09/1973888800305968001FRANCISCO MESQUITA MATOS        000041050                    
208888800305977001PAMELA FITTIPALDI                     03575050082906/2018+0000000000088138C7XX21/03/1987888800305977001PAMELA FITTIPALDI               000041280                    
208888800305980010STEPHANY EDUARDO MATTOS               00000000000006/2018+0000000000192058C7XX13/09/2007888800305980001WILLIAN DE MELO MATTOS          000041360                    
208888800305992002RODRIGO FELIX MONTEIRO                08679881210406/2018+0000000000079578C7XX02/07/1979888800305992001KELLY GOMES L GALVAO MONTEIRO   000041640                    
208888800305997003BRUNO BERTINI LOPES                   03898641180606/2018+0000000000113298C7XX09/11/1988888800305997001ARLENE FREIRE DA SILVA          000041740                    
208888800306003001SABRINA SOBRINHO BICALHO BRUM         03825476480806/2018+0000000000314508C7XX19/01/1990888800306003001SABRINA SOBRINHO BICALHO BRUM   000041830                    
208888800306004010THAIS FRAGOSO MARIA                   05234093280706/2018+0000000000027008C7XX24/01/2017888800306004001VANESSA FRAGOSO MAIA BRAGA      000041880                    
208888800306017001DENISE PELEGRINI VERONEZI             03625872480906/2018+0000000000230218C7XX28/10/1989888800306017001DENISE PELEGRINI VERONEZI       000042080                    
208888800306027001MARIA DO CARMO C DE L GOMES           07892941541506/2018+0000000000087138C7XX11/11/1970888800306027001MARIA DO CARMO C DE L GOMES     000042220                    
208888800306027010BIANCA CARVALHO GOMES                 00000000000006/2018+0000000000008738C7XX03/04/2002888800306027001MARIA DO CARMO C DE L GOMES     000042220                    
208888800306029001SANDRA SALES DE SOUSA SALES           03070515886106/2018+0000000000023008C7XX09/01/1980888800306029001SANDRA SALES DE SOUSA SALES     000042240                    
208888800306040002NIVALDA LIMA DOS SANTOS               01351388282306/2018+0000000000091078C7XX27/02/1948888800306040001EDMILSON LIMA DOS SANTOS        000042420                    
208888800306044012MARIA JULIA ALBUQUERQUE DA SILVA      00781512611106/2018+0000000000179298C7XX05/05/2016888800306044001MARIA APARECIDA DE ALBUQUERQUE  000042500                    
208888800306050011PEDRO SANCHES ALVARENGA               05284926781306/2018+0000000000027008C7XX29/08/2005888800306050001MARCIO DOS SANTOS ALVARENGA     000042610                    
208888800306053010MELISSA SIMOES ALBANO                 05376628183606/2018+0000000000027008C7XX12/11/2017888800306053001CAMILA SIMOES ALBANO            000042680                    
208888800306081001GISELE MASINI NASCIMENTO              02161112783106/2018+0000000000115518C7XX06/09/1980888800306081001GISELE MASINI NASCIMENTO        000043050                    
208888800306094002VANDA ROSA DOS REIS SILVA             02577775687506/2018+0000000000236048C7XX05/12/1971888800306094001JORGE PAULO CAMBUI SILVA        000043290                    
208888800306096001MIRIAN FONSECA MUTTI                  00857339486206/2018+0000000000253928C7XX30/05/1966888800306096001MIRIAN FONSECA MUTTI            000043310                    
208888800306102002GILBERTO PEREIRA DA SILVA             03413337483506/2018+0000000000019788C7XX23/02/1986888800306102001JULIANA MACHADO SILVA           000043420                    
208888800306111010GUILHERME FERREIRA BEZERRA            05188461889806/2018+0000000000048028C7XX02/12/2012888800306111001MICILENE DOS SANTOS BEZERRA     000043530                    
208888800306113001INGRID BARBOSA FERREIRA               03324411289706/2018+0000000000054168C7XX28/09/1993888800306113001INGRID BARBOSA FERREIRA         000043560                    
208888800306114011STEFANO ROBERTO DA SILVA B ELIAS      03884456482306/2018+0000000000021588C7XX12/11/1997888800306114001ROBSON RICETO                   000043570                    
208888800306114012ISABELLY BUENO ELIAS RICETO           04258406686606/2018+0000000000004228C7XX07/03/2008888800306114001ROBSON RICETO                   000043570                    
208888800309632002MARIA A DAVID ARAUJO                  01116543885206/2018+0000000000169228C7XX02/06/1964888800309632001JOAO ROBERTO DE ARAUJO          000022350                    
208888800309640010LETICIA CAMPOS TAVARES                01303715660006/2018+0000000000028988C7XX25/05/2001888800309640001NELSON RAIMUNDO TAVARES NETO    000027670                    
208888800309761011LEONARDO ROSALES RODRIGUES            05294337380006/2018+0000000000027008C7XX09/05/2017888800309761001ELIZABETH KRISTINA ROSALES      000043610                    
208888800309765001BEATRIZ GUIMARAES BORGES              04025138689906/2018+0000000000051088C7XX22/01/1993888800309765001BEATRIZ GUIMARAES BORGES        000043660                    
208888800309766001KAMILA JESSICA PEREIRA NOGUEIRA       00289616115506/2018+0000000000066078C7XX03/01/1988888800309766001KAMILA JESSICA PEREIRA NOGUEIRA 000043680                    
208888800309766010MARIA CLARA DIONISIO PEREIRA          00000000000006/2018+0000000000039008C7XX21/02/2013888800309766001KAMILA JESSICA PEREIRA NOGUEIRA 000043680                    
208888800309766011MARIA ALICE DIONISIO PEREIRA          00814904718206/2018+0000000000155948C7XX12/12/2016888800309766001KAMILA JESSICA PEREIRA NOGUEIRA 000043680                    
208888845225473001ANTONIO VAGNER FARIAS GOMES     11700203639645383506/2018+0000000000054008C7XX12/03/1989888845225473001ANTONIO VAGNER FARIAS GOMES     000043650                    
208888845225473010EDUARDA KEMILLY OLIVEIRA FARIAS 11700205167743486406/2018+0000000000111998C7XX28/08/2016888845225473001ANTONIO VAGNER FARIAS GOMES     000043650                    
208888845225481001CLAUDIO GONCALVES DA SILVA      11700803447068485606/2018+0000000000072458C7XX25/05/1986888845225481001CLAUDIO GONCALVES DA SILVA      000043710                    
208888845232305001VANESSA DA FONSECA ROSAS        11700203683560185006/2018+0000000000039468C7XX08/07/1988888845232305001VANESSA DA FONSECA ROSAS        000043720                    
208888845245800001CRISTIANE PINHEIRO LIMA         22202002575506387706/2018+0000000000103538C7XX28/02/1976888845245800001CRISTIANE PINHEIRO LIMA         000043820                    
208888845282343001VANESSA MIDORI IKEDA            22100103501599587306/2018+0000000000125768C7XX05/11/1986888845282343001VANESSA MIDORI IKEDA            000044110                    
208888845297454001ADRIANA GOMES BITU              11701202821651686006/2018+0000000000054008C7XX16/11/1978888845297454001ADRIANA GOMES BITU              000044210                    
208888845297454010TAMIRES GOMES CRUZ              11701203861423880006/2018+0000000000027008C7XX22/05/1996888845297454001ADRIANA GOMES BITU              000044210                    
208888845314760001ALINE RIBAS LEMES DE ALMEIDA    22100103723429289606/2018+0000000000027008C7XX03/10/1990888845314760001ALINE RIBAS LEMES DE ALMEIDA    000044330                    
208888845337016001ANDERSON ANDRE DA SILVA         11700402738193781606/2018+0000000000155198C7XX26/01/1980888845337016001ANDERSON ANDRE DA SILVA         000044520                    
208888845353821002CLAUDIA DOS SANTOS CODOGNATO    22000501440786283106/2018+0000000000059578C7XX20/06/1970888845353821001MARCELO RUIZ DA COSTA           000044660                    
208888845353843001CASSIO CLEIR BATISTA            22000507129006064906/2018+0000000000041918C7XX22/05/1968888845353843001CASSIO CLEIR BATISTA            000044670                    
208888845353843002LUCIA GRITTI BATISTA            22000502539916988606/2018+0000000000200398C7XX14/04/1976888845353843001CASSIO CLEIR BATISTA            000044670                    
208888845363146001PATRICIA COUTO PIMENTA          22000400479097470706/2018+0000000000022328C7XX26/02/1976888845363146001PATRICIA COUTO PIMENTA          000044780                    
208888845372096010AGNES RAMOS BELDA STOZEK        22200205323209380906/2018+0000000000086988C7XX17/07/2017888845372096001ROBERTO BELDA STOZEK            000044960                    
208888845390840002DARCI WEISS MOUSSA              22000803931966097206/2018+0000000000019558C7XX18/02/1960888845390840001ALAOR GODOFREDO MOUSSA JUNIOR   000045020                    
208888845418119002CAMILA SCALDELAI MONTEIRO             03122059088606/2018+0000000000106378C7XX08/12/1982888845418119001RUBENS MONTEIRO OLIVEIRA        000045060                    
208888845420100012GABRIELA MARQUES DE OLIVEIRA          04385374082006/2018+0000000000006888C7XX22/09/2001888845420100001LIGIA ROSA DA SILVA OLIVEIRA    000037970                    
208888845432992010NICOLAS RODRIGUES BATISTA DA SIL11400105398024086006/2018+0000000000021348C7XX19/12/2017888845432992001TATIANA BATISTA DA SILVA        000045090                    
208888845432996001PRISCILA MATOS DE AQUINO        11700304067680686406/2018+0000000000006818C7XX16/12/1991888845432996001PRISCILA MATOS DE AQUINO        000045100                    
208888845468180001MARIA FABIANA ERNESTO           11701202773285883206/2018+0000000000020188C7XX05/06/1979888845468180001MARIA FABIANA ERNESTO           000045180                    
208888845483883010JOICY CORREA APOLINARIO         22000504845917980006/2018+0000000000139598C7XX19/12/2000888845483883001ANDERSON ALEX APOLINARIO        000045320                    
208888845505190002PALOMA ALVES BARBOZA            22000503919733282806/2018+0000000000054008C7XX04/04/1990888845505190001LEANDRO DE OLIVEIRA STACH       000045420                    
208888845516062010RYAN RODRIGUES RAULINO          11200100000000000006/2018+0000000000151018C7XX19/02/2005888845516062001JAQUELINE RODRIGUES PEREIRA     000045570                    
208888845518502001EDUARDO ALVES ASSIS             22000502277759384106/2018+0000000000027008C7XX22/05/1985888845518502001EDUARDO ALVES ASSIS             000045650                    
208888845518502002ALESSANDRA NEGRELI              22000502980369888506/2018+0000000000141218C7XX15/11/1982888845518502001EDUARDO ALVES ASSIS             000045650                    
208888845563813001ANDREA DAS GRACAS P DE CARVALHO 22000400218203276206/2018+0000000000027008C7XX04/02/1972888845563813001ANDREA DAS GRACAS P DE CARVALHO 000046090                    
208888845563813010INGRID PEREIRA DE CARVALHO      22000401724974173006/2018+0000000000260618C7XX26/10/1998888845563813001ANDREA DAS GRACAS P DE CARVALHO 000046090                    
208888845563825001MARCO ANTONIO VASCONCELOS LESSA 22000400522183670006/2018+0000000000140058C7XX06/12/1975888845563825001MARCO ANTONIO VASCONCELOS LESSA 000046100                    
208888845563825002ROCHANE BORGES SIMAS            22000400884200876106/2018+0000000000010818C7XX23/02/1981888845563825001MARCO ANTONIO VASCONCELOS LESSA 000046100                    
208888845563825011LUCA SIMAS LESSA                22000401937355071306/2018+0000000000043808C7XX23/11/2009888845563825001MARCO ANTONIO VASCONCELOS LESSA 000046100                    
208888845573466001JULIANA QUEIROZ BRAVIN          11700202254651285406/2018+0000000000021278C7XX23/05/1984888845573466001JULIANA QUEIROZ BRAVIN          000046160                    
208888845588566001DANIEL CORREA                         01743996284206/2018+0000000000022868C7XX05/09/1974888845588566001DANIEL CORREA                   000046170                    
208888845595126002SILVIA HELENA DE FREITAS RESTINO      00827023189406/2018+0000000000079138C7XX07/08/1966888845595126001WAGNER LUCIO RESTINO            000046220                    
208888845601413002GISELLE MACHADO SANCHES               01332926274506/2018+0000000000207468C7XX24/07/1989888845601413001IGOR SANCHES SALES              000046260                    
208888845601413010CAUA MACHADO SANCHES                  01752774175906/2018+0000000000025538C7XX16/07/2013888845601413001IGOR SANCHES SALES              000046260                    
208888845601425001GLAUCIANE SOUZA MOREIRA               01200822170906/2018+0000000000027008C7XX24/11/1985888845601425001GLAUCIANE SOUZA MOREIRA         000046270                    
208888845615009001RENATA BUSSAB P G DE ARAUJO           02764614586606/2018+0000000000027008C7XX18/08/1978888845615009001RENATA BUSSAB P G DE ARAUJO     000046320                    
208888845700413001JOAO ELI DE SOUZA               11100103536549489006/2018+0000000000063118C7XX05/07/1985888845700413001JOAO ELI DE SOUZA               000046600                    
208888845726320001PRISCILA SANDMANN OLIVEIRA      33001003953840380006/2018+0000000000008108C7XX17/11/1989888845726320001PRISCILA SANDMANN OLIVEIRA      000046710                    
208888845733375001THAYNA FABRICIO DE SOUZA              01460786971606/2018+0000000000005488C7XX04/10/1992888845733375001THAYNA FABRICIO DE SOUZA        000046740                    
208888845744905001ALINE DE SOUSA SILVA            33000803573164480206/2018+0000000000044258C7XX28/04/1989888845744905001ALINE DE SOUSA SILVA            000011070                    
208888845763014002EULANE CIRINA OLIVEIRA          22000504397935386906/2018+0000000000025538C7XX20/03/1993888845763014001GLEIDSON NORONHA DOS SANTOS     000046830                    
208888845763028001PEDRO HENRIQUE XAVIER CARVALHO  22000503414992787106/2018+0000000000053338C7XX01/01/1987888845763028001PEDRO HENRIQUE XAVIER CARVALHO  000046800                    
208888845767138001ANA PAULA PEREIRA ALVES         22001002753445885406/2018+0000000000079208C7XX17/04/1978888845767138001ANA PAULA PEREIRA ALVES         000046840                    
208888845787394001MARCOS ANTONIO SANTOS LIMA      11400104149175985206/2018+0000000000002528C7XX16/08/1994888845787394001MARCOS ANTONIO SANTOS LIMA      000045970                    
208888845812941001ERASMO CARLOS NOBRIGA ARAUJO    11700701847916880306/2018+0000000000055238C7XX11/04/1974888845812941001ERASMO CARLOS NOBRIGA ARAUJO    000047150                    
208888845817895001JACQUELINE ROSILEI LOURENCO           04303221783006/2018+0000000000039318C7XX30/08/1995888845817895001JACQUELINE ROSILEI LOURENCO     000047170                    
208888845844308001PATRICIA JUNKO NAGAMINE               01293218480606/2018+0000000000027008C7XX06/05/1970888845844308001PATRICIA JUNKO NAGAMINE         000047290                    
208888845863847010RUBI RACTZ RAMALHO              22000505171719284006/2018+0000000000054008C7XX08/09/2016888845863847001RICARDO SANTOS RAMALHO          000046940                    
208888845892349001DANIELLY GRAZIELLA DE S PEREIRA 22000502738243789206/2018+0000000000142558C7XX05/10/1977888845892349001DANIELLY GRAZIELLA DE S PEREIRA 000047450                    
208888845899501002FLAVIA MARIA DOS SANTOS LOPES   22000503004912384006/2018+0000000000054008C7XX22/02/1980888845899501001MARCEL SOARES COSTA             000047480                    
208888845899501011PEDRO LUCA LOPES COSTA          22000504514485985206/2018+0000000000032678C7XX31/01/2012888845899501001MARCEL SOARES COSTA             000047480                    
208888845905235001THAYANE APARECIDA MOREIRA       22202003885687380006/2018+0000000000067538C7XX22/08/1991888845905235001THAYANE APARECIDA MOREIRA       000047470                    
208888845913756001ANNA KAROLINA DE MEDEIROS SILVA 22000401204916470006/2018+0000000000162558C7XX02/06/1988888845913756001ANNA KAROLINA DE MEDEIROS SILVA 000047610                    
208888845916588001KATIA DE OLIVEIRA FERREIRA      22200201403030383806/2018+0000000000046608C7XX15/04/1972888845916588001KATIA DE OLIVEIRA FERREIRA      000047620                    
208888845916588002SILVIO ANTONIO MIGUEL           22200201316203883906/2018+0000000000018928C7XX09/04/1965888845916588001KATIA DE OLIVEIRA FERREIRA      000047620                    
208888845954045001JAQUELINE SALETE RIBEIRO FREIRE 22000400140491775606/2018+0000000000025738C7XX03/09/1971888845954045001JAQUELINE SALETE RIBEIRO FREIRE 000047680                    
208888845967219001ALINE VILELA DE SIQUEIRA        33000803116394989206/2018+0000000000127988C7XX10/05/1984888845967219001ALINE VILELA DE SIQUEIRA        000047820                    
208888845991521001BARBARA LAMENHA MARCIEN DE SOUZA      04104858285006/2018+0000000000185408C7XX17/06/1991888845991521001BARBARA LAMENHA MARCIEN DE SOUZA000047830                    
208888846016979001KARLA LENINA FIEL GORNATI       22000203653616280306/2018+0000000000182788C7XX06/07/1985888846016979001KARLA LENINA FIEL GORNATI       000048430                    
208888846055102002ELIANE GONCALVES PAVAO MAGGIONI 22000407955577272006/2018+0000000000004668C7XX18/01/1964888846055102001VICTOR NEVES MAGGIONI           000048550                    
208888846059281010SOFIA SALIBA MELO               33001205355750788206/2018+0000000000055258C7XX01/01/2017888846059281001JULIANA SILVA ARAUJO SALIBA     000048680                    
90+000000001370363000158                                                                                                                              
