1028/02/2018                             000000000000000                                                              000000000                       
208888800305723001MARIA INES CONTAR                     08111837682002/2018+0000000000024198C7XX03/07/1951888800305723001MARIA INES CONTAR               000016070                    
208888800305723002CARLOS RICARDO PEREIRA                08970898980002/2018+0000000000149288C7XX16/08/1956888800305723001MARIA INES CONTAR               000016070                    
208888800305728010HENRIQUE ANDRADE ALVES ARAUJO         00000000000002/2018+0000000000011468C7XX28/04/2007888800305728001ARICERIO ALVES DE ARAUJO        000017690                    
208888800305737002LECIO GREGORIO DA SILVA               02850100188002/2018+0000000000033168C7XX18/07/1981888800305737001DANIELE CONCEICAO DE SOUZA      000020620                    
208888800305738010VITOR HUGO PEREIRA                    04661059182202/2018+0000000000006148C7XX19/12/1997888800305738001FLAVIO RODRIGUES DOS SANTOS     000021280                    
208888800305743001MARCIA CRISTINA DA COSTA              01357878486902/2018+0000000000043508C7XX23/03/1971888800305743001MARCIA CRISTINA DA COSTA        000022880                    
208888800305745001GILBERTO DA ROCHA SANTOS              00448615487802/2018+0000000000027008C7XX13/03/1964888800305745001GILBERTO DA ROCHA SANTOS        000023160                    
208888800305745002MARIA DE FATIMA REBELO SANTOS         01487853980102/2018+0000000000056218C7XX03/01/1963888800305745001GILBERTO DA ROCHA SANTOS        000023160                    
208888800305747001JULIA SHIZUE KAWASHIMA                00540855782002/2018+0000000000017838C7XX14/06/1959888800305747001JULIA SHIZUE KAWASHIMA          000023500                    
208888800305749001PRISCILA ANDRADE ARAUJO               02140549082902/2018+0000000000027008C7XX16/03/1981888800305749001PRISCILA ANDRADE ARAUJO         000024080                    
208888800305752002MARCOS ELIAS DA SILVA COELHO          00756978661002/2018+0000000000013478C7XX27/08/1983888800305752001ANA PAULA FERNANDES SANTANA     000024940                    
208888800305755002JOAO CARLOS LEITE FONTES              00594052084702/2018+0000000000027008C7XX05/07/1966888800305755001DAYSE CRISTINA DIAS FONTES      000025250                    
208888800305755010LUCAS DIAS FONTES                     05241239880102/2018+0000000000049948C7XX22/09/2003888800305755001DAYSE CRISTINA DIAS FONTES      000025250                    
208888800305755011RAFAEL DIAS FONTES                    00000000000002/2018+0000000000054008C7XX07/10/2007888800305755001DAYSE CRISTINA DIAS FONTES      000025250                    
208888800305760001MARLUCIA JACINTO DUARTE               00174666438002/2018+0000000000027008C7XX27/06/1985888800305760001MARLUCIA JACINTO DUARTE         000026000                    
208888800305760010MARIA JULIA DUARTE TORRES             00174666438002/2018+0000000000019808C7XX27/07/2017888800305760001MARLUCIA JACINTO DUARTE         000026000                    
208888800305763002ADRIANA KUKLI PEDRONI                 02515611389302/2018+0000000000013868C7XX05/08/1975888800305763001ALFREDO ARAUJO PEDRONI          000026740                    
208888800305766001CLAUDIO CALMON DOS SANTOS             05433058050002/2018+0000000000740448C7XX25/03/1971888800305766001CLAUDIO CALMON DOS SANTOS       000027350                    
208888800305766002ROSEMEIRE FERREIRA DA SILVA           04221765259102/2018+0000000000257898C7XX11/11/1966888800305766001CLAUDIO CALMON DOS SANTOS       000027350                    
208888800305767002WILLIAM NUNES CAPIM                   03108068288002/2018+0000000000103698C7XX26/08/1982888800305767001DANIELE MAIA SOUZA              000027420                    
208888800305774002TANIA BARBOSA DE ASSIS CARDOSO        01252390882402/2018+0000000000027008C7XX29/08/1966888800305774001WANDERLEI ROSARIO DA SILVA      000028310                    
208888800305776002KARINA SEVERIANO ARAUJO FONTES        03315653380702/2018+0000000000027008C7XX15/01/1984888800305776001ADEMAR DA SILVA FONTES JUNIOR   000028910                    
208888800305781002FERNANDA LIMA FERNANDES GOMES         02998612687802/2018+0000000000009028C7XX29/01/1980888800305781001GILBERTO FERNANDES GOMES        000029750                    
208888800305793001ROSENI SANTOS MOURA                   03152585080602/2018+0000000000050008C7XX28/11/1983888800305793001ROSENI SANTOS MOURA             000031520                    
208888800305793010GUSTAVO MOURA DOS SANTOS              00000000000002/2018+0000000000012868C7XX17/09/2013888800305793001ROSENI SANTOS MOURA             000031520                    
208888800305797002MARCOS JORGE NASSAR                   01761181289002/2018+0000000000098548C7XX27/10/1977888800305797001RITA FORMIGA NASSAR             000031710                    
208888800305799002WELLINGTON ZACCARELLI CAMPINEIRO      00658159984002/2018+0000000000080468C7XX20/08/1965888800305799001SARITA RUGGIERI Z CAMPINEIRO    000031760                    
208888800305799010BARBARA RUGGIERI Z CAMPINEIRO         00000000000002/2018+0000000000036678C7XX16/11/2005888800305799001SARITA RUGGIERI Z CAMPINEIRO    000031760                    
208888800305799011ISABELLE RUGGIERI Z CAMPINEIRO        00000000000002/2018+0000000000036678C7XX16/11/2005888800305799001SARITA RUGGIERI Z CAMPINEIRO    000031760                    
208888800305808001DEBORA SCHOEPS DE OLIVEIRA            02534551388002/2018+0000000000085368C7XX13/06/1974888800305808001DEBORA SCHOEPS DE OLIVEIRA      000032600                    
208888800305810002THAIS CORREIA BIANCO KAPOR            02230658883002/2018+0000000000054188C7XX12/12/1978888800305810001MARCOS ANDRE KAPOR              000032620                    
208888800305825001RICARDO CHIODARO                      02805693183002/2018+0000000000006538C7XX05/04/1980888800305825001RICARDO CHIODARO                000034790                    
208888800305856002ELIANE RODRIGUES DA ROCHA             01896593380302/2018+0000000000399328C7XX19/12/1976888800305856001RONEY BERG BARROS PEREIRA       000036920                    
208888800305857001JOSE ROBERTO FELICIO DE MOURA         05953904673402/2018+0000000000083608C7XX03/09/1960888800305857001JOSE ROBERTO FELICIO DE MOURA   000036940                    
208888800305858002CARLA DE PAULA AMENO                  00693254874702/2018+0000000000026468C7XX06/07/1976888800305858001ROMULO BARBOSA DA CUNHA         000036960                    
208888800305859001PRISCILA SILVA DE CASTRO              03012393889902/2018+0000000000054008C7XX26/08/1982888800305859001PRISCILA SILVA DE CASTRO        000036970                    
208888800305865002CARLANE DA SILVA NASCIMENTO           00418385351602/2018+0000000000077708C7XX14/06/1989888800305865001MICHEL ANGELO SANTOS SILVA      000037230                    
208888800305878001ADELMO MENEZES FRANCA                 00110142551202/2018+0000000000057338C7XX16/04/1984888800305878001ADELMO MENEZES FRANCA           000037730                    
208888800305878010SOPHIA NAVARRO FRANCA                 00000000000002/2018+0000000000113228C7XX30/06/2014888800305878001ADELMO MENEZES FRANCA           000037730                    
208888800305880002LUCIDALVA BRITO SILVA                 02762531080902/2018+0000000000118478C7XX15/05/1971888800305880001CICERO DE JESUS SANTOS          000037920                    
208888800305891001ARLEIA ARAUJO SANTOS                  00236684450602/2018+0000000000188568C7XX24/09/1984888800305891001ARLEIA ARAUJO SANTOS            000038230                    
208888800305894002ELCIA MARIA PEGORIN DE OLIVEIRA       01005352186202/2018+0000000000054008C7XX08/08/1968888800305894001FRANCISCO JOSE P DE OLIVEIRA    000038270                    
208888800305894010LORENA PEGORIN DE OLIVEIRA            00000000000002/2018+0000000000027008C7XX04/02/2007888800305894001FRANCISCO JOSE P DE OLIVEIRA    000038270                    
208888800305896010MARIA EDUARDA DOS SANTOS LIMA         00000000000002/2018+0000000000054008C7XX20/02/2014888800305896001HELEN GRISOTO LIMA              000038350                    
208888800305898001RENATA APOLINARIO DE CASTRO           02936187680502/2018+0000000000071898C7XX27/08/1980888800305898001RENATA APOLINARIO DE CASTRO     000038430                    
208888800305917001VALERIA PASSOS GREGORIO               00524336385502/2018+0000000000179348C7XX30/05/1955888800305917001VALERIA PASSOS GREGORIO         000039300                    
208888800305920001LIVIA DE ANDRADE                      02852588285202/2018+0000000000027008C7XX01/11/1980888800305920001LIVIA DE ANDRADE                000039480                    
208888800305921001ADRIANA DE OLIVEIRA                   02289681482502/2018+0000000000019698C7XX09/08/1984888800305921001ADRIANA DE OLIVEIRA             000039560                    
208888800305921010ARTHUR DE OLIVEIRA MELO               00000000000002/2018+0000000000027008C7XX06/12/2016888800305921001ADRIANA DE OLIVEIRA             000039560                    
208888800305932002JULIANA RIBAS GALVAO MUNIZ            00039629651302/2018+0000000000052838C7XX02/12/1983888800305932001EDIGTON ARAUJO MUNIZ JUNIOR     000039880                    
208888800305941001THAIS OLIVEIRA SILVA DE SA            08252380050002/2018+0000000000403058C7XX01/05/1982888800305941001THAIS OLIVEIRA SILVA DE SA      000040240                    
208888800305945001LUIZ CARLOS MOREIRA                   01164461486302/2018+0000000000027008C7XX05/04/1969888800305945001LUIZ CARLOS MOREIRA             000040370                    
208888800305945002ROSIMEIRE DOS SANTOS MOREIRA          00542660660902/2018+0000000000052928C7XX19/09/1982888800305945001LUIZ CARLOS MOREIRA             000040370                    
208888800305952001MARCELA ARANTES DA SILVA DIAS         01018991875602/2018+0000000000054008C7XX03/05/1984888800305952001MARCELA ARANTES DA SILVA DIAS   000040550                    
208888800305952010LUCAS ARANTES DE MENEZES              00000000000002/2018+0000000000027008C7XX03/09/2015888800305952001MARCELA ARANTES DA SILVA DIAS   000040550                    
208888800305962001VERENA DE ABREU SACRAMENTO            00078839351002/2018+0000000000045068C7XX08/01/1983888800305962001VERENA DE ABREU SACRAMENTO      000040840                    
208888800305963002JOANA CELIA VICENTINI                 00113681283002/2018+0000000000110848C7XX25/03/1961888800305963001JOSE ELIAS RODRIGUES            000040980                    
208888800305967002CARLOS ALBERTO A DE AMORIM            00286182181702/2018+0000000000027008C7XX12/10/1961888800305967001SELMA APARECIDA ZAMBIANCO AMORIM000041020                    
208888800305968002JUSCELIA OLIVEIRA FREIRE MATOS        02618076583902/2018+0000000000030798C7XX27/09/1973888800305968001FRANCISCO MESQUITA MATOS        000041050                    
208888800305974001PRISCILLA FERNANDA MAEDA              03684327883302/2018+0000000000064118C7XX23/02/1987888800305974001PRISCILLA FERNANDA MAEDA        000041220                    
208888800305978001MARIA APARECIDA LUCAS                 09670610460402/2018+0000000000066838C7XX12/02/1976888800305978001MARIA APARECIDA LUCAS           000041290                    
208888800305980002ADRIANA DA ROCHA EDUARDO MATTOS       00990433170702/2018+0000000000072168C7XX08/09/1982888800305980001WILLIAN DE MELO MATTOS          000041360                    
208888800305983001FABIO RICHARD VIEIRA DOS SANTOS       03601515180302/2018+0000000000062628C7XX12/08/1988888800305983001FABIO RICHARD VIEIRA DOS SANTOS 000041500                    
208888800305998010ANA ELISA DIRICKSON PEREIRA           00000000000002/2018+0000000000014108C7XX28/08/2009888800305998001ALESSANDRA ROTTNER D C PEREIRA  000041750                    
208888800306003001SABRINA SOBRINHO BICALHO BRUM         03825476480802/2018+0000000000087428C7XX19/01/1990888800306003001SABRINA SOBRINHO BICALHO BRUM   000041830                    
208888800306004010THAIS FRAGOSO MARIA                   05234093280702/2018+0000000000049658C7XX24/01/2017888800306004001VANESSA FRAGOSO MAIA BRAGA MARIA000041880                    
208888800306006001CRISTINA SANTOS CRUZ BRITO            03081494389602/2018+0000000000027828C7XX07/11/1982888800306006001CRISTINA SANTOS CRUZ BRITO      000041940                    
208888800306008001MARFIZA PEREIRA DAMACENA              01050848284402/2018+0000000000074558C7XX26/11/1964888800306008001MARFIZA PEREIRA DAMACENA        000041960                    
208888800306016001CAMILA SILVA DO NASCIMENTO            03730378589202/2018+0000000000057448C7XX21/08/1988888800306016001CAMILA SILVA DO NASCIMENTO      000042070                    
208888800306020010ANA LUCIA M G DA SILVA RIBEIRO        00000000000002/2018+0000000000034618C7XX08/03/2012888800306020001DANILO DA SILVA RIBEIRO         000042110                    
208888800306026001PATRICIA APARECIDA P JERONYMO         03195043785002/2018+0000000000054008C7XX04/10/1983888800306026001PATRICIA APARECIDA P JERONYMO   000042210                    
208888800306027010BIANCA CARVALHO GOMES                 00000000000002/2018+0000000000027008C7XX03/04/2002888800306027001MARIA DO CARMO C DE L GOMES     000042220                    
208888800306030001MARIA EDILANIA VIDAL PINHEIRO         02785039580802/2018+0000000000088398C7XX24/10/1979888800306030001MARIA EDILANIA VIDAL PINHEIRO   000042250                    
208888800306035001ANY CARLA DOS SANTOS LAMEIRAS         00753189674502/2018+0000000000033848C7XX27/12/1977888800306035001ANY CARLA DOS SANTOS LAMEIRAS   000042360                    
208888800306044001MARIA APARECIDA DE ALBUQUERQUE        07203725316802/2018+0000000000027008C7XX17/05/1982888800306044001MARIA APARECIDA DE ALBUQUERQUE  000042500                    
208888800306048001NATALYA RAVYELLE GOIS SOUZA           03804198880602/2018+0000000000184178C7XX30/06/1990888800306048001NATALYA RAVYELLE GOIS SOUZA     000042570                    
208888800306050002JOSEANE CROTT SANCHES ALVARENGA       01841035580902/2018+0000000000027008C7XX27/08/1973888800306050001MARCIO DOS SANTOS ALVARENGA     000042610                    
208888800306052001THAIS CRISTINA K KRACOCHANSKY         01163030589802/2018+0000000000022868C7XX04/05/1969888800306052001THAIS CRISTINA K KRACOCHANSKY   000042670                    
208888800306081001GISELE MASINI NASCIMENTO              02161112783102/2018+0000000000089448C7XX06/09/1980888800306081001GISELE MASINI NASCIMENTO        000043050                    
208888800306091001IRIS SOARES MARTINS CAPELAO           03537484283802/2018+0000000000069038C7XX21/11/1987888800306091001IRIS SOARES MARTINS CAPELAO     000043240                    
208888800306093001CAMILA RODRIGUES LEITE ESTEVES        03663934586202/2018+0000000000023408C7XX19/12/1986888800306093001CAMILA RODRIGUES LEITE ESTEVES  000043270                    
208888800306096001MIRIAN FONSECA MUTTI                  00857339486202/2018+0000000000027008C7XX30/05/1966888800306096001MIRIAN FONSECA MUTTI            000043310                    
208888800306100011DAVI LUAN DA COSTA SILVA              00000000000002/2018+0000000000165928C7XX12/12/2012888800306100001ALESSANDRO DA SILVA             000043380                    
208888800306102001JULIANA MACHADO SILVA                 03179758384002/2018+0000000000027008C7XX02/01/1985888800306102001JULIANA MACHADO SILVA           000043420                    
208888800306108010MAYARA OLIVEIRA SILVEIRA              00000000000002/2018+0000000000027008C7XX03/02/2000888800306108001LUCIANA MARCIA DE OLIVEIRA      000043480                    
208888800306110001VALMIRA CARMO DA SILVA HONORATO       01762483289502/2018+0000000000538788C7XX24/10/1973888800306110001VALMIRA CARMO DA SILVA HONORATO 000043520                    
208888800306111003FABIO FERREIRA COSTA                  01847331289902/2018+0000000000014378C7XX30/06/1976888800306111001MICILENE DOS SANTOS BEZERRA     000043530                    
208888800306111010GUILHERME FERREIRA BEZERRA            00000000000002/2018+0000000000030038C7XX02/12/2012888800306111001MICILENE DOS SANTOS BEZERRA     000043530                    
208888800306113001INGRID BARBOSA FERREIRA               03324411289702/2018+0000000000005918C7XX28/09/1993888800306113001INGRID BARBOSA FERREIRA         000043560                    
208888800306114002CRISTIANE BUENO ELIAS RICETO          02807419887102/2018+0000000000202248C7XX15/10/1978888800306114001ROBSON RICETO                   000043570                    
208888800306114012ISABELLY BUENO ELIAS RICETO           04258406686602/2018+0000000000026728C7XX07/03/2008888800306114001ROBSON RICETO                   000043570                    
208888800306114013TATIANE BUENO ELIAS RICETO            00000000000002/2018+0000000000026728C7XX21/07/2014888800306114001ROBSON RICETO                   000043570                    
208888800309632002MARIA DAVID ARAUJO                    01116543885202/2018+0000000000208478C7XX02/06/1964888800309632001JOAO ROBERTO DE ARAUJO          000022350                    
208888800309761011LEONARDO ROSALES RODRIGUES            05294337380002/2018+0000000000054008C7XX09/05/2017888800309761001ELIZABETH KRISTINA ROSALES      000043610                    
208888800309765001BEATRIZ GUIMARAES BORGES              04025138689902/2018+0000000000008708C7XX22/01/1993888800309765001BEATRIZ GUIMARAES BORGES        000043660                    
208888800309766001KAMILA JESSICA PEREIRA NOGUEIRA       00289616115502/2018+0000000000050438C7XX03/01/1988888800309766001KAMILA JESSICA PEREIRA NOGUEIRA 000043680                    
208888800309766002ANDRE BARBOSA DIONISIO                00230594719402/2018+0000000000027008C7XX26/08/1988888800309766001KAMILA JESSICA PEREIRA NOGUEIRA 000043680                    
208888800309766011MARIA ALICE DIONISIO PEREIRA          00000000000002/2018+0000000000069908C7XX12/12/2016888800309766001KAMILA JESSICA PEREIRA NOGUEIRA 000043680                    
208888845225473001ANTONIO VAGNER FARIAS GOMES     11700203639645383502/2018+0000000000061538C7XX12/03/1989888845225473001ANTONIO VAGNER FARIAS GOMES     000043650                    
208888845225481001CLAUDIO GONCALVES DA SILVA      11700803447068485602/2018+0000000000021008C7XX25/05/1986888845225481001CLAUDIO GONCALVES DA SILVA      000043710                    
208888845263104001THIAGO FERREIRA DE LIMA         33000601403489289702/2018+0000000000027008C7XX05/01/1975888845263104001THIAGO FERREIRA DE LIMA         000043900                    
208888845268440001DANIELLE DURAO                  22000501533872988102/2018+0000000000033778C7XX06/07/1975888845268440001DANIELLE DURAO                  000043890                    
208888845276831001MARCELO CONFIANTINO             11700801560136782502/2018+0000000000198828C7XX03/01/1972888845276831001MARCELO CONFIANTINO             000044080                    
208888845293913014ALLANYS ALVES OLIVEIRA                04949421484602/2018+0000000000004468C7XX22/02/2014888845293913001MARCOS AURELIO OLIVEIRA         000044180                    
208888845297454010TAMIRES GOMES CRUZ              11701203861423880002/2018+0000000000312768C7XX22/05/1996888845297454001ADRIANA GOMES BITU              000044210                    
208888845314760001ALINE RIBAS LEMES DE ALMEIDA    22100103723429289602/2018+0000000000198048C7XX03/10/1990888845314760001ALINE RIBAS LEMES DE ALMEIDA    000044330                    
208888845337016002FLORISA MIEKO KAMIYA            11700401419491482102/2018+0000000000194198C7XX22/01/1977888845337016001ANDERSON ANDRE DA SILVA         000044520                    
208888845353809001CLAUDIOMIRI RODRIGUES DA ROSA   22000501231409185002/2018+0000000000010658C7XX13/03/1969888845353809001CLAUDIOMIRI RODRIGUES DA ROSA   000044640                    
208888845353843012VINICIUS GRITTI BATISTA         22000505019668087502/2018+0000000000011468C7XX30/06/2007888845353843001CASSIO CLEIR BATISTA            000044670                    
208888845363144001RAFAEL BUTTEL DE ASSIS          22000401147507570702/2018+0000000000006288C7XX17/09/1987888845363144001RAFAEL BUTTEL DE ASSIS          000044760                    
208888845363146011ANA JULIA COUTO DOS SANTOS      22000401514079976602/2018+0000000000036508C7XX17/08/2001888845363146001PATRICIA COUTO PIMENTA          000044780                    
208888845363152002ANGELICA MENDES DE OLIVEIRA     22000502635476187602/2018+0000000000401208C7XX24/05/1977888845363152001EDUARDO SILVA E SA              000044810                    
208888845363152011CAIO CARBONARI MENDES DE SA     22000500000000000002/2018+0000000000020628C7XX16/07/2014888845363152001EDUARDO SILVA E SA              000044810                    
208888845372096010AGNES RAMOS BELDA STOZEK        22200205323209380902/2018+0000000000027008C7XX17/07/2017888845372096001ROBERTO BELDA STOZEK            000044960                    
208888845381810001MARCIO DAVY DE SOUZA RODRIGUES  22000400103639276702/2018+0000000000006098C7XX06/02/1972888845381810001MARCIO DAVY DE SOUZA RODRIGUES  000044970                    
208888845381810002PATRICIA NUNES ROCHA RODRIGUES  22000400142080071002/2018+0000000000223298C7XX26/03/1975888845381810001MARCIO DAVY DE SOUZA RODRIGUES  000044970                    
208888845418119002CAMILA SCALDELAI MONTEIRO             03122059088602/2018+0000000000015818C7XX08/12/1982888845418119001RUBENS MONTEIRO OLIVEIRA        000045060                    
208888845432992001TATIANA BATISTA DA SILVA        11400103528091681102/2018+0000000000027008C7XX10/08/1987888845432992001TATIANA BATISTA DA SILVA        000045090                    
208888845447058001SOLANGE TEIXEIRA SOARES SANTOS  22202001109176384402/2018+0000000000027008C7XX18/04/1970888845447058001SOLANGE TEIXEIRA SOARES SANTOS  000045110                    
208888845468537002SONIA CRISTINA M DE F CIRILO    22000408393185661502/2018+0000000000003228C7XX25/07/1970888845468537001RENATO VANDERLEI DE F CIRILO    000045230                    
208888845483883011RAFAELA CORREA APOLINARIO       22000500000000000002/2018+0000000000005228C7XX17/06/2011888845483883001ANDERSON ALEX APOLINARIO        000045320                    
208888845503307001REGINALDO VEIGA LIMA            22000501256860280502/2018+0000000000008028C7XX14/04/1973888845503307001REGINALDO VEIGA LIMA            000045450                    
208888845516052002REJANE FRANCISCA DA S SIQUEIRA  11400100409859656302/2018+0000000000038148C7XX29/08/1989888845516052001CLOVIS HENRIQUE AMORIM SIQUEIRA 000045540                    
208888845516062001JAQUELINE RODRIGUES PEREIRA     11200100224988336002/2018+0000000000086048C7XX26/11/1985888845516062001JAQUELINE RODRIGUES PEREIRA     000045570                    
208888845518489001KELLY CRISTINA R H GUIMARAES    22000503395767280502/2018+0000000000008618C7XX19/09/1986888845518489001KELLY CRISTINA R H GUIMARAES    000045620                    
208888845563813010INGRID PEREIRA DE CARVALHO      22000401724974173002/2018+0000000000027008C7XX26/10/1998888845563813001ANDREA DAS GRACAS P DE CARVALHO 000046090                    
208888845566131001LETICIA BORGES DE MORAES        11700404048189883202/2018+0000000000052208C7XX29/03/1992888845566131001LETICIA BORGES DE MORAES        000046120                    
208888845595126001WAGNER LUCIO RESTINO                  00651829380202/2018+0000000000032478C7XX15/08/1966888845595126001WAGNER LUCIO RESTINO            000046220                    
208888845601413010CAUA MACHADO SANCHES                  01752774175902/2018+0000000000027008C7XX16/07/2013888845601413001IGOR SANCHES SALES              000046260                    
208888845654485002ELIZABETH RAMOS PANZARIELLO           08233939277202/2018+0000000000008358C7XX11/03/1968888845654485001MARCELO SILVA PANZARIELLO       000046490                    
208888845654491002SHEILA MARIA PEREIRA DE CAMPOS S      00428962769202/2018+0000000000005948C7XX13/07/1979888845654491001GLAUCO LUIZ DE CAMPOS SATO      000046480                    
208888845664341001ANDRE ARAUJO FERREIRA SILVA           03847932586002/2018+0000000000007008C7XX09/01/1991888845664341001ANDRE ARAUJO FERREIRA SILVA     000046540                    
208888845700413002JULIANA ANTUNES FERNANDES DE SOU11100103554098485402/2018+0000000000003298C7XX15/10/1987888845700413001JOAO ELI DE SOUZA               000046600                    
208888845757196001DENISE DE QUEIROZ MANIEZO       22200302815089084002/2018+0000000000073128C7XX30/11/1980888845757196001DENISE DE QUEIROZ MANIEZO       000046790                    
208888845763014002EULANE CIRINA OLIVEIRA          22000504397935386902/2018+0000000000066148C7XX20/03/1993888845763014001GLEIDSON NORONHA DOS SANTOS     000046830                    
208888845767130001DANIEL DIEGO BENITES DUTRA AGUAI11701103791949586502/2018+0000000000022788C7XX07/09/1988888845767130001DANIEL DIEGO BENITES DUTRA AGUAI000011080                    
208888845767138002DANIEL MOS MONTEIRO             22001002795090880702/2018+0000000000182798C7XX08/03/1979888845767138001ANA PAULA PEREIRA ALVES         000046840                    
208888845778590001CINTIA CORTEZ                   11700203601348780402/2018+0000000000130458C7XX10/05/1990888845778590001CINTIA CORTEZ                   000011090                    
208888845778612010PATRICK HENRIQUE LEMES DOMINGUES11000204458363980502/2018+0000000000027008C7XX08/02/1996888845778612001PAULO HENRIQUE SANTOS DOMINGUES 000046860                    
208888845815572001LUANA DE CAMARGO SANTOS         22100104148617488402/2018+0000000000054008C7XX10/06/1995888845815572001LUANA DE CAMARGO SANTOS         000011140                    
208888845820069001RENATO ASSUNCAO                       03689682789002/2018+0000000000057658C7XX19/10/1988888845820069001RENATO ASSUNCAO                 000047180                    
208888845863687001VINICIUS YURI C C QUARTEIRO     33000604455564381002/2018+0000000000029698C7XX23/12/1996888845863687001VINICIUS YURI C C QUARTEIRO     000047390                    
208888845899501002FLAVIA MARIA DOS SANTOS LOPES   22000503004912384002/2018+0000000000092628C7XX22/02/1980888845899501001MARCEL SOARES COSTA             000047480                    
90+000000001031706000143                                                                                                                              
