1029/06/2018                             000000000000000                                                              000000000                       
208888800305686010LARISSA GEOVANA DOS SANTOS            04000770284106/2018+0000000000140348C5Z806/02/2001888800305686001HELENICE BRAZ DOS SANTOS        000000450                    
208888800305688001JESSICA ALVES DE SOUZA CRUZ           04010917687106/2018+0000000000045698C5Z803/09/1991888800305688001JESSICA ALVES DE SOUZA CRUZ     000000580                    
208888800305690010GUSTAVO GARCIA DE OLIVEIRA LIMA       00000000000006/2018+0000000000048768C5Z827/11/2008888800305690001ODAIR JOSE DA SILVA LIMA        000000630                    
208888800305690011LORENZO GARCIA DE OLIVEIRA LIMA       05087851983106/2018+0000000000020878C5Z816/02/2016888800305690001ODAIR JOSE DA SILVA LIMA        000000630                    
208888800305691010ANDRESSA RODRIGUES DE ARAUJO          04449025180706/2018+0000000000034978C5Z828/07/1996888800305691001FLAVIO NEVES DE ARAUJO          000000640                    
208888800305693002MARIA AGUIDA MORAIS SOBRINHO          06040571667206/2018+0000000000091578C5Z812/08/1967888800305693001VANDERCI FERNANDES DE CARVALHO  000000690                    
208888800305695002ALESSANDRA BARRETO SILVA              03262337188106/2018+0000000000134128C5Z817/03/1985888800305695001EDICARLOS BARRETO SILVA         000000740                    
208888800305696001JOSE ROSOLEM                          04338422696806/2018+0000000000075778C5Z805/08/1962888800305696001JOSE ROSOLEM                    000000800                    
208888800305698002ANA PAULA DE SOUZA CARVALHO           02924663482906/2018+0000000000027008C5Z811/12/1981888800305698001CARLOS HENRIQUE R DE ANDRADE    000000830                    
208888800305699001PATRICIA GIRALDELI PECORA             03102163386006/2018+0000000000193248C5Z814/09/1982888800305699001PATRICIA GIRALDELI PECORA       000000850                    
208888800305704001AMANDA PEREIRA CARNEIRO               04161070888106/2018+0000000000251218C5Z824/05/1992888800305704001AMANDA PEREIRA CARNEIRO         000000930                    
208888800305707001LUZINETE MARIA DOS SANTOS             03540511083306/2018+0000000000101478C5Z815/03/1985888800305707001LUZINETE MARIA DOS SANTOS       000000960                    
208888845245808001BRUNA CRISTINA BARBOSA          11700303838673280606/2018+0000000000067398C5Z808/03/1989888845245808001BRUNA CRISTINA BARBOSA          000001030                    
208888845561096002CRISTINA DE FREITAS MACHADO     11000203242803183006/2018+0000000000007538C5Z829/07/1985888845561096001VAGNER RAMOS DA SILVA SANTOS    000001050                    
208888845561096010LORENZO MACHADO DOS SANTOS      11000205056104183006/2018+0000000000102008C5Z812/12/2015888845561096001VAGNER RAMOS DA SILVA SANTOS    000001050                    
208888845991519001RAFAELA DE SOUZA                      04102702083606/2018+0000000000027008C5Z816/09/1993888845991519001RAFAELA DE SOUZA                000001120                    
90+000000000136893000016                                                                                                                              
