1028/02/2018                             000000000000000                                                              000000000                       
208888800165329002JOSETI BERSANI DE OLIVEIRA      ABBVIE08521576773402/2018+0000000000003028B1LR19/03/1966888800165329001SERGIO LUIZ H DE OLIVEIRA       000000020                    
208888800165332001CAROLINA MOURA DE M VASCONCELOS ABBVIE00136789242202/2018+0000000000005808B1LR06/10/1982888800165332001CAROLINA MOURA DE M VASCONCELOS 000000050                    
208888800165341011FELIPE DE QUEIROZ SOARES        ABBVIE00000000000002/2018+0000000000003728B1LR30/07/2004888800165341001YURI SOARES OLIVEIRA CASTRO     000000140                    
208888800165357002MARIANA GONCALVES DORTA MURAMATSABBVIE00482469935502/2018+0000000000019128B1LR08/04/1988888800165357001DIOGO TOSHIO VIEIRA MURAMATSU   000000300                    
208888800165383001ALEXANDER CARDOSO CARNEIRO      ABBVIE00356765873502/2018+0000000000288738B1LR03/07/1972888800165383001ALEXANDER CARDOSO CARNEIRO      000000560                    
208888800165389001SILVIA REGINA NUNES             ABBVIE01854264788202/2018+0000000000004078B1LR27/11/1976888800165389001SILVIA REGINA NUNES             000000620                    
208888800165390002MARTHA AUGUSTA CALAZANS C SILVA ABBVIE00312407270702/2018+0000000000003498B1LR11/08/1968888800165390001ALEXANDER PEREIRA DE ALMEIDA    000000630                    
208888800165402001CRISTINA CARDOSO REZENDE        ABBVIE00319633764202/2018+0000000000014308B1LR14/11/1975888800165402001CRISTINA CARDOSO REZENDE        000000750                    
208888800165402010MARIANA CARDOSO FLOR REZENDE    ABBVIE01370261160602/2018+0000000000014308B1LR14/09/2010888800165402001CRISTINA CARDOSO REZENDE        000000750                    
208888800165403002ALESSANDRA CAVADAS F C FARIAS   ABBVIE00784962073902/2018+0000000000002438B1LR27/11/1979888800165403001DANIEL CASADO FARIAS            000000760                    
208888800165409001DANILO DE SOUZA MEDEIROS        ABBVIE09867585011502/2018+0000000000007428B1LR09/12/1983888800165409001DANILO DE SOUZA MEDEIROS        000000820                    
208888800165410001MICHELE FERNANDA S ESTRICANHOLI ABBVIE03600985884402/2018+0000000000013458B1LR12/12/1987888800165410001MICHELE FERNANDA S ESTRICANHOLI 000000830                    
208888800165417001FERNANDA SOUZA F PERLATO        ABBVIE03120066389602/2018+0000000000005398B1LR29/10/1984888800165417001FERNANDA SOUZA F PERLATO        000000900                    
208888800165420001JULIA CAROLINA PATTARO MANTOVANIABBVIE03330588586602/2018+0000000000664068B1LR27/10/1985888800165420001JULIA CAROLINA PATTARO MANTOVANI000000930                    
208888800165423002CAMILA CASALETI                 ABBVIE02199561984102/2018+0000000000199058B1LR11/03/1982888800165423001DANIEL MESSIAS CAMPOS ALVES     000000960                    
208888800165426003RODRIGO CESAR CARREIRA          ABBVIE03163065783202/2018+0000000000018458B1LR19/06/1983888800165426001ALESSANDRA APARECIDA FERNANDES  000000990                    
208888800165426010GIOVANNA FERNANDES CARREIRA     ABBVIE00000000000002/2018+0000000000078658B1LR01/12/2010888800165426001ALESSANDRA APARECIDA FERNANDES  000000990                    
208888800165436001PAULA CRISTINA GOMES                  01179476980302/2018+0000000000464058B1LR26/02/1973888800165436001PAULA CRISTINA GOMES            000001090                    
208888800165447002MARIANA GALVAO LOPES RIBERG     ABBVIE00290830273002/2018+0000000000086348B1LR23/11/1974888800165447001LUIS CLAUDIO ZAMBAN RIBERG      000001200                    
208888800165452001FABIO VIEIRA LEITE              ABBVIE00022338411902/2018+0000000000170788B1LR13/08/1983888800165452001FABIO VIEIRA LEITE              000001250                    
208888800165470001SANDRO MIGUEL MARTINS           ABBVIE00880185481102/2018+0000000000005978B1LR26/10/1969888800165470001SANDRO MIGUEL MARTINS           000001430                    
208888800165478011CATARINA AYRES MORAES           ABBVIE00000000000002/2018+0000000000019978B1LR06/11/2017888800165478001FABIO SILVA MORAES              000001510                    
208888800165483001RENATA SILVA DE MORAES          ABBVIE06582055011002/2018+0000000000095938B1LR06/08/1974888800165483001RENATA SILVA DE MORAES          000001560                    
208888800165483010EMILY MORAES FERNANDES          ABBVIE00718828810002/2018+0000000000102038B1LR08/12/2003888800165483001RENATA SILVA DE MORAES          000001560                    
208888800165488001CLAUDIA EIKO SUZUKI             ABBVIE02977267980902/2018+0000000000492458B1LR20/05/1983888800165488001CLAUDIA EIKO SUZUKI             000001610                    
208888800165498003CAMILA ADRIANA SILVA DINIZ      ABBVIE00710521260802/2018+0000000000035698B1LR05/10/1985888800165498001TIAGO CARLOS DINIZ              000001710                    
208888800165501001MARA CRISTINA DE SOUSA          ABBVIE00414359984802/2018+0000000000015928B1LR12/06/1965888800165501001MARA CRISTINA DE SOUSA          000001740                    
208888800165528001MARCELO LOURENCO DA SILVA       ABBVIE01263155685202/2018+0000000000002198B1LR08/11/1970888800165528001MARCELO LOURENCO DA SILVA       000002010                    
208888800165529002MARIA BENEDITA C LELIS MOREIRA  ABBVIE00437403386602/2018+0000000000048938B1LR16/03/1963888800165529001RINALDO ROBERTO LELIS MOREIRA   000002020                    
208888800165531001SERGIO DE SOUZA COSTA           ABBVIE00258851988102/2018+0000000000030008B1LR19/02/1962888800165531001SERGIO DE SOUZA COSTA           000002040                    
208888800165536002VALERIA ANDRADE SILVA DE ALMEIDAABBVIE00887746683902/2018+0000000000507918B1LR22/04/1967888800165536001JAIME CAETANO DE ALMEIDA        000002090                    
208888800165537001LUCIANA GRAVINA CATHARINO CALIMAABBVIE00953424189002/2018+0000000000167908B1LR27/11/1971888800165537001LUCIANA GRAVINA CATHARINO CALIMA000002100                    
208888800165543010ANA JULIA DI LALLO VIEIRA       ABBVIE00000000000002/2018+0000000000079378B1LR09/11/2001888800165543001ANDERSON ROSETE VIEIRA          000002160                    
208888800165546001NATALIA FERRARI BRAGA P FREITAS ABBVIE00170849651302/2018+0000000000038448B1LR11/05/1984888800165546001NATALIA FERRARI BRAGA P FREITAS 000002190                    
208888800165547010GABRIELA BOSI FIORUCI           ABBVIE04229729286402/2018+0000000000095528B1LR01/10/2003888800165547001PATRICIA BOSI FIORUCI           000002200                    
208888800165548001VIVIANE CRISTALINO PEREIRA      ABBVIE01855646480702/2018+0000000000051118B1LR08/10/1977888800165548001VIVIANE CRISTALINO PEREIRA      000002210                    
208888800165548002MARLENE CHAVES DE OLIVEIRA      ABBVIE01999201981602/2018+0000000000003708B1LR08/10/1977888800165548001VIVIANE CRISTALINO PEREIRA      000002210                    
208888800165549001CARLA FERNANDA ROMANI           ABBVIE00575828781402/2018+0000000000005988B1LR12/12/1963888800165549001CARLA FERNANDA ROMANI           000002220                    
208888800165549002RENATO LUIS MARIA ACCASCINA     ABBVIE01896831389002/2018+0000000000042808B1LR02/01/1957888800165549001CARLA FERNANDA ROMANI           000002220                    
208888800165559001REINALDO MENDES VIVEIROS        ABBVIE03665526485502/2018+0000000000017768B1LR25/10/1988888800165559001REINALDO MENDES VIVEIROS        000002320                    
208888800165563002PRISCILA CARUGGI BASSO THOMAZINIABBVIE02980940585502/2018+0000000000054198B1LR17/10/1980888800165563001CARLOS EDUARDO A THOMAZINI      000002360                    
208888800165565001RENATO BELINI                   ABBVIE00559039182202/2018+0000000000015248B1LR23/12/1965888800165565001RENATO BELINI                   000002380                    
208888800165566001ESMERALDA LIMA DE CAMPOS        ABBVIE06575454984902/2018+0000000000265438B1LR16/04/1955888800165566001ESMERALDA LIMA DE CAMPOS        000002390                    
208888800165575001JEFERSON DIAZ CAMPOS            ABBVIE06058874815302/2018+0000000000079898B1LR18/04/1973888800165575001JEFERSON DIAZ CAMPOS            000002480                    
208888800165575010LETICIA PEREIRA CAMPOS          ABBVIE00520061713802/2018+0000000000108548B1LR27/04/2000888800165575001JEFERSON DIAZ CAMPOS            000002480                    
208888800165576001CARLOS ALBERTO CORDEIRO         ABBVIE00732940680502/2018+0000000000070178B1LR24/03/1966888800165576001CARLOS ALBERTO CORDEIRO         000002490                    
208888800165576002LUCIANA RIBEIRO DA G CORDEIRO   ABBVIE01647486580602/2018+0000000000011508B1LR01/07/1970888800165576001CARLOS ALBERTO CORDEIRO         000002490                    
208888800165578002MARIA SUELI VILELA MONTEIRO           02269088344902/2018+0000000000006388B1LR13/06/1957888800165578001RAIMUNDO DUARTE MONTEIRO FILHO  000002510                    
208888800165580003PAULA EMILIA GOUVEIA B DE SOUZA ABBVIE05946831941502/2018+0000000000004878B1LR08/05/1971888800165580001JAIRO FERREIRA DA SILVA         000002530                    
208888800165580011SOPHIA VICTORIA FERREIRA SOUZA  ABBVIE00000000000002/2018+0000000000037408B1LR31/03/2008888800165580001JAIRO FERREIRA DA SILVA         000002530                    
208888800165583001MARCELO MACHADO SAMPAIO         ABBVIE00287808475602/2018+0000000000200348B1LR31/07/1972888800165583001MARCELO MACHADO SAMPAIO         000002560                    
208888800165584002VANUZA GAMBATI BALZANA          ABBVIE00242702570402/2018+0000000000002798B1LR30/10/1971888800165584001ALEX RACHED BALZANA             000002570                    
208888800165590001GISLENE SCHAAF LESSA            ABBVIE01758798580802/2018+0000000000281108B1LR29/11/1974888800165590001GISLENE SCHAAF LESSA            000002630                    
208888800165674002SIMONE FRUTUOSO SEQUEIRA        ABBVIE00362092575502/2018+0000000000004308B1LR24/11/1974888800165674001GUSTAVO PROVENZANO MARTINS      000000060                    
208888800165679001LILIAN PATRICIA C S A LIPPSMEIERABBVIE02778162984102/2018+0000000000737658B1LR13/03/1974888800165679001LILIAN PATRICIA C S A LIPPSMEIER000001340                    
208888800165680010ENZO POSSAS RIBEIRO             ABBVIE00000000000002/2018+0000000000003718B1LR09/10/2012888800165680001AMANDA TORRES MAGALHAES POSSAS  000001530                    
208888800165682001GILCEANE XAVIER DE OLIVEIRA     ABBVIE00040624277102/2018+0000000000004148B1LR07/01/1970888800165682001GILCEANE XAVIER DE OLIVEIRA     000001960                    
208888800165682010MAYTHE XAVIER BRAZ              ABBVIE01532264879802/2018+0000000000059538B1LR10/02/2006888800165682001GILCEANE XAVIER DE OLIVEIRA     000001960                    
208888800165684010GRAZIELLA DUARTE MORSELLI       ABBVIE00114464901302/2018+0000000000014708B1LR28/02/1996888800165684001URSULA DUARTE                   000002080                    
208888800180274001PRISCILA PAULINO DERRA                01339715384002/2018+0000000000424968B1LR28/06/1973888800180274001PRISCILA PAULINO DERRA          000002760                    
208888800180277001DANIELA MATHEUS SIQUEIRA GARCIA       03131516780802/2018+0000000000029728B1LR13/07/1983888800180277001DANIELA MATHEUS SIQUEIRA GARCIA 000002790                    
208888800180277010ALICE MATHEUS SIQUEIRA GARCIA         00000000000002/2018+0000000000015208B1LR16/04/2016888800180277001DANIELA MATHEUS SIQUEIRA GARCIA 000002790                    
208888800344808002PATRICIA HELENA G DA SILVA            00117937770202/2018+0000000000008388B1LR16/01/1975888800344808001CLAUDIO MARCIO RAMOS SILVA          96720                    
208888845044972002CYNTHIA DANIELA F DE SOUZA            02675783188002/2018+0000000000035568B1LR23/11/1977888845044972001ANDRE LUIS PAIS BANDINI         000091520                    
208888845045601001DAIANE ORGLER CLAUDINO                03699200884602/2018+0000000000013438B1LR11/04/1989888845045601001DAIANE ORGLER CLAUDINO          000091760                    
208888845049517001ALEXANDRE GUIMARAES                   00166574970902/2018+0000000000023588B1LR31/08/1971888845049517001ALEXANDRE GUIMARAES             000091910                    
208888845053896001VIRGILIO CESAR SOARES XIMENES         00027687678402/2018+0000000000089098B1LR09/05/1968888845053896001VIRGILIO CESAR SOARES XIMENES   000092170                    
208888845053896002LUCIANA DIAS MELO XIMENES             00189259574502/2018+0000000000080718B1LR15/06/1971888845053896001VIRGILIO CESAR SOARES XIMENES   000092170                    
208888845078093001REINALDO PEREIRA DA SILVA             07453119073402/2018+0000000000487158B1LR03/03/1963888845078093001REINALDO PEREIRA DA SILVA       000092790                    
208888845093259001EMELY BAZALIA ABRAO                   03502278083602/2018+0000000000007548B1LR02/01/1989888845093259001EMELY BAZALIA ABRAO             000093120                    
208888845099977002FAUSTO DA SILVA BAPTISTA BERNARD      02737193583702/2018+0000000000009988B1LR31/01/1979888845099977001KAREN ELAINE V SEBASTIAO        000093200                    
208888845112428003LUIZ ANTONIO RECAMAN BARROS           00524259488802/2018+0000000000054568B1LR26/10/1960888845112428001HEVERTON ZAMBRINI               000093350                    
208888845138539002LIVIA AMARANTE MAGALHAES CUNHA        00867165774402/2018+0000000000016278B1LR06/05/1979888845138539001LUIZ CARLOS CUNHA DE S MAGALHAES000093800                    
208888845139176011FREDERICO ALVES SOLITAO               00000000000002/2018+0000000000006468B1LR18/09/2007888845139176001CRISTIAM REGERS SOLITAO         000093810                    
208888845146146010JULIA SPILA FERREIRA                  00000000000002/2018+0000000000278178B1LR11/11/2001888845146146001FABIOLA GOMES SPILA             000094140                    
208888845159995001SIMONE CRISTINA VIEIRA                02670412882402/2018+0000000000609268B1LR08/07/1976888845159995001SIMONE CRISTINA VIEIRA          000094470                    
208888845160042002ELIANE ZAPAROLI ANGELOTTI             03532612682602/2018+0000000000025068B1LR02/04/1986888845160042001LEONARDO DE OLIVEIRA ANGELOTTI  000094460                    
208888845178398001BEATRIZ VALLEJO AVILA DOS SANTOS      03552312285802/2018+0000000000580358B1LR02/08/1986888845178398001BEATRIZ VALLEJO AVILA DOS SANTOS000094940                    
208888845187308001DANIELA JANUARIO DI PAOLO             02837812781802/2018+0000000000036358B1LR30/10/1980888845187308001DANIELA JANUARIO DI PAOLO       000095020                    
208888845187312002CAROLINA CERQUEIRA BUENO              03406928480002/2018+0000000000030488B1LR11/09/1984888845187312001GUSTAVO GIACOMO SILVA           000094990                    
208888845189475002DIEGO ALEJANDRO COSTA MARCHANT        02752337086102/2018+0000000000015658B1LR16/04/1980888845189475001CAMILA CASTANHO GIRARDI MARCHANT000095130                    
208888845203183002CAROLINA NOGUEIRA DROGA               02590056982902/2018+0000000000001068B1LR15/09/1977888845203183001CARLOS DANIEL A P LANDULPHO     000952610                    
208888845212885010PEDRO HENRIQUE V PINHEIRO             04395936687602/2018+0000000000066688B1LR23/12/2003888845212885001WAGNER LUIZ PINHEIRO            000095560                    
208888845223405011LARA MUNIZ ARAUJO                     01587005972002/2018+0000000000004248B1LR06/04/1998888845223405001CARLOS DIAS ARAUJO              000095950                    
208888845235476001DEBORA BERGAMINI CANELHAS             04175274286902/2018+0000000000116488B1LR15/02/1992888845235476001DEBORA BERGAMINI CANELHAS       000096150                    
208888845255738002NATALIA RIOS SANTI                    03683560088802/2018+0000000000077418B1LR10/03/1988888845255738001RENATO DOS SANTOS LIMONETE      000096550                    
208888845259826002CARLA ORESTE DE OLIVEIRA              01817767887602/2018+0000000000007788B1LR21/06/1975888845259826001ALEXANDRE GONCALVES DE OLIVEIRA 000096640                    
208888845259832002ELENICE LOTTI CAMACHO SILVA           00996009787002/2018+0000000000039978B1LR11/01/1966888845259832001DANGLARES DA SILVA              000096730                    
208888845269852010BIANCA RODRIGUES RECHE CAETANO        04590700387102/2018+0000000000070388B1LR18/09/2008888845269852001DANIEL RECHE CAETANO            000096850                    
208888845269858001GUSTAVO ZARATIN                       02606063686102/2018+0000000000049218B1LR14/04/1977888845269858001GUSTAVO ZARATIN                 000096870                    
208888845269858002DANIELLE DE CARLA ROVERI ZARATIN      02684148880602/2018+0000000000022988B1LR28/12/1979888845269858001GUSTAVO ZARATIN                 000096870                    
208888845269862001JOYCE MARIA DA CRUZ CAMARGO           00928629589802/2018+0000000000168598B1LR02/09/1968888845269862001JOYCE MARIA DA CRUZ CAMARGO     000096880                    
208888845269862002ROBERTO CAMARGO                       00759408289302/2018+0000000000062008B1LR16/10/1967888845269862001JOYCE MARIA DA CRUZ CAMARGO     000096880                    
208888845288132002LEONOR DE ARAUJO N RODRIGUES          00721488870002/2018+0000000000058978B1LR28/08/1975888845288132001ANDRE MORAES RODRIGUES          000097310                    
208888845292163001DENISE FIGUEIREDO DE LA REZA          05483238176802/2018+0000000000391878B1LR08/08/1954888845292163001DENISE FIGUEIREDO DE LA REZA    000097650                    
208888845292163002ALF BORJE JERNER                      02294481380302/2018+0000000000008618B1LR28/07/1954888845292163001DENISE FIGUEIREDO DE LA REZA    000097650                    
208888845307854001FERNANDA CZAPKOWSKI DE ALMEIDA        01463052286702/2018+0000000000261538B1LR17/10/1972888845307854001FERNANDA CZAPKOWSKI DE ALMEIDA  000097910                    
208888845307854002MARCELO GROSSI DE ALMEIDA             01144248981202/2018+0000000000257028B1LR10/03/1967888845307854001FERNANDA CZAPKOWSKI DE ALMEIDA  000097910                    
208888845313948002NARAA BLANCK KAMRADT                  03393529889702/2018+0000000000012788B1LR11/09/1987888845313948001LEONARDO PALLOS DE MELLO        000097750                    
208888845349365001ANDRE LUIZ PEREIRA DE OLIVEIRA        02791696385002/2018+0000000000042538B1LR12/10/1977888845349365001ANDRE LUIZ PEREIRA DE OLIVEIRA  150036430                    
208888845349365003ALINY MACEA ANTUNES                   02777583285102/2018+0000000000103828B1LR07/07/1981888845349365001ANDRE LUIZ PEREIRA DE OLIVEIRA  150036430                    
208888845349365010MARIA EDUARDA MACEA ALENCAR           05104774180602/2018+0000000000035558B1LR14/05/2004888845349365001ANDRE LUIZ PEREIRA DE OLIVEIRA  150036430                    
208888845496279001BARBARA SANTOS LISBOA           64645404569265782102/2018+0000000000059808B1LR17/03/1996888845496279001BARBARA SANTOS LISBOA           107623260                    
208888845496279002LEONARDO PANADES SILVA          64645404086553988002/2018+0000000000038418B1LR17/10/1993888845496279001BARBARA SANTOS LISBOA           107623260                    
208888845510816001LAURA TOJEIRO CAMPOS            64648303346676587002/2018+0000000000381058B1LR25/09/1984888845510816001LAURA TOJEIRO CAMPOS            150212180                    
208888845510818001FELIPEE GUSTAVO AGUIAR MONTEIRO 64643903583667280602/2018+0000000000038278B1LR17/09/1987888845510818001FELIPEE GUSTAVO AGUIAR MONTEIRO 150212070                    
208888845527017001MARIANA MARCHIANI               64465303591781088502/2018+0000000000022908B1LR11/05/1987888845527017001MARIANA MARCHIANI               150215940                    
208888845536171001ANA GABRIELA PIRES DOS SANTOS   64643701439224382602/2018+0000000000333168B1LR07/12/1973888845536171001ANA GABRIELA PIRES DOS SANTOS   150222950                    
208888845556135001NATALIA LINS BRANDAO            64649903523543983002/2018+0000000000082548B1LR10/11/1987888845556135001NATALIA LINS BRANDAO            150239070                    
208888845567720010ANA LUIZA DE SIQUEIRA BRUN      64648500000000000002/2018+0000000000005528B1LR17/12/2006888845567720001WASHINGTON FRAZAO BRUN          150240690                    
208888845567769002CAROLINA SANTIAGO AGNELO        64650503408281882002/2018+0000000000384098B1LR01/02/1986888845567769001LUCIANO LUIS PEREIRA BRAGHIM    150241450                    
208888845592849002JULIANA RIBEIRO WALTER DE MORAIS64642701165108976002/2018+0000000000055108B1LR29/12/1985888845592849001CARLOS GUSTAVO VIEIRA DE MORAIS 150255350                    
208888845592868002SIMONE FALLAKHA BIAGI           64648702577720084202/2018+0000000000006068B1LR19/03/1978888845592868001LEANDRO BIAGI LOPES             150255330                    
208888845607411002VERONICA OLIVEIRA ROCHA CARREON       04182137680302/2018+0000000000049768B1LR19/03/1992888845607411001DIEGO DE SOUZA CARREON          150144070                    
208888845628061001BRUNO HENRIQUE DOS SANTOS SARTOR      03860987089802/2018+0000000000056508B1LR14/03/1991888845628061001BRUNO HENRIQUE DOS SANTOS SARTOR150222490                    
208888845628065001PETERSON ANDRADE ARRUDA               03766310780202/2018+0000000000355788B1LR16/03/1990888845628065001PETERSON ANDRADE ARRUDA         150270470                    
208888845628067001RAQUEL BELTRAME                       03678088589402/2018+0000000000058048B1LR05/03/1989888845628067001RAQUEL BELTRAME                 150067850                    
208888845628069001DANIELE PESEL SILLES                  02774552583702/2018+0000000000219688B1LR08/05/1978888845628069001DANIELE PESEL SILLES            150270520                    
208888845628071011SOFIA AZEVEDO DE CARVALHO             04455937889402/2018+0000000000034008B1LR30/03/1999888845628071001JULIO CESAR NOPHAL DE CARVALHO  150270450                    
208888845670772010ISABELLA RAPOSO PERAZZA               00000000000002/2018+0000000000012438B1LR09/11/2004888845670772001WAGNER PERAZZA                  150288270                    
208888845719923001RENATA CRISTINA AFONSO          64642003620302480502/2018+0000000000218148B1LR25/11/1988888845719923001RENATA CRISTINA AFONSO          150310880                    
208888845753187001EDUARDO LOPES DA SILVA          66019109072627873402/2018+0000000000035788B1LR20/07/1968888845753187001EDUARDO LOPES DA SILVA          150329500                    
208888845775806010JULIA CONDE HENZ                66019100000000000002/2018+0000000000071498B1LR19/04/2011888845775806001EDSON MATIAS HENZ               150329430                    
208888845805656001ROBERTA KAROLEEN MOURA NOBRE    64642003735785484102/2018+0000000000091948B1LR02/06/1989888845805656001ROBERTA KAROLEEN MOURA NOBRE    150360100                    
208888845820083001MARA SILVEIRA ALVES PELLEGRINI        01289437483602/2018+0000000000011668B1LR07/05/1971888845820083001MARA SILVEIRA ALVES PELLEGRINI  150370110                    
208888845820525001REGINA MOSCON DA ROSA           64648605537374706802/2018+0000000000037778B1LR23/01/1969888845820525001REGINA MOSCON DA ROSA           150356290                    
208888845825001001ALEXSANDRA DE AZEVEDO LIMA      64648809890119242002/2018+0000000000022128B1LR16/11/1974888845825001001ALEXSANDRA DE AZEVEDO LIMA      150371850                    
208888845857527001ANA LUZIA SIMOES DA SILVA       64643301749099489602/2018+0000000000053298B1LR27/06/1973888845857527001ANA LUZIA SIMOES DA SILVA       150203070                    
208888845857535001TATIANA MARTINS PORTO           64644702050890184702/2018+0000000000150248B1LR21/09/1974888845857535001TATIANA MARTINS PORTO           150382990                    
208888845873085001MARCO ANTONIO PASCHOALIN              02466086387502/2018+0000000000364038B1LR13/06/1976888845873085001MARCO ANTONIO PASCHOALIN        150388260                    
208888845873181001CINTIA DEL REY                  64643902238850082602/2018+0000000000032638B1LR18/11/1982888845873181001CINTIA DEL REY                  150388140                    
208888845939449001LUCAS JOSE PENAROTTI PIMENTA    64646003685745883902/2018+0000000000057798B1LR08/10/1988888845939449001LUCAS JOSE PENAROTTI PIMENTA    150338830                    
208888845968107001CLAUDIA SILVA DE CAMPOS         64641203190874581902/2018+0000000000010558B1LR14/02/1984888845968107001CLAUDIA SILVA DE CAMPOS         150419030                    
90+000000001397595000133                                                                                                                              
