1029/06/2018                             000000000000000                                                              000000000                       
208888800509533001NORBERTO TARGINO SILVA          19020708180523381506/2018+0000000000027028EAQG30/09/1956888800509533001NORBERTO TARGINO SILVA          001000030                    
208888800509533002MARIA HELENA FERNANDEZ SILVA    19020706733460181506/2018+0000000000005808EAQG13/04/1955888800509533001NORBERTO TARGINO SILVA          001000030                    
208888800509533010RENATA FERNANDEZ TARGINO        19020703234392889406/2018+0000000000044188EAQG22/10/1985888800509533001NORBERTO TARGINO SILVA          001000030                    
208888800509534001ANNA LUIZA RACHEL NOGUEIRA LEITE20700401871419280206/2018+0000000000018008EAQG05/08/1976888800509534001ANNA LUIZA RACHEL NOGUEIRA LEITE001048250                    
208888800509734001HUMBERTO LUIZ TEIXEIRA          30207 08963932486806/2018+0000000000055938EAQG17/03/1957888800509734001HUMBERTO LUIZ TEIXEIRA          001000020                    
90+000000000015093000005                                                                                                                              
