1029/06/2018                             000000000000000                                                              000000000                       
208888800509473002VERA LUCIA GAMERO PLATINI       70109901518858686006/2018+0000000000113398EAPM14/04/1973888800509473001EDSON SILVA PLATINI             000000740                    
208888800509477002CRISTINA MARIA C SANTOS BENTO   70101 01063910587406/2018+0000000000036778EAPM01/05/1966888800509477001LUIS CARLOS BENTO COSTA DIAS    001007820                    
208888800509481002ALAUANNA FRANCIELLE M DA SILVA  20500200622924494206/2018+0000000000018008EAPM13/01/1986888800509481001ANDRE PEREIRA SANTOS            001014410                    
208888800509481010HEITOR MONTANI MOLERO SANTOS    20500205061086783006/2018+0000000000017898EAPM21/12/2015888800509481001ANDRE PEREIRA SANTOS            001014410                    
208888800509483001ALEX VILANOVA BISPO             70205002191593380306/2018+0000000000004328EAPM13/04/1979888800509483001ALEX VILANOVA BISPO             001015930                    
208888800509488002DANIELA APARECIDA ZANONI BARBOSA70101 02600220186606/2018+0000000000290298EAPM25/04/1977888800509488001GABRIEL GARCIA OSTERNE          001067770                    
208888800509488010THOMAS ZANONI OSTERNE           70101 05005377085406/2018+0000000000054318EAPM19/12/2014888800509488001GABRIEL GARCIA OSTERNE          001067770                    
208888800509497001WANIA CARDOSO SILVA             70108900545610680906/2018+0000000000108598EAPM29/03/1964888800509497001WANIA CARDOSO SILVA             001081940                    
208888800509499011MATHEUS GOMES FOGER             70104904780729289006/2018+0000000000005948EAPM15/10/2013888800509499001RODRIGO FOGER                   001083910                    
208888800509501002RADJA MARQUES SANTOS DE OLIVEIRA70106903200415185406/2018+0000000000034478EAPM04/08/1985888800509501001MARCELO CANDIDO OLIVEIRA        001084010                    
208888800509504002ROBERTA MANIGLIA RESENDE MATOS  70101 01779759584406/2018+0000000000046298EAPM20/04/1973888800509504001RAFAEL SILVEIRA MATOS           001091280                    
208888800509504010LEONARDO RESENDE MATOS          70101 02287035680306/2018+0000000000018008EAPM30/06/1998888800509504001RAFAEL SILVEIRA MATOS           001091280                    
208888800509505001MARCELO MARCOS RIBEIRO          70104902628750686506/2018+0000000000105578EAPM29/08/1977888800509505001MARCELO MARCOS RIBEIRO          001094040                    
208888800509505003SONIA MARIA DE FATIMA SILVA MOUR70104902893903584406/2018+0000000000059878EAPM21/05/1980888800509505001MARCELO MARCOS RIBEIRO          001094040                    
208888800509505010RAFAELA MOURA RIBEIRO           70104905131050685006/2018+0000000000056278EAPM09/07/2013888800509505001MARCELO MARCOS RIBEIRO          001094040                    
208888800509508001ANDERSON BRUNO RODRIGUES        70107 02613217880506/2018+0000000000054008EAPM11/03/1979888800509508001ANDERSON BRUNO RODRIGUES        001102860                    
208888800509509010VITOR SOUZA VILANOVA BISPO      70202005029731580306/2018+0000000000076018EAPM04/12/2013888800509509001KATIA CASSIA SOUZA              001103490                    
208888800509514001RUY JORGE CORTEZ TEIXEIRA REDE  70101 00657786985506/2018+0000000000098768EAPM17/05/1962888800509514001RUY JORGE CORTEZ TEIXEIRA REDE  001139520                    
208888800509514011CLARA BAPISTELLA C T REDE       70101 00000000000006/2018+0000000000006938EAPM14/01/2005888800509514001RUY JORGE CORTEZ TEIXEIRA REDE  001139520                    
208888800509517010JOAO PEDRO NAKADATE GARCIA      70109904420980486006/2018+0000000000019068EAPM27/09/2001888800509517001DAYVI CARAGELEASCOV GARCIA      001145330                    
208888800509522010PEDRO SOUZA RIBEIRO             70101 00000000000006/2018+0000000000042898EAPM10/09/2008888800509522001MILENE ZABOT                    001164560                    
208888800509524001CARLOS MANUEL PATACAS GARCIA    70116902385655985006/2018+0000000000038628EAPM10/03/1976888800509524001CARLOS MANUEL PATACAS GARCIA    001169150                    
208888800509524002CELIA ALEXANDRA R FOLGADO GARCIA70116902385656086606/2018+0000000000032498EAPM25/12/1978888800509524001CARLOS MANUEL PATACAS GARCIA    001169150                    
208888800509659001DEBORA CAVALCANTI VERON         70106 02269893387906/2018+0000000000041528EAPM06/09/1982888800509659001DEBORA CAVALCANTI VERON         000000730                    
208888800509659002JOAO CARLOS CORREA JUNIOR       70106 03199633188406/2018+0000000000058158EAPM27/12/1984888800509659001DEBORA CAVALCANTI VERON         000000730                    
208888800509666001VANESSA RIBEIRO SANCHES         70115 03076776584206/2018+0000000000036778EAPM14/02/1984888800509666001VANESSA RIBEIRO SANCHES         001017480                    
208888800509666010REBECA SANCHES CAMARGO          70115 00000000000006/2018+0000000000060808EAPM20/09/2009888800509666001VANESSA RIBEIRO SANCHES         001017480                    
208888800509666011ISABELLE SANCHES VIOTTO         70115 05028338582006/2018+0000000000060808EAPM22/09/2015888800509666001VANESSA RIBEIRO SANCHES         001017480                    
208888800517467001VANDERLEI VEIGA                 70102 00537532285406/2018+0000000000118008EAPM05/06/1961888800517467001VANDERLEI VEIGA                 005174670                    
208888800517467002MARGARETE SUELI GARCIA          70102 00778670180006/2018+0000000000029588EAPM27/12/1966888800517467001VANDERLEI VEIGA                 005174670                    
208888800517467010VITOR GARCIA VEIGA              70102 04498938089406/2018+0000000000047408EAPM27/08/1996888800517467001VANDERLEI VEIGA                 005174670                    
208888800517468001RAFAEL SOARES STORRER           70209 00354501291306/2018+0000000000037408EAPM24/08/1981888800517468001RAFAEL SOARES STORRER           005174680                    
208888800517469001CLAUDIO S CAPELLA JUNQUEIRA     70209 02125015188006/2018+0000000000043258EAPM03/04/1978888800517469001CLAUDIO S CAPELLA JUNQUEIRA     005174690                    
208888800517469010MANUELLA FERRARIO CAPELLA       70209 05178758382106/2018+0000000000058008EAPM27/09/2016888800517469001CLAUDIO S CAPELLA JUNQUEIRA     005174690                    
208888800517470001CLAUDIA MARUCCI HERZOG          20300000891134387006/2018+0000000000036008EAPM23/07/1967888800517470001CLAUDIA MARUCCI HERZOG          005174700                    
208888845582128001NUBIA FERNANDA RIBEIRO SANTANA  07020403220839088106/2018+0000000000063368EAPM09/05/1984888845582128001NUBIA FERNANDA RIBEIRO SANTANA  001061310                    
208888845582134001ADRIANA F MARQUES DA SILVA      07021001934045888506/2018+0000000000101518EAPM09/08/1974888845582134001ADRIANA F MARQUES DA SILVA      001091540                    
208888845636149010GUILHERME ANDRADE CABRERA       07010200000000000006/2018+0000000000102138EAPM21/10/2008888845636149001ANETE ANDRADE CABRERA           456361490                    
208888845636157001CLAUDIO SA RODRIGUES DE LIMA    01070903413034588506/2018+0000000000018008EAPM04/07/1987888845636157001CLAUDIO SA RODRIGUES DE LIMA    456361570                    
208888845659936002SANDRA RODRIGUES PACITTI        07020900888977980206/2018+0000000000042278EAPM27/10/1968888845659936001EWERTON DIAS                    001162040                    
208888845720704001VIVIANE HERICA SILVA VIEIRA     07011600192246348506/2018+0000000000018008EAPM13/11/1974888845720704001VIVIANE HERICA SILVA VIEIRA     015155370                    
208888845720727002ROSEMAR MARIA FERREIRA DE LIMA  07010502863630580206/2018+0000000000124888EAPM28/05/1980888845720727001CARLOS EDUARDO GONCALVES DE LIMA001163190                    
208888845720727011VICTORIA GABRIELA F DE LIMA     07010504529808688806/2018+0000000000032388EAPM16/01/2003888845720727001CARLOS EDUARDO GONCALVES DE LIMA001163190                    
208888845924647001MICHELE LAMAS DE MELLO GARCIA   70113900917263677706/2018+0000000000126118EAPM05/12/1981888845924647001MICHELE LAMAS DE MELLO GARCIA   015170470                    
208888845924647002RICARDO DIAS GARCIA             70113902758624788906/2018+0000000000048888EAPM24/06/1977888845924647001MICHELE LAMAS DE MELLO GARCIA   015170470                    
208888845924647010LUIZA LAMAS GARCIA              70113900000000000006/2018+0000000000044888EAPM18/06/2013888845924647001MICHELE LAMAS DE MELLO GARCIA   015170470                    
208888846039206002MELISSA BELLO KELLERMANN              02938987889606/2018+0000000000038408EAPM09/06/1979888846039206001CHRISTIAN KELLERMANN            015176780                    
208888846039206010NATHAN BELLO KELLERMANN               00000000000006/2018+0000000000038408EAPM05/12/2009888846039206001CHRISTIAN KELLERMANN            015176780                    
208888846039206011PIETRO BELLO KELLERMANN               00000000000006/2018+0000000000061668EAPM06/01/2015888846039206001CHRISTIAN KELLERMANN            015176780                    
208888846084739001JOSE RICARDO MARQUES ROCHA      15021103580476580906/2018+0000000000021008EAPM02/12/1986888846084739001JOSE RICARDO MARQUES ROCHA      460847390                    
90+000000000284826000050                                                                                                                              
