1031/08/2018                             000000000000000                                                              000000000                       
208888800509473002VERA LUCIA GAMERO PLATINI       70109901518858686008/2018+0000000000018008EAPM14/04/1973888800509473001EDSON SILVA PLATINI             000000740                    
208888800509477011LAURA SANTOS BENTO              70101 04629541284008/2018+0000000000044558EAPM23/01/1997888800509477001LUIS CARLOS BENTO COSTA DIAS    001007820                    
208888800509481001ANDRE PEREIRA SANTOS            20500202889061981308/2018+0000000000018008EAPM16/08/1979888800509481001ANDRE PEREIRA SANTOS            001014410                    
208888800509481002ALAUANNA FRANCIELLE M DA SILVA  20500200622924494208/2018+0000000000018008EAPM13/01/1986888800509481001ANDRE PEREIRA SANTOS            001014410                    
208888800509489001EDUARDO CORREA SILVA            70102 00942804481408/2018+0000000000029328EAPM10/08/1967888800509489001EDUARDO CORREA SILVA            001067820                    
208888800509497001WANIA CARDOSO SILVA             70108900545610680908/2018+0000000000022308EAPM29/03/1964888800509497001WANIA CARDOSO SILVA             001081940                    
208888800509498001TALITHA CERON REZENDE           70103903025546883008/2018+0000000000018008EAPM28/10/1982888800509498001TALITHA CERON REZENDE           001083650                    
208888800509501001MARCELO CANDIDO OLIVEIRA        70106902904993185508/2018+0000000000022098EAPM30/08/1980888800509501001MARCELO CANDIDO OLIVEIRA        001084010                    
208888800509501002RADJA MARQUES SANTOS DE OLIVEIRA70106903200415185408/2018+0000000000034478EAPM04/08/1985888800509501001MARCELO CANDIDO OLIVEIRA        001084010                    
208888800509504010LEONARDO RESENDE MATOS          70101 02287035680308/2018+0000000000036008EAPM30/06/1998888800509504001RAFAEL SILVEIRA MATOS           001091280                    
208888800509505001MARCELO MARCOS RIBEIRO          70104902628750686508/2018+0000000000018008EAPM29/08/1977888800509505001MARCELO MARCOS RIBEIRO          001094040                    
208888800509505003SONIA MARIA DE FATIMA SILVA MOUR70104902893903584408/2018+0000000000033048EAPM21/05/1980888800509505001MARCELO MARCOS RIBEIRO          001094040                    
208888800509505010RAFAELA MOURA RIBEIRO           70104905131050685008/2018+0000000000066088EAPM09/07/2013888800509505001MARCELO MARCOS RIBEIRO          001094040                    
208888800509512001ADRIANA LOPES COSSI             70206001509544380508/2018+0000000000039328EAPM07/01/1975888800509512001ADRIANA LOPES COSSI             001121000                    
208888800509514010BEATRIZ BAPISTELLA C T REDE     70101 05158497486908/2018+0000000000062358EAPM03/11/1999888800509514001RUY JORGE CORTEZ TEIXEIRA REDE  001139520                    
208888800509522002RODRIGO SOUZA RIBEIRO           70101 02691747182808/2018+0000000000036238EAPM24/06/1975888800509522001MILENE ZABOT                    001164560                    
208888800509666010REBECA SANCHES CAMARGO          70115 00000000000008/2018+0000000000018008EAPM20/09/2009888800509666001VANESSA RIBEIRO SANCHES         001017480                    
208888800509666011ISABELLE SANCHES VIOTTO         70115 05028338582008/2018+0000000000085608EAPM22/09/2015888800509666001VANESSA RIBEIRO SANCHES         001017480                    
208888800517467002MARGARETE SUELI GARCIA          70102 00778670180008/2018+0000000000062288EAPM27/12/1966888800517467001VANDERLEI VEIGA                 005174670                    
208888800517467010VITOR GARCIA VEIGA              70102 04498938089408/2018+0000000000043638EAPM27/08/1996888800517467001VANDERLEI VEIGA                 005174670                    
208888800517468001RAFAEL SOARES STORRER           70209 00354501291308/2018+0000000000054408EAPM24/08/1981888800517468001RAFAEL SOARES STORRER           005174680                    
208888845582134001ADRIANA F MARQUES DA SILVA      07021001934045888508/2018+0000000000017028EAPM09/08/1974888845582134001ADRIANA F MARQUES DA SILVA      001091540                    
208888845636149001ANETE ANDRADE CABRERA           07010201707653780008/2018+0000000000025078EAPM04/08/1975888845636149001ANETE ANDRADE CABRERA           456361490                    
208888845659936001EWERTON DIAS                    07020900755019180808/2018+0000000000075638EAPM06/04/1968888845659936001EWERTON DIAS                    001162040                    
208888845659936002SANDRA RODRIGUES PACITTI        07020900888977980208/2018+0000000000118478EAPM27/10/1968888845659936001EWERTON DIAS                    001162040                    
208888845659936010AMANDA PACITTI DIAS             07020904445896586708/2018+0000000000035458EAPM27/03/1996888845659936001EWERTON DIAS                    001162040                    
208888845720704001VIVIANE HERICA SILVA VIEIRA     07011600192246348508/2018+0000000000212808EAPM13/11/1974888845720704001VIVIANE HERICA SILVA VIEIRA     015155370                    
208888845720727002ROSEMAR MARIA FERREIRA DE LIMA  07010502863630580208/2018+0000000000093688EAPM28/05/1980888845720727001CARLOS EDUARDO GONCALVES DE LIMA001163190                    
208888845720727010GABRIEL FERREIRA DE LIMA        07010504529808386208/2018+0000000000032388EAPM09/01/2009888845720727001CARLOS EDUARDO GONCALVES DE LIMA001163190                    
208888845720727011VICTORIA GABRIELA F DE LIMA     07010504529808688808/2018+0000000000013768EAPM16/01/2003888845720727001CARLOS EDUARDO GONCALVES DE LIMA001163190                    
208888845924647001MICHELE LAMAS DE MELLO GARCIA   70113900917263677708/2018+0000000000050788EAPM05/12/1981888845924647001MICHELE LAMAS DE MELLO GARCIA   015170470                    
208888846073082001LEANDRO ATAIDE DA SILVA         CBV   03215539080708/2018+0000000000018008EAPM17/08/1984888846073082001LEANDRO ATAIDE DA SILVA         015188070                    
208888846102924010JULIA VALLERINI VOLPI           CETELE04275197380908/2018+0000000000018008EAPM23/09/2006888846102924001FABIANA VALLERINI VOLPI         015182660                    
208888846102924011MURILO VALLERINI VOLPI          CETELE00000000000008/2018+0000000000018008EAPM19/06/2014888846102924001FABIANA VALLERINI VOLPI         015182660                    
208888846108344001FABIANA DE OLIVEIRA                   00300279396508/2018+0000000000054008EAPM09/02/1975888846108344001FABIANA DE OLIVEIRA             001158641                    
208888846112431002KAROLINE RODRIGUES ROQUE        TI DES03664712080708/2018+0000000000038618EAPM08/08/1988888846112431001EDUARDO PETITTO DOS ANJOS       001157090                    
90+000000000160131000036                                                                                                                              
