1029/06/2018                             000000000000000                                                              000000000                       
208888800353789001AUCINELIA GOMES XAVIER            21  02674412046806/2018+0000000000088598CH5Y09/10/1962888800353789001AUCINELIA GOMES XAVIER          000102720                    
208888800353789002JOSE ELIONALDO DE SOUZA           21  00075300184506/2018+0000000000018008CH5Y19/09/1956888800353789001AUCINELIA GOMES XAVIER          000102720                    
208888800353789010RODRIGO GOMES XAVIER BATISTA      21  00540869945506/2018+0000000000086948CH5Y04/05/1989888800353789001AUCINELIA GOMES XAVIER          000102720                    
208888800353880001CARINA ALENCAR D LIBERA ESTEVES   21  03137425689706/2018+0000000000061528CH5Y13/07/1985888800353880001CARINA ALENCAR D LIBERA ESTEVES 000207740                    
208888800353880002DANI ALEXSANDER ESTEVES           21  02135619981006/2018+0000000000035838CH5Y21/12/1978888800353880001CARINA ALENCAR D LIBERA ESTEVES 000207740                    
208888800354013001CATIA APARECIDA DE OLIVEIRA       03  02235575986306/2018+0000000000023948CH5Y20/01/1983888800354013001CATIA APARECIDA DE OLIVEIRA     000213180                    
208888800354015001GRAZIELLE ALVES DOS SANTOS        07  04583148682606/2018+0000000000005528CH5Y20/07/1995888800354015001GRAZIELLE ALVES DOS SANTOS      000213250                    
208888800354027001KARINE FERNANDES DE SOUSA LIMA    21  00941150640206/2018+0000000000110218CH5Y02/01/1993888800354027001KARINE FERNANDES DE SOUSA LIMA  000213540                    
208888800354029001TATIANE MAGALHAES DOS SANTOS      21  03913018689706/2018+0000000000018008CH5Y01/06/1990888800354029001TATIANE MAGALHAES DOS SANTOS    000213570                    
208888800354391001WAGNER DE SOUZA DANTAS            21  00344603644006/2018+0000000000042178CH5Y24/04/1980888800354391001WAGNER DE SOUZA DANTAS          000206070                    
208888800354392001RITA DE CASSIA DA S NASCIMENTO    21  02663321338706/2018+0000000000018008CH5Y30/11/1965888800354392001RITA DE CASSIA DA S NASCIMENTO  000206250                    
208888800354400001FRANCISCA SIMONE DOS S SILVA      21  00546960146306/2018+0000000000016018CH5Y19/11/1984888800354400001FRANCISCA SIMONE DOS S SILVA    000206630                    
208888800354404001JANAINA GOMES PINHEIRO DE MORAIS  21  00083959840806/2018+0000000000012128CH5Y28/05/1981888800354404001JANAINA GOMES PINHEIRO DE MORAIS000206670                    
208888800354423010JOSE MATHIAS                      21  00000000000006/2018+0000000000018008CH5Y12/12/2017888800354423001MICARLA VALDIANNE L CRUZ GOMES  000206920                    
208888800354427001JALMIR DE MEDEIROS                21  00832150720406/2018+0000000000219908CH5Y01/08/1959888800354427001JALMIR DE MEDEIROS              000207010                    
208888800354427002MARIA IVANETE ARAUJO DE MEDEIROS  21  01991159943406/2018+0000000000122028CH5Y03/11/1958888800354427001JALMIR DE MEDEIROS              000207010                    
208888800354483001JOELMA ARAUJO LOPES               21  06533124935306/2018+0000000000033248CH5Y29/07/1979888800354483001JOELMA ARAUJO LOPES             000209360                    
208888800354538001MARIA CONCEICAO C P DE SOUZA      21  03848405610406/2018+0000000000082028CH5Y07/08/1966888800354538001MARIA CONCEICAO C P DE SOUZA    000212540                    
208888800354538002JOAO ANTONIO DE SOUZA             21  03445869715306/2018+0000000000046958CH5Y04/02/1960888800354538001MARIA CONCEICAO C P DE SOUZA    000212540                    
208888800354541001JORACI INERINDA DE ALMEIDA        09  00005195810406/2018+0000000000020118CH5Y22/07/1981888800354541001JORACI INERINDA DE ALMEIDA      000212620                    
208888800354546001LAURINEIA FREITAS DOS SANTOS      21  07070971818706/2018+0000000000016008CH5Y15/10/1984888800354546001LAURINEIA FREITAS DOS SANTOS    000212720                    
208888800354560001LUIZ CARLOS FERNANDES             21  04859706668706/2018+0000000000004168CH5Y07/06/1965888800354560001LUIZ CARLOS FERNANDES           000213320                    
208888800354565001ELANE MENDES DE FRANCA ALVES      21  00496746863206/2018+0000000000017028CH5Y18/12/1980888800354565001ELANE MENDES DE FRANCA ALVES    000213470                    
208888800354578001WALLACE DA COSTA HAITER           09  00121067165406/2018+0000000000076148CH5Y27/04/1980888800354578001WALLACE DA COSTA HAITER         000214040                    
208888800354639001JOELMA APARECIDA VIEIRA           21  09258364490406/2018+0000000000014508CH5Y20/10/1974888800354639001JOELMA APARECIDA VIEIRA         000216300                    
208888800354668001MARCELLA LORIANE CAILLEAUX        21  00556627890606/2018+0000000000018008CH5Y01/07/1987888800354668001MARCELLA LORIANE CAILLEAUX      000217110                    
208888800354674001ELIANA CASTRO SILVA               21  03286849880906/2018+0000000000120148CH5Y10/10/1977888800354674001ELIANA CASTRO SILVA             000217270                    
208888845310979001SORAIA ALVES SILVA                    07432637652006/2018+0000000000018008CH5Y24/09/1976888845310979001SORAIA ALVES SILVA              000215520                    
208888845364477001ELIENE RAMOS DE SOUSA MELO            02964952183606/2018+0000000000018008CH5Y15/07/1982888845364477001ELIENE RAMOS DE SOUSA MELO      000219340                    
208888845384884001JANETE JUCI DA SILVA                  05364303810006/2018+0000000000053948CH5Y24/06/1972888845384884001JANETE JUCI DA SILVA            000219470                    
208888845408873001KEINAIANA FERNANDES BRAZ SILVA        01175676675406/2018+0000000000076498CH5Y27/07/1987888845408873001KEINAIANA FERNANDES BRAZ SILVA  000219830                    
208888845408875001JOSANE SARA FERNANDES DA COSTA        01029372748106/2018+0000000000086688CH5Y03/04/1993888845408875001JOSANE SARA FERNANDES DA COSTA  000219740                    
208888845428567001GLAUCIANE NASCIMENTO NOGUEIRA         00586838732506/2018+0000000000034618CH5Y27/09/1993888845428567001GLAUCIANE NASCIMENTO NOGUEIRA   000220150                    
208888845428571001LEOCASSIA CARDOSO DANTAS              00355743442706/2018+0000000000018008CH5Y11/02/1982888845428571001LEOCASSIA CARDOSO DANTAS        000220130                    
208888845428579002GILMAR JOB DE FRANCA                  00469639245706/2018+0000000000017028CH5Y28/12/1981888845428579001NAIANE DE LIMA VERAS            000220040                    
208888845428611001FAUSTINA PEREIRA SOARES               00105599034806/2018+0000000000036008CH5Y17/02/1980888845428611001FAUSTINA PEREIRA SOARES         000220000                    
208888845444279001FRANCISCA SOCORRO DA SILVA            00811940942606/2018+0000000000018008CH5Y04/10/1993888845444279001FRANCISCA SOCORRO DA SILVA      000220630                    
208888845444291001MARIA SUELI DOS SANTOS                05377126599106/2018+0000000000041458CH5Y11/09/1965888845444291001MARIA SUELI DOS SANTOS          000220520                    
208888845444295001ARNALDO LIMA DA CRUZ JUNIOR           07023154442106/2018+0000000000015808CH5Y28/08/1995888845444295001ARNALDO LIMA DA CRUZ JUNIOR     000220500                    
208888845465348001HELAYNE ROBERTA SOUSA ALENCAR         03436073539106/2018+0000000000042308CH5Y28/06/1970888845465348001HELAYNE ROBERTA SOUSA ALENCAR   000220940                    
208888845465378001ANA CELINA OLIVEIRA COSTA             00305151436506/2018+0000000000055068CH5Y15/05/1990888845465378001ANA CELINA OLIVEIRA COSTA       000221040                    
208888845465378010LUIS FELIPE COSTA GOMES               06189866433106/2018+0000000000059248CH5Y04/06/2009888845465378001ANA CELINA OLIVEIRA COSTA       000221040                    
208888845466878001TACIANA DA SILVA DIAS MENDES    OP DE 00265338530906/2018+0000000000056598CH5Y10/08/1987888845466878001TACIANA DA SILVA DIAS MENDES    000220710                    
208888845513078001EDIVANIA MENDES DOS SANTOS            00928851893206/2018+0000000000034898CH5Y23/04/1994888845513078001EDIVANIA MENDES DOS SANTOS      000221470                    
208888845513098001GRAZIELA FRANCISCO DE LIMA CAZEL      04289910785206/2018+0000000000008348CH5Y20/04/1994888845513098001GRAZIELA FRANCISCO DE LIMA CAZEL000221620                    
208888845530401001EDILENE SOUZA BARBOSA                 01074788761606/2018+0000000000010728CH5Y27/12/1989888845530401001EDILENE SOUZA BARBOSA           000222160                    
208888845554238001NELIANE CARVALHO DOS SANTOS           00400851733206/2018+0000000000017818CH5Y20/06/1986888845554238001NELIANE CARVALHO DOS SANTOS     000223010                    
208888845568421001RAFAELLA SILVA RODRIGUES              00085608327506/2018+0000000000015608CH5Y31/03/1992888845568421001RAFAELLA SILVA RODRIGUES        000223100                    
208888845580019001ELIANE FERREIRA DA SILVA PAULINO      01313315389706/2018+0000000000170878CH5Y15/12/1967888845580019001ELIANE FERREIRA DA SILVA PAULINO000223950                    
208888845580019002VANDERLEI SANTANA PAULINO             00535083882206/2018+0000000000005778CH5Y12/11/1962888845580019001ELIANE FERREIRA DA SILVA PAULINO000223950                    
208888845580044002EURICIO BARTOLOMEU LAGO VERAS         02536247031006/2018+0000000000037068CH5Y10/03/1960888845580044001ROSIDALVA AS VERAS              000223830                    
208888845601649001MARIA EMILIA BURHOFF                  03498668080306/2018+0000000000014008CH5Y09/01/1986888845601649001MARIA EMILIA BURHOFF            000224250                    
208888845630104001DEYLLUHAN COSME DE CARVALHO CAMP      00167009710206/2018+0000000000044448CH5Y16/05/1987888845630104001DEYLLUHAN COSME DE CARVALHO CAMP000220280                    
208888845651269001SONIA DE LOURDES MONTENEGRO LEAL      02392923523406/2018+0000000000048228CH5Y02/08/1966888845651269001SONIA DE LOURDES MONTENEGRO LEAL000227470                    
208888845667701001CAROLINA DOS SANTOS DE SOUSA          00383430534006/2018+0000000000012258CH5Y20/03/1986888845667701001CAROLINA DOS SANTOS DE SOUSA    020223260                    
208888845709190001MARCIA MARQUES DA CRUZ                00403998298306/2018+0000000000089018CH5Y07/07/1981888845709190001MARCIA MARQUES DA CRUZ          020224780                    
208888845709256001ANA CLAUDIA DE BITTENCOURT            00034280391306/2018+0000000000039948CH5Y13/06/1978888845709256001ANA CLAUDIA DE BITTENCOURT      020225120                    
208888845709258001FRANCIELLI LUMAR DA SILVA ROSINO      00584722036706/2018+0000000000018808CH5Y03/02/1992888845709258001FRANCIELLI LUMAR DA SILVA ROSINO020225100                    
208888845720085001RODRIGO JOSE TEODORO DA SILVA         00267007493606/2018+0000000000017988CH5Y06/04/1977888845720085001RODRIGO JOSE TEODORO DA SILVA   020225440                    
208888845720085003LUIS SERGIO MASSARO                   00419487697006/2018+0000000000017988CH5Y22/04/1982888845720085001RODRIGO JOSE TEODORO DA SILVA   020225440                    
208888845720130001NECIMERE DA SILVA SANTOS ANDRADE      00621911445006/2018+0000000000010028CH5Y02/01/1986888845720130001NECIMERE DA SILVA SANTOS ANDRADE020225520                    
208888845747332001FERNANDA SILVA DA ROCHA               06130828233806/2018+0000000000034008CH5Y10/08/1997888845747332001FERNANDA SILVA DA ROCHA         020225780                    
208888845747376001ERICA MORAES LIMA                     07404687039706/2018+0000000000033558CH5Y02/05/1977888845747376001ERICA MORAES LIMA               020225910                    
208888845747380001NATANE FERNANDA DE OLIVEIRA CAET      04324752184406/2018+0000000000014008CH5Y05/02/1996888845747380001NATANE FERNANDA DE OLIVEIRA CAET020225900                    
208888845775826001TATIANA FEITOSA DE LIMA         OPERAD00329491229306/2018+0000000000204198CH5Y10/06/1997888845775826001TATIANA FEITOSA DE LIMA         020226150                    
208888845775862001PATRICIA D PAULA SOUSA TORRES   OPERAD05457804321506/2018+0000000000017028CH5Y29/03/1995888845775862001PATRICIA D PAULA SOUSA TORRES   020222760                    
208888845808008001NARA ALVES DE JESUS                   00668564334006/2018+0000000000035638CH5Y30/08/1996888845808008001NARA ALVES DE JESUS             020226270                    
208888845808018001LUCIA CLEIDE DA SILVA MONTEIRO M      03132719587906/2018+0000000000114128CH5Y02/12/1979888845808018001LUCIA CLEIDE DA SILVA MONTEIRO M020226290                    
208888845808026001PRISCILA BATISTA DE CAMPOS            00173746810706/2018+0000000000144208CH5Y21/11/1990888845808026001PRISCILA BATISTA DE CAMPOS      020226300                    
208888845808046001JUCELENE DE OLIVEIRA S KOSTUSKI       00457238798206/2018+0000000000048518CH5Y14/12/1979888845808046001JUCELENE DE OLIVEIRA S KOSTUSKI 020224620                    
208888845808054001IDALMIRANE MARIA DO NASCIMENTO        00800034090906/2018+0000000000018008CH5Y12/12/1991888845808054001IDALMIRANE MARIA DO NASCIMENTO  020221700                    
208888845817095001GIRLENE APARECIDA DE O CASTILHO       00270302662506/2018+0000000000018008CH5Y30/03/1979888845817095001GIRLENE APARECIDA DE O CASTILHO 020226850                    
208888845817137001DEUZIANE COSTA DE SOUSA SILVA         06173385538606/2018+0000000000028988CH5Y01/12/1997888845817137001DEUZIANE COSTA DE SOUSA SILVA   020226730                    
208888845817155001PATRICIA PEREIRA                      00917701160006/2018+0000000000017028CH5Y13/02/1987888845817155001PATRICIA PEREIRA                020226620                    
208888845817165001EMILI SOARES ROCHA                    01410432866906/2018+0000000000018008CH5Y23/12/1996888845817165001EMILI SOARES ROCHA              020226600                    
208888845817191001LORENA MARIA SANTOS GOUVEIA           00284805050006/2018+0000000000019818CH5Y06/09/1987888845817191001LORENA MARIA SANTOS GOUVEIA     020224460                    
208888845817197001MARIANE POLLI PEDROSO                 00897568990506/2018+0000000000018008CH5Y18/05/1993888845817197001MARIANE POLLI PEDROSO           020224610                    
208888845818952001RODRIGO BERGARA VINHA                 00288418190306/2018+0000000000027848CH5Y12/11/1979888845818952001RODRIGO BERGARA VINHA           020226010                    
208888845842873001GILDA SANTANA DA SILVA                08352999320406/2018+0000000000007938CH5Y25/04/1984888845842873001GILDA SANTANA DA SILVA          020227040                    
208888845842891001MICHELLE MARQUES DA SILVA JOTA        00350755043106/2018+0000000000036008CH5Y31/10/1981888845842891001MICHELLE MARQUES DA SILVA JOTA  240224660                    
208888845842903001REGINALDO GOMES VIANA                 06572714241506/2018+0000000000018008CH5Y27/06/1970888845842903001REGINALDO GOMES VIANA           020226910                    
208888845878141001AGUIDA MARIA BATISTA LIMA             09151286718706/2018+0000000000057418CH5Y06/05/1978888845878141001AGUIDA MARIA BATISTA LIMA       020222600                    
208888845909159001ILSE GONCALINA LEMES ORMOND           00181525810106/2018+0000000000023638CH5Y14/12/1987888845909159001ILSE GONCALINA LEMES ORMOND     020227200                    
208888845942179001THAYMARA REGINA S DE OLIVEIRA         00489346618606/2018+0000000000066248CH5Y23/05/1994888845942179001THAYMARA REGINA S DE OLIVEIRA   020227550                    
208888846001652001SEBASTIANA PEREIRA DA COSTA           07314652821506/2018+0000000000038288CH5Y19/04/1983888846001652001SEBASTIANA PEREIRA DA COSTA     020223930                    
208888846001654001GRACIANE APARECIDA DUARTE             01270790161006/2018+0000000000016258CH5Y05/10/1994888846001654001GRACIANE APARECIDA DUARTE       020227470                    
208888846001820001RENILSON DO NASCIMENTO ROCHA          08385448748706/2018+0000000000018868CH5Y07/02/1974888846001820001RENILSON DO NASCIMENTO ROCHA    020227760                    
208888846014189001MARINALVA BATISTA VIANA               06037970726806/2018+0000000000074198CH5Y25/05/1976888846014189001MARINALVA BATISTA VIANA         020227910                    
208888846014207001RAABE DA SILVA MENDES                 00280477716206/2018+0000000000081628CH5Y29/05/1987888846014207001RAABE DA SILVA MENDES           020227610                    
208888846059502001MAYARA SANTANA BRITO                  00236678159806/2018+0000000000191548CH5Y25/03/1987888846059502001MAYARA SANTANA BRITO            000015010                    
90+000000000404675000090                                                                                                                              
