1031/07/2018                             000000000000000                                                              000000000                       
208888800353746001ROSINETE DA SILVA SANTOS          21-100535313578407/2018+0000000000013208CHE814/02/1972888800353746001ROSINETE DA SILVA SANTOS        000210550                    
208888800353748001MYLENA RODRIGUES LESSA            21-101344649173207/2018+0000000000067568CHE818/06/1990888800353748001MYLENA RODRIGUES LESSA          000210660                    
208888800353770001ROMULO DO ESPIRITO SANTO SILVA    21-101028281170207/2018+0000000000042538CHE809/04/1983888800353770001ROMULO DO ESPIRITO SANTO SILVA  000214810                    
208888845329648001VIRLENE SOARES DE SOUZA               00856452963707/2018+0000000000010348CHE802/03/1986888845329648001VIRLENE SOARES DE SOUZA         000217830                    
208888845509574001NEIDE APARECIDA PARAJARA PEREIRA      00354881078007/2018+0000000000032958CHE801/04/1972888845509574001NEIDE APARECIDA PARAJARA PEREIRA000221270                    
208888845554262001MARIA ROSARIA BARROS LIRA             06593304433407/2018+0000000000107328CHE815/09/1973888845554262001MARIA ROSARIA BARROS LIRA       000222650                    
208888845606233001BIANCA KATELINE SILVA DE MIRANDA      01202757871407/2018+0000000000039478CHE819/09/1988888845606233001BIANCA KATELINE SILVA DE MIRANDA000224000                    
208888845746491001CECILIA XAVIER OLIVEIRA               00574689478807/2018+0000000000028468CHE814/07/1983888845746491001CECILIA XAVIER OLIVEIRA         020225830                    
208888845817219001TACIANA DA CONCEICAO                  01579360475807/2018+0000000000018008CHE804/12/1992888845817219001TACIANA DA CONCEICAO            020226690                    
208888845817237001CRISTIANE JOTTA RAMOS                 00924516577907/2018+0000000000018008CHE831/01/1982888845817237001CRISTIANE JOTTA RAMOS           020226680                    
90+000000000037783000010                                                                                                                              
