1028/02/2018                             000000000000000                                                              000000000                       
208888800353746001ROSINETE DA SILVA SANTOS          21-100535313578402/2018+0000000000075768CHE814/02/1972888800353746001ROSINETE DA SILVA SANTOS        000210550                    
208888800353748001MYLENA RODRIGUES LESSA            21-101344649173202/2018+0000000000051028CHE818/06/1990888800353748001MYLENA RODRIGUES LESSA          000210660                    
208888800353760001CINTHIA SILVERIO DA SILVA         21-101056761172802/2018+0000000000017208CHE801/03/1992888800353760001CINTHIA SILVERIO DA SILVA       000212580                    
208888800353766001ELIZABETE A DOS SANTOS PRATA      21-100161754678002/2018+0000000000024138CHE805/09/1970888800353766001ELIZABETE A DOS SANTOS PRATA    000214380                    
208888845329648001VIRLENE SOARES DE SOUZA               00856452963702/2018+0000000000008778CHE802/03/1986888845329648001VIRLENE SOARES DE SOUZA         000217830                    
208888845509574001NEIDE APARECIDA PARAJARA PEREIRA      00354881078002/2018+0000000000019008CHE801/04/1972888845509574001NEIDE APARECIDA PARAJARA PEREIRA000221270                    
208888845530471001CAMILA ROSA DIAS                      01286326877502/2018+0000000000012298CHE811/07/1989888845530471001CAMILA ROSA DIAS                000221920                    
208888845554262001MARIA ROSARIA BARROS LIRA             06593304433402/2018+0000000000208798CHE815/09/1973888845554262001MARIA ROSARIA BARROS LIRA       000222650                    
208888845606223001JOSE RENAN MORAES SOARES              01161117970002/2018+0000000000018008CHE815/06/1992888845606223001JOSE RENAN MORAES SOARES        000223990                    
208888845606233001BIANCA KATELINE SILVA DE MIRANDA      01202757871402/2018+0000000000036008CHE819/09/1988888845606233001BIANCA KATELINE SILVA DE MIRANDA000224000                    
208888845651238001FABIANA DE COUTO AGUIAR               01033625477602/2018+0000000000018008CHE824/07/1981888845651238001FABIANA DE COUTO AGUIAR         000224850                    
208888845817219001TACIANA DA CONCEICAO                  01579360475802/2018+0000000000017028CHE804/12/1992888845817219001TACIANA DA CONCEICAO            020226690                    
208888845842935001KARLA RODRIGUES DE ASSIS              00939049775202/2018+0000000000018368CHE827/04/1982888845842935001KARLA RODRIGUES DE ASSIS        020225660                    
90+000000000052434000013                                                                                                                              
