1031/07/2018                             000000000000000                                                              000000000                       
208888800353789001AUCINELIA GOMES XAVIER            21  02674412046807/2018+0000000000033608CH5Y09/10/1962888800353789001AUCINELIA GOMES XAVIER          000102720                    
208888800353789010RODRIGO GOMES XAVIER BATISTA      21  00540869945507/2018+0000000000014008CH5Y04/05/1989888800353789001AUCINELIA GOMES XAVIER          000102720                    
208888800353880001CARINA ALENCAR D LIBERA ESTEVES   21  03137425689707/2018+0000000000018008CH5Y13/07/1985888800353880001CARINA ALENCAR D LIBERA ESTEVES 000207740                    
208888800353880002DANI ALEXSANDER ESTEVES           21  02135619981007/2018+0000000000018008CH5Y21/12/1978888800353880001CARINA ALENCAR D LIBERA ESTEVES 000207740                    
208888800354013001CATIA APARECIDA DE OLIVEIRA       03  02235575986307/2018+0000000000036008CH5Y20/01/1983888800354013001CATIA APARECIDA DE OLIVEIRA     000213180                    
208888800354015001GRAZIELLE ALVES DOS SANTOS        07  04583148682607/2018+0000000000068008CH5Y20/07/1995888800354015001GRAZIELLE ALVES DOS SANTOS      000213250                    
208888800354027001KARINE FERNANDES DE SOUSA LIMA    21  00941150640207/2018+0000000000036008CH5Y02/01/1993888800354027001KARINE FERNANDES DE SOUSA LIMA  000213540                    
208888800354110001ANA PAULA BUSSOLAN DE SOUZA       21  02236656688307/2018+0000000000024008CH5Y16/08/1982888800354110001ANA PAULA BUSSOLAN DE SOUZA     000215890                    
208888800354374001DAYANNA KAYSE O DO NASCIMENTO     21  00112267645007/2018+0000000000083718CH5Y25/03/1982888800354374001DAYANNA KAYSE O DO NASCIMENTO   000204410                    
208888800354378001ADRIANA DAS N DE LIMA BEZERRA     21  00232512949707/2018+0000000000079868CH5Y09/12/1977888800354378001ADRIANA DAS N DE LIMA BEZERRA   000204920                    
208888800354391001WAGNER DE SOUZA DANTAS            21  00344603644007/2018+0000000000050648CH5Y24/04/1980888800354391001WAGNER DE SOUZA DANTAS          000206070                    
208888800354392001RITA DE CASSIA DA S NASCIMENTO    21  02663321338707/2018+0000000000026698CH5Y30/11/1965888800354392001RITA DE CASSIA DA S NASCIMENTO  000206250                    
208888800354394001ADRIANA DE OLIVEIRA PEDRO XAVIER  21  00533093643807/2018+0000000000010708CH5Y14/09/1983888800354394001ADRIANA DE OLIVEIRA PEDRO XAVIER000206520                    
208888800354396001ANTONIA EVANEIDE P FERNANDES      21  06259844948707/2018+0000000000018008CH5Y21/01/1972888800354396001ANTONIA EVANEIDE P FERNANDES    000206540                    
208888800354404001JANAINA GOMES PINHEIRO DE MORAIS  21  00083959840807/2018+0000000000039988CH5Y28/05/1981888800354404001JANAINA GOMES PINHEIRO DE MORAIS000206670                    
208888800354427001JALMIR DE MEDEIROS                21  00832150720407/2018+0000000000017128CH5Y01/08/1959888800354427001JALMIR DE MEDEIROS              000207010                    
208888800354447001RUI OLIVEIRA BARBOSA              21  03269672837207/2018+0000000000048338CH5Y04/11/1970888800354447001RUI OLIVEIRA BARBOSA            000208150                    
208888800354473001JEZUITA DE OLIVEIRA TEIXEIRA      21  06044345653407/2018+0000000000158868CH5Y06/08/1970888800354473001JEZUITA DE OLIVEIRA TEIXEIRA    000209100                    
208888800354476001ROSEMEIRE OLIVEIRA DA SILVA       21  00435448153707/2018+0000000000153568CH5Y14/04/1991888800354476001ROSEMEIRE OLIVEIRA DA SILVA     000209200                    
208888800354509001ANA CRISTINA ANDRADE DE SOUZA     21  00137323131907/2018+0000000000006398CH5Y11/03/1986888800354509001ANA CRISTINA ANDRADE DE SOUZA   000211630                    
208888800354524001RIZIA ALVES DE CASTRO             21  00290487110107/2018+0000000000071168CH5Y22/04/1987888800354524001RIZIA ALVES DE CASTRO           000212160                    
208888800354538001MARIA CONCEICAO C P DE SOUZA      21  03848405610407/2018+0000000000016518CH5Y07/08/1966888800354538001MARIA CONCEICAO C P DE SOUZA    000212540                    
208888800354538002JOAO ANTONIO DE SOUZA             21  03445869715307/2018+0000000000033638CH5Y04/02/1960888800354538001MARIA CONCEICAO C P DE SOUZA    000212540                    
208888800354565001ELANE MENDES DE FRANCA ALVES      21  00496746863207/2018+0000000000083568CH5Y18/12/1980888800354565001ELANE MENDES DE FRANCA ALVES    000213470                    
208888800354567001ELIZANGELA MARIA GASQUE LEQUE     21  09143916716807/2018+0000000000111638CH5Y15/01/1981888800354567001ELIZANGELA MARIA GASQUE LEQUE   000213670                    
208888800354578001WALLACE DA COSTA HAITER           09  00121067165407/2018+0000000000022198CH5Y27/04/1980888800354578001WALLACE DA COSTA HAITER         000214040                    
208888800354590001MARCIA SOUZA PEREIRA              21  08389471310007/2018+0000000000013298CH5Y04/03/1976888800354590001MARCIA SOUZA PEREIRA            000214520                    
208888800354651010HELOISA PIASSALI DE CASTRO        21  00000000000007/2018+0000000000135388CH5Y15/09/2016888800354651001LISLAINE PIASSALI DE CASTRO     000216710                    
208888800354674001ELIANA CASTRO SILVA               21  03286849880907/2018+0000000000014508CH5Y10/10/1977888800354674001ELIANA CASTRO SILVA             000217270                    
208888845364473001NAYARA OLIVEIRA DE MELO               00477247733007/2018+0000000000019238CH5Y01/06/1991888845364473001NAYARA OLIVEIRA DE MELO         000219270                    
208888845384884001JANETE JUCI DA SILVA                  05364303810007/2018+0000000000105728CH5Y24/06/1972888845384884001JANETE JUCI DA SILVA            000219470                    
208888845402510001LAURA VIRGINIA R VILELA PEREIRA       08959037613407/2018+0000000000031588CH5Y12/02/1978888845402510001LAURA VIRGINIA R VILELA PEREIRA 000216820                    
208888845408873001KEINAIANA FERNANDES BRAZ SILVA        01175676675407/2018+0000000000010408CH5Y27/07/1987888845408873001KEINAIANA FERNANDES BRAZ SILVA  000219830                    
208888845428567001GLAUCIANE NASCIMENTO NOGUEIRA         00586838732507/2018+0000000000068468CH5Y27/09/1993888845428567001GLAUCIANE NASCIMENTO NOGUEIRA   000220150                    
208888845444291001MARIA SUELI DOS SANTOS                05377126599107/2018+0000000000078888CH5Y11/09/1965888845444291001MARIA SUELI DOS SANTOS          000220520                    
208888845444295001ARNALDO LIMA DA CRUZ JUNIOR           07023154442107/2018+0000000000015808CH5Y28/08/1995888845444295001ARNALDO LIMA DA CRUZ JUNIOR     000220500                    
208888845465356001ALINE DA SILVA SILVERIO               00522715915707/2018+0000000000046628CH5Y02/07/1993888845465356001ALINE DA SILVA SILVERIO         000220890                    
208888845466878001TACIANA DA SILVA DIAS MENDES    OP DE 00265338530907/2018+0000000000018008CH5Y10/08/1987888845466878001TACIANA DA SILVA DIAS MENDES    000220710                    
208888845513042001MARCIA MACEDO SILVA                   04130584286307/2018+0000000000009978CH5Y09/04/1990888845513042001MARCIA MACEDO SILVA             000221790                    
208888845554028001JOCASTHA SCHMALTZ DE OLIVEIRA         07015911116107/2018+0000000000015008CH5Y16/05/1995888845554028001JOCASTHA SCHMALTZ DE OLIVEIRA   000222510                    
208888845554192001FLAVIA MAURA SANTOS FRAZAO            04881350838707/2018+0000000000017818CH5Y28/09/1972888845554192001FLAVIA MAURA SANTOS FRAZAO      000223170                    
208888845554238001NELIANE CARVALHO DOS SANTOS           00400851733207/2018+0000000000201548CH5Y20/06/1986888845554238001NELIANE CARVALHO DOS SANTOS     000223010                    
208888845568421001RAFAELLA SILVA RODRIGUES              00085608327507/2018+0000000000015608CH5Y31/03/1992888845568421001RAFAELLA SILVA RODRIGUES        000223100                    
208888845580044001ROSIDALVA AS VERAS                    02684293937207/2018+0000000000017928CH5Y09/09/1965888845580044001ROSIDALVA AS VERAS              000223830                    
208888845580075001PAULO ROBERTO DIAS LIMA               09945057731507/2018+0000000000071288CH5Y12/02/1984888845580075001PAULO ROBERTO DIAS LIMA         000223770                    
208888845601612001RENATA DE SOUSA RIBEIRO               00514730854707/2018+0000000000054918CH5Y14/01/1991888845601612001RENATA DE SOUSA RIBEIRO         000224010                    
208888845601639001FABIANO APARECIDO DE PAULA PINHE      02301943984107/2018+0000000000019848CH5Y18/09/1987888845601639001FABIANO APARECIDO DE PAULA PINHE000224180                    
208888845630047001PAULO SERGIO OSORIO DA FONSECA        05961610586807/2018+0000000000018008CH5Y03/01/1952888845630047001PAULO SERGIO OSORIO DA FONSECA  000224450                    
208888845630104001DEYLLUHAN COSME DE CARVALHO CAMP      00167009710207/2018+0000000000019878CH5Y16/05/1987888845630104001DEYLLUHAN COSME DE CARVALHO CAMP000220280                    
208888845636175001PATRICIA MARTINS DE OLIVEIRA          08323530238707/2018+0000000000057938CH5Y25/08/1979888845636175001PATRICIA MARTINS DE OLIVEIRA    000224540                    
208888845667701001CAROLINA DOS SANTOS DE SOUSA          00383430534007/2018+0000000000046788CH5Y20/03/1986888845667701001CAROLINA DOS SANTOS DE SOUSA    020223260                    
208888845709216001JHENIFFER DE ALCANTARA MESQUITA       00446806510907/2018+0000000000033168CH5Y27/12/1992888845709216001JHENIFFER DE ALCANTARA MESQUITA 020225250                    
208888845720085003LUIS SERGIO MASSARO                   00419487697007/2018+0000000000061948CH5Y22/04/1982888845720085001RODRIGO JOSE TEODORO DA SILVA   020225440                    
208888845720098001FRANCIDALVA GUIMARAES DOS SANTOS      08345453520407/2018+0000000000044868CH5Y10/04/1984888845720098001FRANCIDALVA GUIMARAES DOS SANTOS020225470                    
208888845720139001THAYSE GISELLE PINHO SANTANA          00447870718907/2018+0000000000069518CH5Y19/05/1993888845720139001THAYSE GISELLE PINHO SANTANA    020225540                    
208888845747332001FERNANDA SILVA DA ROCHA               06130828233807/2018+0000000000068008CH5Y10/08/1997888845747332001FERNANDA SILVA DA ROCHA         020225780                    
208888845747354001MANOELA PEREIRA SOUZA                 00309017254207/2018+0000000000027338CH5Y29/05/1986888845747354001MANOELA PEREIRA SOUZA           020225750                    
208888845747376001ERICA MORAES LIMA                     07404687039707/2018+0000000000024008CH5Y02/05/1977888845747376001ERICA MORAES LIMA               020225910                    
208888845775708001CLAUDILENE MILAN ROCHA          OPERAD00394049616207/2018+0000000000016618CH5Y07/06/1989888845775708001CLAUDILENE MILAN ROCHA          020225950                    
208888845807928001GLAUCO CHAVES                         01220223484507/2018+0000000000027938CH5Y11/10/1971888845807928001GLAUCO CHAVES                   020226320                    
208888845808008001NARA ALVES DE JESUS                   00668564334007/2018+0000000000137258CH5Y30/08/1996888845808008001NARA ALVES DE JESUS             020226270                    
208888845808018001LUCIA CLEIDE DA SILVA MONTEIRO M      03132719587907/2018+0000000000014068CH5Y02/12/1979888845808018001LUCIA CLEIDE DA SILVA MONTEIRO M020226290                    
208888845808046001JUCELENE DE OLIVEIRA S KOSTUSKI       00457238798207/2018+0000000000018008CH5Y14/12/1979888845808046001JUCELENE DE OLIVEIRA S KOSTUSKI 020224620                    
208888845808054001IDALMIRANE MARIA DO NASCIMENTO        00800034090907/2018+0000000000169118CH5Y12/12/1991888845808054001IDALMIRANE MARIA DO NASCIMENTO  020221700                    
208888845817137001DEUZIANE COSTA DE SOUSA SILVA         06173385538607/2018+0000000000105738CH5Y01/12/1997888845817137001DEUZIANE COSTA DE SOUSA SILVA   020226730                    
208888845817165001EMILI SOARES ROCHA                    01410432866907/2018+0000000000071998CH5Y23/12/1996888845817165001EMILI SOARES ROCHA              020226600                    
208888845817171001TATIANE BOTEGA RIBEIRO NETTO          01010995995707/2018+0000000000021828CH5Y10/03/1996888845817171001TATIANE BOTEGA RIBEIRO NETTO    020226530                    
208888845817191001LORENA MARIA SANTOS GOUVEIA           00284805050007/2018+0000000000144368CH5Y06/09/1987888845817191001LORENA MARIA SANTOS GOUVEIA     020224460                    
208888845842891001MICHELLE MARQUES DA SILVA JOTA        00350755043107/2018+0000000000054908CH5Y31/10/1981888845842891001MICHELLE MARQUES DA SILVA JOTA  240224660                    
208888845842903001REGINALDO GOMES VIANA                 06572714241507/2018+0000000000014508CH5Y27/06/1970888845842903001REGINALDO GOMES VIANA           020226910                    
208888845842921001ANA PAULA LONGO                       00276565894307/2018+0000000000021608CH5Y08/01/1980888845842921001ANA PAULA LONGO                 020221460                    
208888845878024001ANTONIO FERNANDO DE GOYAZ             02691716511507/2018+0000000000038448CH5Y08/10/1961888845878024001ANTONIO FERNANDO DE GOYAZ       020227270                    
208888845878141001AGUIDA MARIA BATISTA LIMA             09151286718707/2018+0000000000034048CH5Y06/05/1978888845878141001AGUIDA MARIA BATISTA LIMA       020222600                    
208888845907048001RUBENS RODRIGUES ALVES FILHO          00277217989307/2018+0000000000034618CH5Y28/05/1966888845907048001RUBENS RODRIGUES ALVES FILHO    020227320                    
208888845909159001ILSE GONCALINA LEMES ORMOND           00181525810107/2018+0000000000048048CH5Y14/12/1987888845909159001ILSE GONCALINA LEMES ORMOND     020227200                    
208888845942167001VERONICA DA CRUZ CALVET FERREIRAOPERAD09681616332007/2018+0000000000035628CH5Y02/02/1985888845942167001VERONICA DA CRUZ CALVET FERREIRA020227500                    
208888845942179001THAYMARA REGINA S DE OLIVEIRA         00489346618607/2018+0000000000079768CH5Y23/05/1994888845942179001THAYMARA REGINA S DE OLIVEIRA   020227550                    
208888846001654001GRACIANE APARECIDA DUARTE             01270790161007/2018+0000000000012008CH5Y05/10/1994888846001654001GRACIANE APARECIDA DUARTE       020227470                    
208888846001816001GERMANA CORREIA LIMA G MESQUITA       06318787631507/2018+0000000000061298CH5Y27/03/1977888846001816001GERMANA CORREIA LIMA G MESQUITA 020227770                    
208888846014189001MARINALVA BATISTA VIANA               06037970726807/2018+0000000000015608CH5Y25/05/1976888846014189001MARINALVA BATISTA VIANA         020227910                    
208888846014207001RAABE DA SILVA MENDES                 00280477716207/2018+0000000000070538CH5Y29/05/1987888846014207001RAABE DA SILVA MENDES           020227610                    
208888846059502001MAYARA SANTANA BRITO                  00236678159807/2018+0000000000200988CH5Y25/03/1987888846059502001MAYARA SANTANA BRITO            000015010                    
208888846101153001MARINETE CRISTINA DEVITT              08478131914907/2018+0000000000050348CH5Y27/04/1978888846101153001MARINETE CRISTINA DEVITT        000015150                    
90+000000000423234000083                                                                                                                              
