1029/06/2018                             000000000000000                                                              000000000                       
208888800353738001DIEGO MINATELI GRAZINOLI          21-100965624579206/2018+0000000000034008CHE801/12/1983888800353738001DIEGO MINATELI GRAZINOLI        000207510                    
208888800353746001ROSINETE DA SILVA SANTOS          21-100535313578406/2018+0000000000040178CHE814/02/1972888800353746001ROSINETE DA SILVA SANTOS        000210550                    
208888800353748001MYLENA RODRIGUES LESSA            21-101344649173206/2018+0000000000093708CHE818/06/1990888800353748001MYLENA RODRIGUES LESSA          000210660                    
208888845329648001VIRLENE SOARES DE SOUZA               00856452963706/2018+0000000000089578CHE802/03/1986888845329648001VIRLENE SOARES DE SOUZA         000217830                    
208888845509574001NEIDE APARECIDA PARAJARA PEREIRA      00354881078006/2018+0000000000007698CHE801/04/1972888845509574001NEIDE APARECIDA PARAJARA PEREIRA000221270                    
208888845606233001BIANCA KATELINE SILVA DE MIRANDA      01202757871406/2018+0000000000032608CHE819/09/1988888845606233001BIANCA KATELINE SILVA DE MIRANDA000224000                    
208888845746491001CECILIA XAVIER OLIVEIRA               00574689478806/2018+0000000000042538CHE814/07/1983888845746491001CECILIA XAVIER OLIVEIRA         020225830                    
208888845878215001TATIANA SILVA DE MORAIS               00926813374106/2018+0000000000047058CHE826/09/1981888845878215001TATIANA SILVA DE MORAIS         020226240                    
90+000000000038731000008                                                                                                                              
